:10C20000C01D002025CB0000E307010011CB00007A
:10C2100011CB000011CB000011CB0000000000008A
:10C22000000000000000000000000000D9CC000069
:10C2300011CB000000000000A5CC000011CB0000D5
:10C2400065CE000065CE000065CE000065CE000022
:10C2500065CE000065CE000065CE000065CE000012
:10C2600065CE000065CE000065CE000065CE000002
:10C2700065CE000065CE000065CE000065CE0000F2
:10C2800065CE000065CE000065CE000065CE0000E2
:10C2900065CE000065CE000065CE000065CE0000D2
:10C2A00065CE000065CE000065CE000065CE0000C2
:10C2B00065CE000065CE000065CE000065CE0000B2
:10C2C00065CE000065CE000065CE000065CE0000A2
:10C2D00065CE000065CE000065CE000065CE000092
:10C2E00065CE000065CE000065CE000065CE000082
:10C2F00065CE000065CE000065CE000065CE000072
:10C3000038B5144C204604F092FC00B32269A568AD
:10C31000136843F4005313602B680F4A0D21204625
:10C320009847002813DB0D4804F06BF90C490D48C1
:10C3300004F067F94FF400516B69204698470028D4
:10C3400005DB00214FF4004003F028FAF2E700205B
:10C3500038BD00BFB4100100010006003C1401000C
:10C360005E14010069140100014B1B68184700BFEF
:10C37000C0040020014B1860704700BFC0040020BB
:10C3800030B585B004460D4610220021684604F001
:10C39000DCFD02238DF802302A46044B019321462E
:10C3A000684603F0EFFD05B030BD00BF69C3000073
:10C3B00080B505460E461746984603F00DFA03462B
:10C3C00004F02EFEDFF81890044649F8003042468B
:10C3D00030463946A84754F8090000F011FC00BF68
:10C3E000080000002DE9F047058B04462807904619
:10C3F00011D4022905F0070540F0CC80204604F056
:10C400000DF978B10138218B042811D8DFE800F04C
:10C41000C2106D85950001290CBF45F0100545F04F
:10C420002005258388F31188BFF36F8FBDE8F0875F
:10C4300001F0070AAA4500F0A5800027B9463E464C
:10C44000A368002B00F0BC8041F00801218388F331
:10C450001188BFF36F8FA168002900F0BA800D68C2
:10C46000002900F0B680D1F80480334652462046B9
:10C47000C047002D76D02B6829461D46F0E701F015
:10C4800007035A1F012A1BD8002221F00701062B9F
:10C49000276889B2C4E9002209D13B4603E0628BD8
:10C4A000013262831B68002BF9D141F00201218324
:10C4B000204604F0B3F800287AD041F0200176E05D
:10C4C000042B0AD121F0070189B22183204604F010
:10C4D000A5F810B141F020012183218B01F0070A5A
:10C4E000AA454FD00027B946AAE7236921F00701E2
:10C4F00041F00601062DD3F8009021832DD1B9F12A
:10C50000000F3FD041F00801218388F31188BFF369
:10C510006F8F3A492046C84729E021F00701236977
:10C5200041F0040189B2042DD3F804902183E6D0B0
:10C5300000273E464FF0040A82E721F007012369F5
:10C5400041F0050189B2052DD3F808902183D6D09A
:10C5500000273E464FF0050A72E700273E464FF09F
:10C56000060A6DE72B4687E7B9F1000FD1D1EFF34B
:10C570001188202383F31288BFF36F8F238B23F05E
:10C5800008032383258BEA062ED525F01003238389
:10C5900005F007056669218B002EBFF670AF0023FA
:10C5A0002768C4E9003321F0070141F0010121832C
:10C5B000218B01F0070AAA454FF000097FF440AF34
:10C5C000002F9CD041F00801218388F31188BFF32C
:10C5D0006F8F002FC8D03D683946334652462046FB
:10C5E00004F048F82F46F4E7AB067FF51BAF25F0C3
:10C5F0002003238305F0070500E700BFA106010023
:10C60000014B0360002070476812010008B5044820
:10C6100003F0F7FFBDE80840024803F0F2BF00BF97
:10C62000A8140100DD140100014803F003BB00BFA2
:10C630006812010038B5044618B90F4B0F485B6803
:10C6400098476168B1F5683F10D0B1F5680F0DD01B
:10C650000B4DA9420AD011F46861206807D0014649
:10C66000084804F03FFB00232360656038BD1422B6
:10C6700004F06BFCF9E700BF840500200B150100F6
:10C680002C5F5CA9000D002008B520B34368B3F50A
:10C69000683F10D101220368BFF35B8F53E8001F8E
:10C6A000002903D143E800200028F7D1BFF35B8FB6
:10C6B0000DD1002008BD094A93420AD000684FF00E
:10C6C000FF324FF0FF3302F09BFC0028F1D004480A
:10C6D000F0E70448EEE76FF4E040EBE72C5F5CA97D
:10C6E000E98FFFFFEA8FFFFF08B5D8B14368B3F5C4
:10C6F000683F10D100220368BFF35B8F53E8001F2F
:10C70000012903D143E800200028F7D1BFF35B8F54
:10C710000BD1002008BD074A934208D0006802F000
:10C72000E7FCF6E76FF4E040F4E70348F2E703487C
:10C73000F0E700BF2C5F5CA9E98FFFFFEA8FFFFFE6
:10C7400010B5044618B91D4B1D485B6898476368CF
:10C75000B3F5683F2FD0B3F5680F2CD0194A934238
:10C7600019D1236803BB18484FF0FF324FF0FF3355
:10C77000214602F017FC08B923681BB90F4B134878
:10C780005B68984720681422002104F0DEFB4FF418
:10C790006863636008E0B3F5683F0DD83A2B03D0B7
:10C7A00040F6BA629342DED1206804F0D3FA63689F
:10C7B00043F03A03636010BD054AF3E784050020A7
:10C7C0000B1501002C5F5CA9000D00203115010044
:10C7D0003A00003A08B5064906484023142204F0FE
:10C7E00073FABDE808400449044803F095BA00BF55
:10C7F00000080020000D00207012010084120100CA
:10C8000030BFFFF7FDBF00BF2DE9F0410B4EDFF851
:10C81000308006EB0807CC1B054632460949204606
:10C8200004F085FBA01942460021083C04F08DFB72
:10C830002C6707F10800BDE8F08100BF0000000090
:10C84000040000005C120100074A936893F90E107F
:10C85000002907DB526993421FBF044A536843F023
:10C8600080535360704700BFDC0D002000ED00E0F6
:10C8700070B5264B15469A6A12F0100F9A6A14BFCB
:10C880001124102412F0080F9A6A18BF122492077C
:10C8900006460AD5586B9A6A140634D519B19A6AB5
:10C8A00022F080029A62132401E06FF01500174B0A
:10C8B0009A6A12F0010F9A6A18BF142412F0200F1E
:10C8C0009A6A18BF1524D20602D49B6A9B070AD520
:10C8D0000E4B5B68190506D5314600F079FA10B1A8
:10C8E00080F309880224094B9A6A920642BF5A6A69
:10C8F00022F400525A629A6A42F0FF029A620023BE
:10C900002B70204670BD6FF01500CCE700ED00E005
:10C91000134B9A6A12F0007F9A6A14BF1E201D20E2
:10C9200012F0807F9A6A18BF1F2012F4002F9A6AB3
:10C9300018BF212012F4802F9A6A18BF222012F407
:10C94000003F9A6A18BF232012F4803F9A6A6FEA68
:10C9500002426FEA12429A6218BF2420704700BF59
:10C9600000ED00E010B5194B0246986A9C6A10F47D
:10C97000805F14BF1720162014F4006F9C6A18BF44
:10C980001820A40509D5986B986A000404D51AB13B
:10C990009A6A22F400429A6219200C4B9A6A12F4A5
:10C9A000806F9A6A18BF1A20D2050CD49B6A13F4C0
:10C9B000005F18BF1C20054A936A43F47F439362CB
:10C9C00000230B7010BD1B20F5E700BF00ED00E059
:10C9D000F0B5484B5B688BB00446C3F308030025F1
:10C9E00085F31188BFF36F8F02F07F40B0F17F4F66
:10C9F00011D102F00C0008280DD010074CBF0C46D6
:10CA000001250022033B8DF80720032B05D8DFE822
:10CA100003F0246367602C46F3E700239DF80720AA
:10CA2000CAB902AE04F1200720686168324603C229
:10CA30000834BC421646F7D1099A002D54D0C2F3EF
:10CA4000080121B96FEA52226FEA4222099202A933
:10CA5000184603F0BCFE0BB0F0BD264BDA6A910716
:10CA6000DBD4DA6A002AD8DBDA6A5200D5D55A69F3
:10CA7000A16942F480725A61BFF34F8FBFF36F8F89
:10CA80005A6931F8021C22F480725A61BFF34F8F49
:10CA9000BFF36F8F4DF6027291420AD09A6AD2B2FA
:10CAA0004AB10DF1070201212046FFF7E1FE0346DE
:10CAB000B4E72368B2E79A6A12F47F4F05D00DF10C
:10CAC00007010120FFF74EFFF1E79B6AB3F5803FB6
:10CAD000A3D3FFF71DFFEAE70DF107020021E3E70B
:10CAE0000DF107010020EDE722F4FF7222F00102B0
:10CAF000ACE700BF00ED00E0044B5A6942F01002C1
:10CB00005A615A6922F008025A61704700ED00E04C
:10CB1000EFF30880EFF3098101B57246FFF758FF84
:10CB200001BD00BF002080F31488BFF36F8F01F0B8
:10CB300087FA00200D490860BFF34F8F0C4880F33F
:10CB4000088800F02BF8202080F3118809484FF462
:10CB50000461401880F30988EFF314800221084330
:10CB600080F31488BFF36F8F00F0FAF894ED00E0C3
:10CB7000C01D0020001000200749D1F8902000239C
:10CB8000C2F307221846934200DB7047C1F8983081
:10CB9000C1F8A0000133F6E700ED00E008B572B679
:10CBA000002383F31388FFF7E7FF144B4FF0FF32A6
:10CBB000C3F88020C3F88420C3F88820C3F88C20F1
:10CBC000C3F89020C3F89420C3F89820C3F89C20A1
:10CBD000C3F88021C3F88421C3F88821C3F88C21CD
:10CBE000C3F89021C3F89421C3F89821C3F89C217D
:10CBF00062B6BFF34F8FBFF36F8F08BD00E100E057
:10CC0000084B9B6883420BD1EFF3058343B1064B7E
:10CC10005A6842F080525A605A6A22F400425A62BC
:10CC200004F04AB9DC0D002000ED00E0094A9368E9
:10CC30006FF00A019967084958674B6843F08053C1
:10CC40004B60002383F31188BFF36F8F9368986F55
:10CC5000704700BFDC0D002000ED00E010B5044679
:10CC6000EFF31183202383F31288BFF36F8F0A4BF6
:10CC700058699860094B4FF000625A60084B026F88
:10CC80001A600022436F426783F31188BFF36F8FEE
:10CC900000F006F9204610BDDC0D002000ED00E09C
:10CCA0001C0D00200B498A684FF030001044EFF350
:10CCB000098C80E8F01F74467046FFF7CFFFA64648
:10CCC00004498A6802F1300090E8F01F8CF309886B
:10CCD00070470000DC0D00201EF0040F0CBFEFF3C6
:10CCE0000880EFF30980816911F8021C0229FFD046
:10CCF00001B503F072FD01BD40B2002807DB044A14
:10CD00004109012300F01F00834042F821307047A1
:10CD100000E100E0054B420900F01F0053F822201B
:10CD2000012303FA00F01040704700BF00E100E06B
:10CD300040B20028A8BF00F1604001F10101B8BF76
:10CD4000064B4FEA4111ACBF00F5614000F00F0007
:10CD5000C9B2B4BF195480F80013704714ED00E055
:10CD60000B4A08B50B4B22F07F029A60BFF34F8F3E
:10CD7000BFF36F8FD3F8882022F47002C3F88820A5
:10CD800002F04CF802F0B4FD00F060F802F08AF80E
:10CD900000C2000000ED00E042F8203C009B42F899
:10CDA0001C3C0A49019B42F8183C029B42F8143C87
:10CDB00021F001014FF0807342F8043C42F8081C56
:10CDC0000023203A02654367704700BFB1C30000EB
:10CDD000094A0346906870B113F1160F006E05D032
:10CDE000A0F140029A4205D8834203D2814228BF73
:10CDF0000020704700207047DC0D002008B5154664
:10CE00000B4A0C4B9060026F1A600E4600F048F817
:10CE10002C4686F309884FF00000074B98472046C0
:10CE20004FF000014FF000024FF00003034C204789
:10CE3000DC0D00201C0D0020F9070100B1C300002B
:10CE4000014B10221A61704700ED00E004480023F6
:10CE50002021C2180133302B82F80013F9D170471A
:10CE600000E100E008B5EFF30583064A103B02EB52
:10CE7000C30152F8330049688847BDE80840FFF70E
:10CE8000E3BC00BFDC100100024B034A0348012150
:10CE900000F076B800000420000000209412010089
:10CEA000026E054B403A1A60044A4021C3E9011260
:10CEB0001846012100F06EB8200D002000000B156F
:10CEC000084AC2F898000B6823F01F03034343F09D
:10CED0001003C2F89C308B6843F00103C2F8A03005
:10CEE000704700BF00ED00E02DE9F043DFF86080FF
:10CEF00085B00E461F4604464FF00009B14523DABF
:10CF00006068D8B13FB1411E08421BD11F2819D912
:10CF10002368194216D12368019303F090FCA3689B
:10CF200003430393D8F89050C5F30725D0B2013DD1
:10CF3000A84207D801A9FFF7C3FF421C09F1010964
:10CF40000C34DBE76FF01502104605B0BDE8F08346
:10CF500000ED00E0044B0522C3F89420BFF34F8F8F
:10CF6000BFF36F8F704700BF00ED00E0BFF35F8F2E
:10CF7000024B0022C3F89420704700BF00ED00E090
:10CF800010B5034C01232278FFF7AEFF207010BDCF
:10CF9000E40F002008B50B4A00231278FFF7A4FF26
:10CFA00010F1160F07D0084A0021D2F89030C3F3D1
:10CFB0000723984200DB08BDC2F89800C2F8A01011
:10CFC0000130F2E7E40F002000ED00E02DE9F0432E
:10CFD000534B544CD3F890302568C3F307239D423C
:10CFE00085B000F29A80FFF7C1FF00200C26854231
:10CFF0001AD14D4C4D4F25706846FFF701FBDFF805
:10D000002081DFF82C9106460025AE4213D123780B
:10D0100043490020D1F89020C2F30722934276DBE7
:10D02000FFF798FF002042E0616806FB0011FFF760
:10D0300047FF0130DBE7009800EB05114FEA051CC4
:10D04000CB683B40B3F5000F48D00AD8B3F5001FBA
:10D0500030D0B3F5800F36D0B3F5801F10D0013536
:10D06000D3E7B3F1807F42D0B3F1007FF7D150F81E
:10D070000C3088684A6803F0E2FB40F4802009E045
:10D0800050F80C3088684A6803F0D9FB40F08850AB
:10D0900040F43020CDE901230390D8F89030207877
:10D0A000C3F30723013B98422AD96FF0150005B05E
:10D0B000BDE8F08350F80C3088684A6803F0BFFB85
:10D0C00040EA0900E6E750F80C3088684A6803F047
:10D0D000B6FB40F0E06040F40030DBE750F80C3085
:10D0E00088684A6803F0ABFB40F08270D2E750F8E2
:10D0F0000C3088684A6803F0A2FB40F08870C9E7EA
:10D1000001A9FFF7DDFE237801332370A7E7C1F8FB
:10D110009830C1F8A00001337CE74FF0FF30C6E73C
:10D1200000ED00E0A0120100E40F00200000F0FF7D
:10D130000000081108B5024B1B689847002008BD85
:10D140002C0D0020034B044A1860937843F002032F
:10D15000937070472C0D0020E404002008B50649A8
:10D16000064821F00701C1F1005202F5802203F0C8
:10D17000EEF9002008BD00BF071E0020300D002082
:10D180000E4A0123C2F840354FF080424FF08051E3
:10D19000C2F87835D1F83001082808D1D1F8341117
:10D1A000052904D80648415C09B1C2F838364FF069
:10D1B00080430122C3F880250020704700E0014031
:10D1C0006D15010020B1034B800143F001031847A6
:10D1D000704700BF60120100084B70B5C31A0D46BE
:10D1E00007499B10044659430648402203F045FB7B
:10D1F0002B4601462046BDE870401847500D0020E0
:10D20000B76DDBB68C10010073B50C4C0C4A402393
:10D21000041B00930D460B460A49A41061430646C1
:10D22000094803F056FB011E05DA30462B4602B0D2
:10D23000BDE87040184702B070BD00BF500D00201F
:10D240003D090100B76DDBB68C10010010B5EFF39E
:10D250001184202383F31288BFF36F8F074A13686A
:10D2600023F00201DB07116002D4012003F051FC1E
:10D2700084F31188BFF36F8F10BD00BFA00D002095
:10D28000002270B5012104461046FFF751FD0F48FA
:10D2900001F060F80E4B984215D101F06BF8266949
:10D2A0000C49304603F009FA00280BDB01253564F0
:10D2B0002469084904F11C0003F0FFF9002801DB90
:10D2C000E564002070BD6FF00400FBE7D1D30000DF
:10D2D0000000AD0BC01201001FB500220123CDE9F3
:10D2E0000223094ACDF800D06B46CDF804D003F0F4
:10D2F0001EFB002805DB4FF480420023684601F046
:10D3000057FF05B05DF804FB5B09010030B4104B1A
:10D310000C2202FB003301460020D3E90E52986331
:10D32000EFF31180202484F31288BFF36F8F1C6CFD
:10D3300004F0C00444F002041C6480F31188BFF3BD
:10D340006F8F1DB12B46034830BC184730BC704767
:10D35000500D00208C10010010B4EFF31182202337
:10D3600083F31288BFF36F8F1748016841F00204FE
:10D370000460C80707D482F31188BFF36F8F0120C0
:10D3800010BC01F009B84FF08041D1F80C04D1F87D
:10D390000C14C907EFD5EFF3118083F31288BFF3A4
:10D3A0006F8F0A490B6C03F0C00343F002030B6458
:10D3B00080F31188BFF36F8F82F31188BFF36F8FF3
:10D3C000002010BCFFF7A2BFA00D0020500D0020D0
:10D3D00010B1012804D07047034B1B6C5B0701D1CF
:10D3E000FFF794BF704700BF500D00202DE9F041BA
:10D3F0003849BFF35B8F0746012251E8003F41E8FF
:10D4000000200028F9D1BFF35B8F33B9324933488C
:10D410004B60CB608A6003F063F97B1E012B2BD835
:10D42000012F07D14FF08043D3F81C3403F00303DE
:10D43000012B21D003F095FC0546F8B9284B1B7849
:10D44000E3B14FF080430222C3F808230646DFF819
:10D4500094804FF08044D4F81824D4F81834D203C0
:10D4600015D503F00303012B01D0012F0FD155B3C4
:10D4700086F31188BFF36F8FBDE8F081EFF311865B
:10D48000202383F31288BFF36F8F0125DFE7ADB14F
:10D49000304603F0C5F9D4F81835002BDBD1D4F8A9
:10D4A0000421002AD7D0C4F80431D4F80431012370
:10D4B000C4F81835C8F88031A360CCE700212120DA
:10D4C00002F06CF9E7E74FF080430222C3F804232F
:10D4D000D2E700BF4C0D00203C0D00206C0D002059
:10D4E000E70F002000E100E008B5074803F09FFBCC
:10D4F00038B10648FFF726FE0448FEF73BFF002040
:10D5000008BD6FF01200FBE7C810010011D5000044
:10D510000A2838B5074D044604D1AB680D215B6875
:10D5200028469847AB6803485B68E1B298472046B5
:10D5300038BD00BFC8100100F0B54068057B01F0A0
:10D540001F0444EA4514056987B0002D64D0B2F584
:10D55000001F00F1100506D12146284603F059FBB3
:10D56000002007B0F0BD01AE0027B2F5800F019793
:10D57000776039D1B3F1007F14BF052304238DF800
:10D5800004300023CDE904630393836823FA01F197
:10D5900011F001011AD1B2F1A07F17D104F01F03DD
:10D5A000620903F5E0732AD0012A3BD11F4A52F8E1
:10D5B0002330DB070AD40DF1030632462146284604
:10D5C00001F0C8F91A4B98421CD0029603AA2146D2
:10D5D000284601F081F8174B984220D101222146BC
:10D5E000284601F01BFABBE7B3F1C06F05D0B3F1D9
:10D5F000007F14BF01230223C1E70323BFE74FF0DD
:10D60000A042D4E73146284601F002FA094B98427D
:10D61000DBD06FF00B00A4E76FF08500A1E76FF09F
:10D6200015009EE751F82330FFDE00BF00030050D5
:10D630000400AD0B0000AD0B38B545682B69B3B1E4
:10D640001035284601F0D4F9044680B90146284631
:10D6500001F09AF9084B98420BD108492246284616
:10D6600001F072F9224605210620FFF761FB002038
:10D6700038BD6FF00400FBE70000AD0B81D6000061
:10D68000420970B5034602D0012A17D070BD0D4E75
:10D69000326951680029F9D003F01F0301250C6895
:10D6A0009D400029F2D08A682A4002D04B6830465B
:10D6B00098472CB1236821461C46F2E7024EE7E763
:10D6C0002346F8E7B4100100A01001002DE9F04353
:10D6D000466840F20635D006337B87B002EA05057E
:10D6E00054BFC2F34010032001F01F07B5F5837F3C
:10D6F000144647EA43178DF8030045D00FD8062D8E
:10D7000018D007D8B5B1022D40D06FF0150007B082
:10D71000BDE8F083B5F5807FF7D101250AE040F23E
:10D720000222954234D0B5F5407F33D0B5F5007F65
:10D73000EBD102250123220303FA01F12CD57368F2
:10D74000C3F80815326982BB07F01F037F0929D08F
:10D75000012F77D13E4A02EB830284F48033D2F862
:10D760000017C3F30043C4F3404444EA430421F4E4
:10D77000E16144EA800421F0070144EA05230B43F8
:10D78000C2F800370020C2E70725D3E70425D1E718
:10D790000525CFE70325CDE7630344BF7368C3F8CE
:10D7A0000C15CFE74FF0A042D5E710360DF102027D
:10D7B0003946304601F0CEF814F4403F80460CD193
:10D7C0003946304603F023FA224B9845DAD19DF8CA
:10D7D0000210304601F016F9D4E701AB4FF0000912
:10D7E00003AA39463046CDE90439CDE90199CDF88F
:10D7F0000C9000F071FF174B984286D114F400335F
:10D8000015D09DF803308DF80E3084F48034C4F3C5
:10D8100000444B4603AA394630468DF80C508DF82B
:10D820000D4001F013F80B4B9842CDD06DE7CDE9D8
:10D83000043303AA0DF1030339463046039300F085
:10D840004BFFF0E703F5E07352F82330FFDE00BF33
:10D85000000300500000AD0B036803F01F025B09DA
:10D86000026004D0012B034818BF002070474FF01E
:10D87000A0407047000300502DE9F04FDFF894916D
:10D88000DFF894A185B01546834600EB810140F294
:10D89000FF18594503D1002005B0BDE8F08FDBF833
:10D8A00000305E04C3F3C322C3F3080400F1AC806C
:10D8B0001B0E19F80270444508BF4FF0FF34222BAD
:10D8C00000F2A580DFE803F012191F22252B22A306
:10D8D000A3A3A33B68A3A3A3A3A3A3A3A3A36B8115
:10D8E0008487A3A3A38A9194979A9D00C5F80C45B9
:10D8F000601C5ED10BF1040BCBE7C5F81445621C2C
:10D90000F8D000265FE0C5F80845F1E7C5F81045F6
:10D91000F5E7631CC5F80845ECD0002604E0661C5A
:10D92000C5F80C45E6D0012603A80394FFF794FF41
:10D93000039B012202FA03F3C0F80C3508E0C5F896
:10D940000845002FDBD1631CD4D0002632460627C1
:10D95000DBF80030019303F40040002818BF0022D8
:10D9600003A8009218BF01260394FFF775FF039CDC
:10D97000019B009A00EB8400C3F3412CD0F80047D0
:10D980003B0243EA8C03134304EA0A04234343EAB9
:10D990004603C0F80037ADE7C5F80C45D1E7C5F838
:10D9A0006045601CDBF80030A4D0C3F30043002BBB
:10D9B000B9D003A80394FFF74FFF039B012606FA93
:10D9C00003F3C0F808353246C2E7C5F86445E8E716
:10D9D000C5F86845E5E7C5F86C45E2E7C5F82445B4
:10D9E000621C87D000220126B2E7C5F828457FE7F0
:10D9F000C5F83045F4E7C5F83445F1E7C5F83845D2
:10DA0000EEE7C5F83C4573E76FF0150044E76FF0AB
:10DA1000850041E79E150100F0F8FCFF2DE9F0417B
:10DA2000044647680D4603F09CF94FF0200888B97A
:10DA3000264B1B7873B16426606803F013F8F0B9C5
:10DA4000012003F058F8013EF6D10021212001F019
:10DA5000A5FEF0E7EFF31186314688F31288BFF395
:10DA60006F8F606802F0FEFFA8B986F31188BFF3DC
:10DA70006F8FEFE786F31188BFF36F8FE5E7EFF362
:10DA80001186314688F31288BFF36F8F606802F009
:10DA9000E9FF0028EED0BB691D706368BA691B6896
:10DAA0000020C3F844250122C3F84825C3F820010B
:10DAB000D3F82041C3F85801D3F858019A6081F394
:10DAC0001188BFF36F8FBDE8F08100BFE70F002022
:10DAD000F7B50546002201210220FFF729F90220AF
:10DAE000FFF70AF96A6811681369C1F82435137DD4
:10DAF000507D927D03431343C1F86C356E68D6E9BF
:10DB0000004313F0010348D02F6907F1080002F029
:10DB1000FEFF304B98425AD1387A04F10C0204F5DA
:10DB2000907102F0EAFF387A012707FA00F000F05E
:10DB3000A9FB0823C4F80035B369C4F844350023B1
:10DB4000C4F84835A760D4F85831002BFBD0002129
:10DB5000C4F800156B68DC6801AA204602F055FF86
:10DB6000002805DB019B226819791868FFF784FEFD
:10DB70006A6813680821C3F80015117A51B9D2698F
:10DB8000C3F834250122C3F83825C3F81011D3F89F
:10DB900010111A60002003B0F0BD0822C4F800255F
:10DBA000B269C4F84425C4F848350123A360D4F809
:10DBB0002031002BFBD00023C4F82031D4F82031D1
:10DBC0000123E3604FF48073C4F80433BBE76FF0C4
:10DBD0000400E0E70000AD0B70B5012383400E4A5E
:10DBE000BFF35B8FDC4352E8001F01EA040542E803
:10DBF0000056002EF7D1BFF35B8F4FF48032824086
:10DC00000648C0F80823BFF35F8FBFF36F8F0B4246
:10DC100014BF0120002070BDCC0D00200010014079
:10DC200070B40E49D1E90034D01AC31844F100048D
:10DC300022F07F46C1E90034A6F50013B3F5400F8A
:10DC400009D2074B1B681A0A1B069C19054B42F1A7
:10DC50000005C3E9004570BC01F024BF5006002058
:10DC6000D00D00205806002011B3BFF35B8F0123B5
:10DC7000104A834052E800CF4CEA030C42E800C14E
:10DC80000029F7D1BFF35B8F0B4A4FF480338340F9
:10DC9000C2F80433094BBFF35B8F1B68BFF35B8F84
:10DCA000C340DB0742BF064B4FF40032C3F80021EC
:10DCB000704700BFCC0D002000100140C80D0020AF
:10DCC00000E100E00D4B1868010A0006BFF35F8F0A
:10DCD0000B4BD3F80435181841F10001B3F5801F40
:10DCE0000AD2084BD3E90023904271EB030303D21D
:10DCF00010F1807041F10001704700BFD00D00208D
:10DD000000100140580600202DE9F04F85B016465E
:10DD10001F469DF840A00446FFF75EFF0190FFF705
:10DD2000D1FFB04271EB070354D23E4B301A67EB80
:10DD30000101984271F100014FD23B4B03EB0413F8
:10DD4000D3E902239F4208BF96425ED037494FF481
:10DD5000803804F1500508FA04F8AD00C1F8488392
:10DD60002046ADB202F0AFFE26F07F4B05F18045B4
:10DD700004F5A87305F58835DC464FF003090293D6
:10DD8000029A2CF07F4341F82230C1F84483D1F845
:10DD90000435274A6FF00200C01A604420F07F402B
:10DDA000904232D9286868B1D1F804350393A3EBC7
:10DDB0000B0020F07F40B0F5000F26D9204602F07E
:10DDC00082FE039BBAF1000F07D109EB030C09F1A6
:10DDD0000109D5E7BAF1000F09D06FF0150520460B
:10DDE0000199FFF741FF284605B0BDE8F08F0123F8
:10DDF000104ABFF35B8FA34052E8000F184342E87C
:10DE000000010029F8D1BFF35B8F07490E98230169
:10DE100001EB0412C8500F9B5360C2E90267002552
:10DE2000DDE700BF01008000400600200010014037
:10DE3000FDFF7F00C80D00207FB51C4C1C4BC4F8B3
:10DE40000833C4F848331B4B00254FF0FF304FF028
:10DE5000FF31C4F80855C3E902014FF48033C4F818
:10DE60000433154B02264FF400320121C4F8046339
:10DE70001120C3F880212A46FEF75AFF1120FEF731
:10DE80003BFF0E4A0123A360236013600C4B0D4A35
:10DE90000093CDE9015500232846FFF735FF3046B2
:10DEA000FFF7A4FA284604B070BD00BF001001407F
:10DEB00003000F004006002000E100E0CC0D002030
:10DEC00021DC0000FFFF7F002DE9F7432F4CD4F841
:10DED000043399070BD5D4F8043143B12C4A0023FD
:10DEE000C4F80431D4F80431136801331360D4F852
:10DEF0000433DA0329D5BFF35B8F264B53E8002F99
:10DF000022F0010143E800100028F7D1BFF35B8F36
:10DF1000D30702D4D4F84031BBB10025C4F8405136
:10DF2000D4F84031FFF7CEFEEFF31182202383F3C4
:10DF30001288BFF36F8F184BD3E90267B042B94123
:10DF400006D282F31188BFF36F8F03B0BDE8F08370
:10DF50004FF0FF384FF0FF39C3E90289D3E90010D1
:10DF60001D604FF48033C4F84833C4F84051D4F8EE
:10DF7000403182F31188BFF36F8F0029E5D0009004
:10DF800032463B4628468847DFE700BF0010014085
:10DF9000D00D0020C80D00204006002030B5431CE5
:10DFA000124C85B005D08442A8BF0446012CB8BFEE
:10DFB0000124FFF787FE0E4B0C4DD3E90013401AE6
:10DFC000B0F5000F10D22218AA4228BF2A465218D4
:10DFD0004FF0000007490091CDE9010043F1000333
:10DFE000FFF792FE05B030BD2A46F0E7FFFF7F0045
:10DFF0005006002021DC000008B5FFF763FE024B4D
:10E000001B68C01A08BD00BF500600204FF08053A7
:10E01000D3F83021082A06D1D3F83431052B02D8A1
:10E02000024AD05C70470020704700BFBA1501005B
:10E03000024AD2F80034002BFBD0704700E00140C8
:10E0400010B54FF08053D3F83021082A4ED14FF04D
:10E0500080420021C2F80C11C2F81011C2F8381524
:10E0600002F54042D3F80414C2F82015D3F808147E
:10E07000C2F82415D3F80C14C2F82815D3F81014DC
:10E08000C2F82C15D3F81414C2F83015D3F81814AC
:10E09000C2F83415D3F81C14C2F84015D3F8201474
:10E0A000C2F84415D3F82414C2F84815D3F828143C
:10E0B000C2F84C15D3F82C14C2F85015D3F830140C
:10E0C000C2F85415D3F83414C2F86015D3F83814D4
:10E0D000C2F86415D3F83C14C2F86815D3F840149C
:10E0E000C2F86C15D3F84434C2F87035FFF78EFFD0
:10E0F00018B13A4B3A4AC3F88C26FFF787FF18B19C
:10E10000384BFB22C3F81825FFF780FF70B14FF0A2
:10E1100080414FF08053D1F8E42ED3F8583222F0EA
:10E120000F0203F00F031343C1F8E43EFFF76EFF45
:10E1300020B12D4B4FF40072C3F840264FF08053AE
:10E14000D3F83031082B1AD14FF08043D3F8002494
:10E15000D20744BF6FF00102C3F800244FF0805390
:10E16000D3F83431052B02D8204AD35C3BB14FF0B1
:10E170001023D3F808224FF08043C3F858254FF0FE
:10E180001023D3F80022002A03DBD3F80432002B3B
:10E1900022DA174901234FF01020C1F80435122468
:10E1A000FFF746FFC0F80042FFF742FFC0F8044205
:10E1B000FFF73EFF0023C1F80435FFF739FFBFF337
:10E1C0004F8F0C490C4BCA6802F4E0621343CB60DA
:10E1D000BFF34F8F00BFFDE710BD00BF00500040F0
:10E1E0004881030000F0004000900240B415010097
:10E1F00000E0014000ED00E00400FA0530B50468DD
:10E20000CCB1BFF35B8FB4FA84F3C3F11F03DBB26D
:10E2100001229A4024EA020250E8005FA54204D19C
:10E2200040E8002CBCF1000FF6D1BFF35B8FE6D1C4
:10E2300002480B7030BD0248FCE700BF0000AD0B88
:10E240000200AD0B10B50368CB40DB0714D40123EB
:10E250008B400268BFF35B8F43EA020150E8004F36
:10E26000944204D140E8001CBCF1000FF6D1BFF38A
:10E270005B8FEED1014810BD0148FCE70000AD0BFB
:10E280000400AD0B014BC3F80405704700F00140DA
:10E29000F7B5044618B1012823D003B0F0BD4FF004
:10E2A00080430222C3F808230122DA60C3F8040184
:10E2B000D3F80431064601238DF8073042F2107579
:10E2C0004FF08047D4B1012CE7D1D7F80C3403F4D8
:10E2D0008033AEBB83B3012002F00DFC013DF4D1CD
:10E2E0002AE04FF080430022C3F808035860C3F8C7
:10E2F0000021D3F800310DF10706DCE7D7F8183418
:10E3000003F480333EB9002BC7D0012002F0F3FBA9
:10E31000013DF3D1C1E7D7F8182402F003023260BF
:10E32000002BBAD09DF80700012803D102F0E3FBCF
:10E33000013DC7D1012CB0D1054B00225A71ACE789
:10E34000D7F80C2402F001023270002BEAD1F3E777
:10E35000D40D0020044B1A7922B9012218609A804A
:10E360000248704702487047D40D00200000AD0BF2
:10E370000C00AD0B08B5074B1B682BB10020FEF756
:10E38000C9FC08B9FEF7B8FC4FF080430022C3F87F
:10E39000182508BDD40D002010B510B1012843D0B8
:10E3A00010BD4FF08043D3F81814D3F81824C803D5
:10E3B00021D502F00303012B04D013B10020FFF795
:10E3C00067FF00234FF080420220C2F81835082270
:10E3D0004FF4827303F180430021196002F18042FF
:10E3E0001C6801241460154A12680AB34FF0804378
:10E3F000C3F80403D4E7D3F81424D107E1D5D3F844
:10E400001C249207DAD40D4A12681AB10222C3F80A
:10E410000423C5E7D3F80421002AFBD00022C3F867
:10E420000421D3F80431BBE700224FF48073D1E715
:10E430001A68002AFCD019601B68B1E7D40D0020CF
:10E4400010B54FF08043D3F800216AB10022C3F821
:10E450000021D3F800210122C3F80823114B587979
:10E4600010B95A711B6898474FF08043D3F80421C4
:10E4700072B10022C3F80421D3F80421D3F8182480
:10E48000D3F81824920704D10122C3F818259A6002
:10E4900010BD0222C3F80823024BBDE810401B68E0
:10E4A00001201847D40D0020036803F01F025B0908
:10E4B000026004D0012B034818BF002070474FF0C2
:10E4C000A040704700030050034A430900F01F00BA
:10E4D000D35C1844C0B27047C015010070B5054642
:10E4E000FFF7F2FF0C4C08300E4634F81030DA0516
:10E4F00008D5C3F3432304EBC302284654F8333052
:10E5000052689847A3682BB1E26831462846BDE8B7
:10E510007040184770BD00BFF404002008B5FFF735
:10E52000D3FF034B083033F81000400B08BD00BF89
:10E53000F404002008B5FFF7C7FF034B083033F899
:10E540001000C0F3400008BDF404002008B5FFF738
:10E55000BBFF034B083033F81000C0F3401008BD78
:10E56000F4040020034611F0010010B5CCB20DD127
:10E57000A207C4F3400012D5094AD2F8200558601A
:10E58000C2F82005003818BF012008E04FF0A04174
:10E59000D1F820251A60C1F82025002AE8D010BD46
:10E5A0000003005010B5FFF78FFF124A083032F811
:10E5B0001030D9051CD5C3F3432123F4F85322F8B6
:10E5C000103002F10E04002034F8023F13F4807F73
:10E5D00003D0C3F3432399420AD001303028F3D14A
:10E5E000002342F831300448BDE81040FFF72ABE4E
:10E5F00010BD00BFF40400206C050020F0B50546F6
:10E6000000200446012607468C420BD1114BD3F85B
:10E610007C2132B10022C3F87C21D3F87C3140F058
:10E620000040F0BDE3B29B0003F580729B0806FA40
:10E6300003F31D420BD002F1804202F5C042D2F832
:10E6400000C0BCF1000F02D01760126818430134FB
:10E65000DAE700BF00600040F7B506460846FFF75E
:10E6600033FF194F00F108050C4637F81530DB076A
:10E6700027D5304602F0A7FA2046FFF767FF40B1E2
:10E680002046FFF74BFF316800F5A270002341F8E8
:10E6900020302046FFF786FF002301A827F8153019
:10E6A0000194FFF701FF019B00EB8300074BD0F8BB
:10E6B0000027134043F00203C0F80037044803B0BA
:10E6C000F0BD0448FBE700BFF4040020F0F8FCFFB5
:10E6D0000000AD0B0400AD0B2DE9FF41164680464E
:10E6E0000846FFF7F1FE0D463168044609B3284697
:10E6F000FFF720FF18B12846FFF728FF10BB0023C3
:10E70000CDE900338DF80E308DF80F300DF10F028A
:10E710000B4628460DF10E0102F0FDF9474A04F1BF
:10E72000080132F8113023F0020343F0010322F80C
:10E730001130736863B328461F785968FFF7FAFEF3
:10E7400010B1D1B13E4826E03C4A04F1080032F84D
:10E75000103023F02003DB04DB0C22F8103061B111
:10E76000032FEFD87168496891F800C0D8F80010FD
:10E77000A7B90CF5A27C41F82C70304A04F10801CD
:10E7800032F8113023F01C0343EA870322F81130DA
:10E79000B3684BBB2B4804B0BDE8F08101EB8C01A2
:10E7A00043EA4C33D1F810E52EF0030EC1F810E522
:10E7B000D8F8001001EB8C0E43F02003DEF81015A2
:10E7C00022F8103021F44F3121F44071CEF81015A9
:10E7D0002902DEF8108501F47C5141EA074141EA43
:10E7E0000801CEF81015C8E7D3E900672846FFF7FF
:10E7F000D9FE002ECED0114DD5E90023964203D18B
:10E800009F4201D1002209E00F480DF10F01FFF7EF
:10E81000F5FC0C4B9842BED19DF80F2045F83260B4
:10E8200005EBC20308345F6035F8143043EA422335
:10E8300043F4807325F81430ACE700BFF4040020E3
:10E840000400AD0B0000AD0B6C0500202DE9F0437A
:10E850000C4685B08046204611461E46FFF734FE22
:10E86000054629B32046FFF765FE18B92046FFF795
:10E870006DFE18BB314F05F1080937F8193013F058
:10E880001C0F02D04B78012B18D001238DF80F30CC
:10E890000023CDE900134A1C8B1C20460DF10F010B
:10E8A00002F039F937F8193043F0030327F819302B
:10E8B000002E41D02046FFF73DFE18B9204805B094
:10E8C000BDE8F08396F800C0D8F800301B4F0CF577
:10E8D000A272002143F8221005F1080237F8121045
:10E8E00021F02001C904C90C27F8121075781DB356
:10E8F000D8F80000B67800EB8C002D04D0F8103565
:10E9000023F4991323F4F853C0F81035230203F4C9
:10E910007C5305F440353605D0F810E52B4306F45A
:10E92000801641EA4C31334341F0200143EA0E03A3
:10E9300027F81210C0F810350248C0E7F404002090
:10E940000400AD0B0000AD0B014BC3E90212704790
:10E95000F404002010B508461446FFF7F7FD50B147
:10E960000846FFF7B1FD054B083033F81030044876
:10E970005B0B237010BD0348FCE700BFF4040020CC
:10E980000000AD0B0400AD0B70B5164D95F880403E
:10E9900006462CBB2146602205F1100002F0D5FA94
:10E9A00030682E6F21468E420ED10023C0F87C3194
:10E9B000D0F87C3140F30730FEF79EF901230A4876
:10E9C00085F88030AB6770BDCBB29B0003F58072D9
:10E9D0007C2B08BF845001F1010108BF8358E2E796
:10E9E0000248F0E7F40400200000AD0B0C00AD0B72
:10E9F000034B93F88000003818BF0120704700BF18
:10EA0000F40400200148FFF71DBC00BF680500208A
:10EA10000148FFF7F3BB00BF6805002073B503682A
:10EA20001646D3F80423002AA8BF4FF0004205463B
:10EA3000A8BFC3F8042308460C46FFF787FD00B3C0
:10EA40000846FFF777FD0146D8B92046FFF766FD77
:10EA500004B2A40004F58072034628688150296836
:10EA600082582144D1F8102542F00102C1F8102546
:10EA70002EB12968012202FA03F3C1F8043302B06F
:10EA800070BD2046FFF720FD0F4B083033F81030E3
:10EA9000C3F38203042B12D0052B12D001A80194DA
:10EAA000FFF702FD019AD0F81035D34003F00103BF
:10EAB000991C204602B0BDE8704002F075B80321F1
:10EAC000F7E70221F5E700BFF40400202DE9F04F3D
:10EAD000694BDFF8A881D3F80403D8F87010C0B2EE
:10EAE00089B040F00040FFF789FD051E2FDAC246CD
:10EAF00000235AF87C1F06A8CDE90633FFF732FD44
:10EB00005F4B01930DF118094FF0000B019A12F8B9
:10EB1000013B0192DA0803F007031AF8022022FAF7
:10EB200003F3DA071CD409F10409BBF1000F14D078
:10EB3000D8F870104FF00040FFF760FDD8F87C1057
:10EB400006A8FFF70FFD0028DAD125F000450124C3
:10EB5000002D79D109B0BDE8F08F4FF0010BD5E75A
:10EB6000484B5B440293D9F800100029DBD0029B8C
:10EB700091FAA1F11C78B1FA81F141EA44142046DE
:10EB8000FFF7A2FC0830059438F81070C808BB08DD
:10EB900019F80020039301F00701012303FA01F1A2
:10EBA00022EA010209F8002005A8FFF77DFC059A7A
:10EBB000039B02F5E072C7F3820650F822205B0740
:10EBC0003746C2F3014224D520463946D6B2FFF774
:10EBD00085FC05A80594FFF767FC059B03F5E0732A
:10EBE00050F82330C3F301439E4207D10021204651
:10EBF00001F0DAFF3146204601F0D6FF05A8059462
:10EC0000FFF752FC059B012202FA03F3C0F82035FE
:10EC1000A9E7022A0CD10321204601F0C5FF06F026
:10EC20000503012BEAD139462046FFF757FCE5E7FB
:10EC300002212046039201F0B7FF032EF3D0039A7E
:10EC4000032ADBD1022EEDE795FAA5F3B3FA83F39D
:10EC500004FA03F29B0003F1804303F5C04325EA65
:10EC60000205D3F81005D3F81015C0F30520C1F341
:10EC70000141FFF733FC6BE700600040F404002023
:10EC8000D0150100D015010001460148FFF7B6BAC2
:10EC90007805002008B5144BA8220021184602F080
:10ECA00054F90322026111494261114A8161C26132
:10ECB0004FF480620262002282624262C262016696
:10ECC0000C4941661021816603460267C2664267AD
:10ECD000BFF35F8F084911F8010D98540132102AD3
:10ECE000F9D1BFF35F8F08BD10040020D2150100D9
:10ECF0001000002000000020EB15010038B5EFF3F4
:10ED00001185202383F31288BFF36F8F064B9C6815
:10ED100001F0A0FF85F31188BFF36F8F2046BDE897
:10ED20003840FDF76DBF00BFDC0D002038B5094B42
:10ED300053F82040013053F82050A54200D838BD88
:10ED4000636823B1204601F088FF0834F5E72368A3
:10ED50009847FAE79C13010070B52B4B2B4C2C4DB8
:10ED6000012286B003201A70FFF7E0FFFDF74EFC8A
:10ED700001F08FFF0420FFF7D9FF2646AE4204F1D1
:10ED8000300410D300F04CFC204C224EAC4226D371
:10ED900000F05AFCFDF7B4FA1F4A137B23F001037D
:10EDA000137306B070BD54F80C3C059354F8103C36
:10EDB000049354F8143C039354F8183C029354F809
:10EDC0001C3C019354F8203C009354E90A2354E975
:10EDD0000C0100F013FA54F8303C5E65CDE7D4E93D
:10EDE0000A23B3F1FF3F08BFB2F1FF3F05D052EA5B
:10EDF0000301206803D101F0BAFF3034C6E7314681
:10EE0000183000F0D5FDF8E7E70F00205C12010094
:10EE10005C1201007B0E0100E006002008B50348EB
:10EE2000034A0021121A01F030FF08BD40060020FD
:10EE3000EC0F002070B5002386B00122CDE9042339
:10EE4000134E144D01930F22CDE9023212491423BF
:10EE500003FB005506EBC01604464FF4C07000FBE0
:10EE600004110E4B00954FF4A072304600F0C6F925
:10EE7000737B0B4AEE6023F0040373734FF4046357
:10EE800004FB033313442C746B6006B070BD00BFE9
:10EE900060060020DC0D0020401800202F0D01002E
:10EEA00000100020BFB50020FFF740FF2C4B83F37C
:10EEB00008882C4D2C4E6B692C4F43F400736B610A
:10EEC0000024E02385F82230EC772C766C76AC7643
:10EED00085F820406B6A43F4E0236B6285F8234099
:10EEE000FDF70AFEFDF7ACFF4FF0FF33AB62EB62BC
:10EEF000FEF76CF8FDF7C8FF1D4BB36040F201123E
:10EF00009A81C3E91844DC6601F090FE0120FFF706
:10EF10000DFF0220174DFFF709FF00F0B5FB164B60
:10EF200075610593012315490094CDE903434FF41E
:10EF300080623B46CDE90144284600F05FF96A7BD8
:10EF4000064622F0040228466A7301F04CFF204670
:10EF5000FFF770FF3A4631462846FDF74FFF00BFE6
:10EF60004018002000ED00E0DC0D002059ED00000D
:10EF700060070020E0060020EC150100C019002009
:10EF800038B5064C064D0020AC4200D338BD2046B3
:10EF900001F080FE0028F9DB1C34F5E7EC050020C9
:10EFA000EC05002073B50C46EFF31181202585F3A5
:10EFB0001288BFF36F8FC5685DB125602B68C36091
:10EFC000836901338361002081F31188BFF36F8F60
:10EFD00011E052EA030603D125606FF00B00F3E75E
:10EFE000CDE900230246083000F066FA18B9034B59
:10EFF0009B685B69236002B070BD00BFDC0D002020
:10F000002DE9F341044617461E46EFF311882023ED
:10F0100083F31288BFF36F8FC368334A7BB1806874
:10F020009168884219D057EA060318D188F31188ED
:10F03000BFF36F8F6FF00F0002B0BDE8F0819168F1
:10F0400091F90E1021610133E3609368A36088F3A6
:10F050001188BFF36F8F0020EEE72169F2E791F985
:10F060000E1090F90E309942A8BF19466FF07E023B
:10F070009142B8BF11468B422DDD01F063FE05467B
:10F08000CDE9007619482246414600F015FA0028DD
:10F09000E1D0EFF31186202383F31288BFF36F8F43
:10F0A000A068D0B1236821699C420AD04BB193F982
:10F0B0000E309942A8BF19466FF07E039942B8BF3F
:10F0C000194601F03FFE40B10848314600F064FAAD
:10F0D0006FF00A00B0E70025D2E7002DF4D186F3E7
:10F0E0001188BFF36F8FF3E7DC0D0020E80F0020DD
:10F0F00038B58368044663B3194A926893422BD1AA
:10F10000C368012B03D9013BC360002038BDEFF376
:10F110001185202383F31288BFF36F8F0169806804
:10F1200001F010FE204601F0ACFEA06058B190F94D
:10F130000E2022610022826701F055FE094829460F
:10F1400000F02AFAE1E7E06085F31188BFF36F8FE2
:10F15000DBE76FF01500D9E74FF0FF30D6E700BFCF
:10F16000DC0D0020E80F002038B50446EFF31185D0
:10F17000202383F31288BFF36F8F01F082FE48B122
:10F180000022826701F02FFE29460848BDE838407A
:10F1900000F002BAD4E902329A4218BF0133A360E8
:10F1A00085F31188BFF36F8F38BD00BFE80F0020D3
:10F1B00013B5EFF31181202484F31288BFF36F8F0E
:10F1C000846844B1013C846081F31188BFF36F8F80
:10F1D000002002B010BD52EA030406D181F3118869
:10F1E000BFF36F8F6FF00F00F3E7CDE90023024606
:10F1F000014800F061F9ECE7E80F00202DE9F04349
:10F20000073285B022F007020E461F46109901739F
:10F2100000F158037F32C0E916330446002322F080
:10F220003F020421836041733F2A0F98A073C4E911
:10F230000633E37306F14009A2F1400805D883F3D1
:10F240001188BFF36F8F084602DFB51829462046A4
:10F25000FDF7DAFA07300E9B20F00700A066C4E93C
:10F26000189802930D9B01932D1A0C9B00932A462C
:10F270003B4631462046FDF78FFD00236365044B76
:10F280009B6803B1DB6EE366284605B0BDE8F083FA
:10F29000DC0D002038B50D4D2B4653F8184F9C421D
:10F2A00000D004B9EC68AB6838B95A7BD20604D1F7
:10F2B000A26912B9DA897F2A05D89C4202D0204679
:10F2C00000F0BEFA23466B6138BD00BFDC0D0020A4
:10F2D00008B590F90D20437B002A014604DA03F0BB
:10F2E0007F03437301F045FD044B9868431A58426D
:10F2F0005841BDE80840FFF7CDBF00BFDC0D00203E
:10F3000070B490F90D30427B002B29DBD30627D156
:10F3100083692BBB134962F07F0242730A4652F89D
:10F32000184F944218BF2346CC6923B9C0E9002482
:10F330002060C8610CE090F90E5093F90E60B54260
:10F340000AD0AE4208DD5A68C0E900321060586049
:10F3500070BC0020FFF79EBF9C42E7D01B68E4E72B
:10F3600070BC7047DC0D00202DE9F041002A427B83
:10F370000E460CBF10210821114204460FD141EA6C
:10F380000203D20918D1437308291BD00120FFF7CB
:10F3900081FFBFF35F8F637B23F060036373274BB1
:10F3A0009B68A34243D1EFF30583002B3FD1304646
:10F3B000BDE8F041FDF73ABC03F07F03437301F071
:10F3C000D8FCE1E7A36813B1204601F0DAFC04F1B0
:10F3D000180001F093FDA56D04F15807AF4211D05C
:10F3E0004FF0000875B1284601F0CBFC05F118007C
:10F3F00001F084FDC5F878802846FFF781FFA56DF0
:10F40000AF42EFD10D4DAB689C42BFD1EFF3058306
:10F41000002BBBD00120FFF73DFF094BAB6040F252
:10F4200001129A810022C3E91822DA66B1E786F355
:10F430001188BFF36F8FBDE8F08100BFDC0D0020A5
:10F440006007002070B590F90D20437B002A01462B
:10F4500004DA03F07F03437301F08BFC4B7B154A06
:10F4600063F07F0310464B7350F8183FD469834212
:10F4700008BF002323B9C1E900042160D1610CE079
:10F4800091F90E5093F90E60B5420ED0AE420CDDEC
:10F490005868C1E90030016059609068431A5842C9
:10F4A000BDE870405841FFF7F5BE9C42E3D01B68B1
:10F4B000E0E700BFDC0D0020F8B5124B0C4611460A
:10F4C000114A98681060DDE90676EFF31182202278
:10F4D00082F31288BFF36F8F9D68284601F05BFCB2
:10F4E000B6F1FF3F08BFB7F1FF3F06D007493A46E4
:10F4F000334605F1180000F05BFA2046BDE8F840FD
:10F50000FDF794BBDC0D0020FC0D00207B0E0100FC
:10F51000F8B50446EFF31186202383F31288BFF376
:10F520006F8F437BDA0649B219D18569BDB903F003
:10F530007F03437301F01DFC437B164A817363F024
:10F540007F034373134653F8180F984218BF0546BC
:10F55000D0695DB9C4E900300460D46111E0A173E1
:10F56000002086F31188BFF36F8FF8BD95F90E70F8
:10F57000B9420BD08F4209DD6B68C4E900531C60AF
:10F580006C600120FFF786FE0120EAE7A842E1D087
:10F590002D68DEE7DC0D002049B9EFF3058030B9B6
:10F5A000054B5A699B689A4201D0FDF73FBB81F336
:10F5B0001188BFF36F8F7047DC0D002010B5EFF39B
:10F5C0001184202282F31288BFF36F8F427B510790
:10F5D00004D484F31188BFF36F8F10BD22F00402AE
:10F5E0004273FFF78DFE21460248BDE81040FFF749
:10F5F000D3BF00BFE80F0020034648B9EFF30582F0
:10F6000032B9064A51699268914201D0FDF70EBBAA
:10F6100083F31188BFF36F8F704700BFDC0D0020AC
:10F62000EFF31181202383F31288BFF36F8F054B13
:10F630009A68D37B013BD37381F31188BFF36F8F3B
:10F64000704700BFDC0D002038B5EFF31185202492
:10F6500084F31288BFF36F8F0A4B9A68D37B013310
:10F66000D3730020FFF716FE85F31188BFF36F8F69
:10F67000EFF3118084F31288BFF36F8FBDE8384039
:10F68000FFF7BABFDC0D0020024B03F11802C3E9FB
:10F6900006227047DC0D0020F8B5EFF3118520231A
:10F6A00083F31288BFF36F8F19498868437B03F097
:10F6B0007F03437301F05DFB8B685A7B084662F061
:10F6C0007F025A7350F8182FCC69824208BF00227B
:10F6D00022B9C3E900042360CB610CE093F90E600A
:10F6E00092F90E70BE420ED0B7420CDD5168C3E9EC
:10F6F00000210B6053600120FFF7CCFD2846BDE8D8
:10F70000F840FDF793BAA242E3D01268E0E700BFE9
:10F71000DC0D002050EA01032DE9F04105460E46BC
:10F7200003D1FFF7B9FF00202BE0831C71F1FF33F9
:10F7300029DB01F0F8FB2C18EFF31188202383F369
:10F740001288BFF36F8F124F124BB8681860FFF723
:10F75000BFFDB86810492A463346183000F028F932
:10F76000BA68537B43F0100353734046FDF75EFACB
:10F7700001F0D9FB201A63EB0303012873F10003A6
:10F78000D1DBBDE8F0816FF00104241AD4E700BF9B
:10F79000DC0D0020FC0D00207B0E0100B1F1FF3FCD
:10F7A00008BFB0F1FF3F08B506D10A4B986801F0D9
:10F7B00029FB4FF0FF3008BDFFF7ACFF4FF47A7123
:10F7C00047F6FF730022C0FB0132D80B40EA4240EB
:10F7D000F1E700BFDC0D0020014B9868704700BFC7
:10F7E000DC0D0020044BC01A044BC0105843044BDE
:10F7F00001221A54704700BFE0070020ABAAAAAA52
:10F80000E80F0020C3897F2B12D80A4B1B6863B115
:10F81000094B90F90E201B689A4209DB437BDB06FB
:10F8200006D1064BC31A18BF012303F0010070472D
:10F830000023FAE7040E0020000E002060060020DE
:10F8400070B50E4B0E4C1E7C06EB460304EBC30456
:10F850000546204601F052FB0A4B002228469A55E5
:10F86000FFF7D0FF48B1084B08491A68013A204613
:10F87000D317BDE8704000F09BB870BDDC0D0020D0
:10F88000E0070020E80F0020040E0020E5F700004C
:10F8900038B5EFF31185202383F31288BFF36F8F00
:10F8A000104B114A9C681068A04206D1FFF7C8FFB0
:10F8B00085F31188BFF36F8F38BD00211B7C116069
:10F8C0000A4AD35C002BF3D02046FFF79BFF0028A9
:10F8D000EED0637BDB0602D12046FFF7B3FD204666
:10F8E000E4E700BFDC0D0020FC0D0020E80F002045
:10F8F00008B50648064A0749121A01F0C8F9BDE8DA
:10F900000840054A0549064801F0C1B9C004002075
:10F910003C0600200816010000000000001601004F
:10F92000C0040020034B1B680BB9FEF765BB002029
:10F93000704700BF080E002030B570B10B4B5B68FC
:10F9400098420AD0036843B1D3E90421D0E90445C1
:10F95000121941EB0501C3E90421D0E9003213601B
:10F960005A600023C0E9003330BD00BF7C05002091
:10F9700010B50E4B1C689C4204D1FFF7D3FF6FF00B
:10F98000004010BDFFF7CEFF002CF8D0D4E90432C0
:10F990001B1A62EBE072B3F1004F72F10001EEDA74
:10F9A000002AACBF18460020EBE700BF7C05002012
:10F9B000B3F1FF3F08BFB2F1FF3FF8B504461D4663
:10F9C00016465ED08160EFF31187202383F31288FF
:10F9D000BFF36F8F013275F1FF3324DA2E49D1E97D
:10F9E00000206FF001039B1A4FF0FF3262EB000022
:10F9F0009E1B60EB0500012E70F1000301DA012669
:10FA00000020C4E90460254ED6F800C07568B445EE
:10FA100008BF4FF0000CBCF1000F0DD1C4E9006528
:10FA20002C6074601CE0FFF77DFF013645F1000596
:10FA3000361845EBE070E4E7DCE90420D4E9043152
:10FA4000934271EB000E1DDAD21ADCF8043060EB41
:10FA50000100CCE90420C4E900C31C60CCF80440D8
:10FA60003368B34209D09C4207D10D4B1C6824B9BE
:10FA7000FFF77EFF2146FEF791FA87F31188BFF367
:10FA80006F8FF8BD9B1A61EB0001AC45C4E90431EE
:10FA9000C4D0DCF800C0BEE7F80700207C050020D9
:10FAA000080E00202DE9F84FEFF3118C202383F38B
:10FAB0001288BFF36F8FDFF8B0A0DFF8B0902C4F43
:10FAC000C9F80000DAF800000024504508BF002003
:10FAD0000025D7E90021D9F80030E04678B3D0E915
:10FAE000046C4FEAE37EB3427EEB0C0B05DAF61AA8
:10FAF0006CEB0E04C0E9046421E0B21841EBE6713E
:10FB0000C0E90445C7E90021FFF716FF88F3118813
:10FB1000BFF36F8F83689847EFF31188202383F337
:10FB20001288BFF36F8FD9F80030DAF800009B1B02
:10FB30005045C446C9F80030CBD1D7E900219A1806
:10FB400041EBE3730024C7E90023C9F80040FFF745
:10FB50000FFF2146FEF722FA88F31188BFF36F8F5B
:10FB6000BDE8F84FFFF794BE7C050020080E00208A
:10FB7000F807002010B5EFF31184202383F31288D7
:10FB8000BFF36F8FFFF7CEFE054A0346D2E90001AF
:10FB9000181841EBE37184F31188BFF36F8F10BD28
:10FBA000F807002010B50A4C23681BB1012323601D
:10FBB000002010BD00F0EAF80028F7D00138062830
:10FBC00003D8044B53F8200010BD034810BD00BFFC
:10FBD0000C0E0020B4130100FE8FFFFFBFF34F8F08
:10FBE0000549064BCA6802F4E0621343CB60BFF3D9
:10FBF0004F8F00BFFDE700BF00ED00E00400FA05F5
:10FC000010B4094B09490A4C4FF0FE32C3F80024E6
:10FC10004968C3F80424C3F80824C3F80C2400235B
:10FC2000C4F8003510BC084700B00250840500201D
:10FC300000A00250D0E90012014BC3E90012704746
:10FC40008405002010B5044650B1636813F0685F66
:10FC500005D0064A934202D000232360626010BDA3
:10FC6000034B04485B689847EFE700BF2C5F5CA933
:10FC700084050020D0130100C8B143680D4A9342A7
:10FC800013D013F0685F0ED0012350E8002F1946FF
:10FC900040E8001C9CF0000FF7D1012AF5D0BFF31B
:10FCA0005F8F0020704704487047044870476FF426
:10FCB000E04070472C5F5CA9E98FFFFFEA8FFFFFF0
:10FCC00080B14368094A93420AD013F0685F05D0B7
:10FCD000BFF35F8F002303601846704704487047E6
:10FCE000044870476FF4E040704700BF2C5F5CA988
:10FCF000E98FFFFFEA8FFFFF10B5044620B1044BE8
:10FD000063600022226010BD0248FFF779FFF6E72A
:10FD10003A00003AF813010070B5D0E90023174CFF
:10FD2000174D6360D0E90230C4E9023022604868B0
:10FD3000D1F800C0134BC3E900C0D5F81801D1F8C1
:10FD400008C0C3F808C010F0685FD1F80CC009699A
:10FD5000C3F80CC0196110D00B49C5F8BC110023C1
:10FD6000C5E9453105F58A70C5F8B8319047236873
:10FD700005F5DC70BDE87040184770BDA005002097
:10FD8000240E00208C0500202C5F5CA938B500F003
:10FD90002FF820B1032400F063F8204638BD00F0AE
:10FDA00031F898B900F0ACF898B90F4DD5F828396A
:10FDB0001B0EF02B08D1D5F8242A0C4B9A420AD0FE
:10FDC000072400F017F8E6E70624FAE704242046A3
:10FDD00038BD0024F5E7012000F092F80446002821
:10FDE000F7D1C5F80C0AD8E700B002500000E020B7
:10FDF0000020704700207047014BC3F8040A704789
:10FE000000B0025010B5114800F048F800B110BD24
:10FE10000F4800F043F80028F9D10E4C204600F0BE
:10FE20003DF80028F3D10C4B0C481C6000F036F86C
:10FE300001460028EBD100F02DF8044608B1204619
:10FE400010BD00F03FF82046FAE700BFE0050020B3
:10FE5000DC050020D8050020D0050020D4050020B6
:10FE600008B5084800F024F8074800F021F80748D2
:10FE700000F01EF8064800F01BF8BDE8084000F04E
:10FE80000BB800BFE0050020DC050020D8050020ED
:10FE9000D405002000207047704700BF08B5034B11
:10FEA00002681B6810689847002008BDA005002064
:10FEB00008B5034B02685B6810689847002008BDCE
:10FEC000A005002070B5094C094D2069AB68984722
:10FED00018B1084B08485B689847084AEB682069E6
:10FEE00000211160BDE87040184700BF8C0500205C
:10FEF000A0050020840500201C140100200E002015
:10FF0000F8B51A4D1A4E0446B26828699047E8B908
:10FF1000184F3B684CB1A3B1012B19D0013B3B609A
:10FF20002869F36898470020F8BD43B9124A0121B7
:10FF3000C2F800151149D1F81029002AFBD101336C
:10FF40003B60F368286998470020F8BD0C48F8BD6D
:10FF50000A4AD2F81039002BFBD1074A6FF07E40D5
:10FF6000C2F80035FFF748FF3B68D7E78C05002053
:10FF7000A0050020200E002000A0025000B002507A
:10FF8000E98FFFFF2DE9F04F8DB04368029383782E
:10FF900015469A07804640F10D8100240E78002E08
:10FFA00000F00A81252E0BD04B1C03930134029BD9
:10FFB0004146304698470028C0F2F6800399EDE7A5
:10FFC0004E788B1C252E0393F0D00027B946BB46F4
:10FFD000BBF11F0F38D8A6F12003102B0AD8DFE899
:10FFE00003F02A0909300909092109090928092DFD
:10FFF00009091F00A6F13003092B33D92A2E37D166
:020000021000EC
:100000001BF0400F55F8043B40F08280002BA7BF47
:100010004BF0200B9946C3F100094BF0280B01E08F
:100020004BF0010B039B13F8016B0393002ECFD110
:1000300030E04BF0020B4BF0040BF3E74BF0080BF6
:10004000F0E74BF0100BEDE7BBF17F0F19D8A6F1ED
:100050003003092BD2D81BF0400F03D00A2101FB3B
:100060000737DFE70A2101FB09394BF0200BD9E7FD
:100070002E2E06D11BF0400F40F09E804BF0400B1F
:10008000D0E76C2E31D02BD8682E36D06A2E3CD0DB
:100090004C2E3AD0002F46F02003B8BF2BF0400280
:1000A000A3F16501BCBF1FFA82FB0027022901D919
:1000B000612B2FD1073525F00705DFF8ACA20835F5
:1000C00007271BF0080F66D00AEB070B56465E4564
:1000D00063D1A4EB0A0A06EB0A02A9EB07096FE158
:1000E000742E9FD07A2E9DD0D4E71BF0800F18BFBE
:1000F0004BF4007B4BF0800B94E71BF4807F18BF20
:100100004BF4007B4BF4807B8CE74BF4207B89E73E
:100110001F4687E7A6F16301122900F2F080DFE8AD
:1001200011F013004F00EE00EE00EE00EE004F0065
:10013000EE00EE00EE00EE00EE00FE00E900EE0044
:10014000EE001B00EE00AF0055F8043B8DF81830B0
:1001500001270DF1180AB4E755F804AB834BBAF147
:10016000000F08BF9A461BF0400F14BF39464FF0EE
:10017000FF31504600F0F1FE0746A2E7029B4146E0
:100180002020984700280FDB013EB742F6D34C44AD
:10019000A41BB14698E74E46F7E716F8010B029B01
:1001A00041469847002892DA98F8023043F0040359
:1001B00088F802304FF0FF3420460DB0BDE8F08FD4
:1001C0001BF0800F34D01BF4007F2CD0073525F0B6
:1001D0000705AA4669685AF8080B2BF01005002994
:1001E000ADB237DA404261EB410145F480650DF173
:1001F000180B0A235A4600F0BCFEA0EB0B03019338
:100200006B0662D5019B25F001019F4289B240F344
:10021000A180002E00F0998015F0100240F09C8023
:10022000BB460D4623E0AA465AF8040BC117D4E793
:10023000AA461BF4807F5AF8041B01D10846F5E753
:100240001BF4007F15BF48B208B241F3C01141F35F
:10025000C031C2E750EA0103C9D11BF0400FC6D03C
:10026000002FC4D12BF0110295B2BB46019740F28A
:10027000064115EA01021CBF0BF1010B00222CE024
:100280002BF010021FFA82FB0A231BF0800C49D0CE
:100290001BF400711DBF073525F00705AA46AA46C5
:1002A0001ABF5AF8080B69685AF8040B50EA01059E
:1002B00045D12BF016051BF0400FADB242D0002FF8
:1002C00040D12BF0170295B2019715F0100248D0DB
:1002D000019B002E42D103F1010B29075AD4EB07F1
:1002E00006D5D9456FDD0199A9EB0B035F18CB4605
:1002F0005B4649E04BF0100B10237826C5E7782BBE
:1003000004D1C6F1780343F01003BEE7029B4146D7
:10031000252098470028FFF647AF023447E6082318
:100320000026B2E7AA461BF480715AF8040BBDD030
:100330001BF400711ABFC0B2614680B2B6E72BF061
:10034000060295B20DF1180B54E725F01105ADB278
:10035000BB468CE70D46B8E73B460D4603F1020B62
:10036000BBE7DDF804B082E7F8150100F1150100E4
:10037000CDE904324146029B202098470028FFF631
:1003800013AF049B059A01339945F1DCA4EB0B01F3
:10039000CC189B460AB3029B414630209847002860
:1003A000FFF602AF8EB901342744019B391B9942F5
:1003B00024DC1D465DBB019AA9EB0B09224455467E
:1003C0001446914435E0019F92E70234414630469D
:1003D000029B98470028E7DAE6E640F206410D4224
:1003E000E2D015F0020F14BF2B20202015F4806FEF
:1003F00004F10104414618BF2D20E9E7029B414664
:1004000030209847002804F10104CEDACCE606AB90
:10041000013D4146585D029B98470028CADAC3E671
:10042000029B414620209847002804F10104FFF672
:10043000BBAEA9EB0403002BF2DCBFE57047836879
:1004400000EBC101B3F5004F2CBF51F8220031F889
:100450001200704700EBC1018068B0F5004F2CBF5F
:1004600041F8223021F81230704708B50122FFF719
:10047000E6FFD04008BD8368B3F5004F00EBC10133
:1004800008D34B681AB143F001034B60704723F067
:100490000103FAE74B881AB143F001034B80704720
:1004A00023F00103FAE753000122FFF7D3BFB0F5B1
:1004B000004F34BF04230823481C0833A0EBD300AB
:1004C000B0FA80F0C0F11F0070472DE9F0410D46F1
:1004D00086680446FFF7C9FFB6F5004F014601D311
:1004E000012832D03046FFF7E2FF04EB80010E69AD
:1004F00096B9E368012282401343E36002220D6152
:100500002B4629462046FFF7A5FF03222946204611
:10051000BDE8F041FFF79EBF022231462046FFF7BB
:100520008EFF2946034607462046FFF793FF032226
:10053000334629462046FFF78DFF39462B46204695
:10054000FFF788FF02223146E1E7BDE8F081B2F50E
:10055000802F2CBF08230423D21A2DE9F0418C18D8
:10056000CD1D25F0070524F00704641B0026E408D0
:1005700005602146AC60EE602046FFF798FF421D03
:100580009200013002F107074FEAD707A2F11002EB
:100590003146B8BF324605F1100000F0D6FC3A46AD
:1005A00031462846FFF77FFF33463246314628461C
:1005B000FFF750FFA4EB0708284631460122FFF75A
:1005C0005AFF42463946FFF76EFF3B4632463946F0
:1005D0002846FFF73FFF21462846FFF764FF4346C2
:1005E000324621462846FFF735FF2146284601229C
:1005F000FFF741FF3946BDE8F041FFF766BF002035
:1006000070470FB407B504A951F8040B0191FBF72B
:10061000B7FE03B05DF804EB04B07047038B13F032
:10062000070305D10368002B0CBF0020032070478F
:10063000022B05D1408BB0FA80F040098000704752
:10064000012B05D10368002B0CBF0020052070474B
:100650000020704710B50C4600B111B96FF01500BD
:1006600010BD081D00F093F80028F9D1A368032BF2
:10067000F6D9F3E72DE9F0410D4607461946281D46
:1006800090461E4600F094F8044638B13346424680
:1006900029463846A446BDE8F0416047BDE8F081F0
:1006A00010B4EFF31182202484F31288BFF36F8F0C
:1006B000416110BC0121FBF795BE38B50C460546DB
:1006C00058B151B10B6843B14B6833B11C220021C2
:1006D00000F03BFC2C61002038BD6FF01500FBE7FB
:1006E00070B505460E46FFF7B5FF041E14DBEFF3A9
:1006F0001182202383F31288BFF36F8F6B8B2C8BB7
:100700004FF6FF718B4204F0070407D182F3118882
:10071000BFF36F8F6FF00A04204670BD022C0CD11E
:1007200001336B8382F31188BFF36F8F002322465E
:1007300031462846FFF79EFFEEE7062C14D8DFE887
:1007400004F004131313041A0400002333606B68CD
:100750003BB9C5E90066ACB902212846FBF742FE69
:10076000DAE71E606E60F6E782F31188BFF36F8FE1
:100770006FF00404D0E782F31188BFF36F8F6FF03E
:100780008504C9E782F31188BFF36F8FC4E703467E
:1007900058B1426802F00302012A03D0032A04D1AF
:1007A000026812B10020986070476FF01500704722
:1007B0004268816002F00302032A4FF00002034600
:1007C0000CBF006810465A6070477047FEE701286A
:1007D00001D1EFF30583FEF791BA01460068FFF7F8
:1007E000F6BF08B5FCF70CF8BDE80840FCF72CB8DC
:1007F00000210120FFF7EBBF61B662B680F31188DC
:10080000BFF36F8F704772B6002383F31188BFF375
:100810006F8FBFF34F8F30BF62B6BFF36F8F7047DC
:1008200072B6002383F31188BFF36F8FBFF34F8F2E
:1008300020BF80F31188BFF36F8F62B67047202806
:1008400009D9B0F1004F08D80138B0FA80F0C0F1F2
:100850001F0040007047082070473E20704708B5D1
:10086000FCF768FC002008BD0369C9B20C2201FB3B
:100870000233186C00F00700704770B5C9B2036905
:10088000EFF31185202484F31288BFF36F8F0C26B9
:1008900006FB0134246C14F0C00408D0A24206D038
:1008A00085F31188BFF36F8F4FF0FF3070BD06FBEB
:1008B000013301221A6485F31188BFF36F8F4368F7
:1008C00003EBC1035B6898470020EFE78022FFF746
:1008D000D4BFF8B5069F0469C9B2EFF3118620258D
:1008E00085F31288BFF36F8F0C2505FB0144256C3F
:1008F00005F0070CBCF1010F0CD1276486F31188B9
:10090000BFF36F8FC4E90E23436853F83130984723
:100910000020F8BD05F0C005AF4286F31188BFF393
:100920006F8F0CBF6FF077004FF0FF30F1E713B51A
:1009300080240094FFF7CDFF02B010BD10B4006911
:10094000CBB21C2403FB0400002110BC1047002084
:10095000FDF722BD002000F0DCB81046FEF704BC15
:1009600043685B68D3F810350B600020704743681C
:100970005B6802EA010021EA0201C3F80805C3F836
:100980000C150020704743685B680020C3F8081509
:10099000704743685B680020C3F80C1570474368D4
:1009A0005A68D2F8043521EA03000B40C2F8080562
:1009B000C2F80C350020704710B503695868F8B1CB
:1009C000884219D19C6808685860A14200D198609B
:1009D000002008602AB15A680A609A68596002B912
:1009E0009960002010E0814206D108682060986874
:1009F0008142EDD19C60EBE7044600680028F2D10B
:100A0000002AE8D16FF0150010BD30B543681360BF
:100A1000057A446804EBC504A34202D36FF00100D9
:100A200030BD5C798C4201D00833F0E70020F7E755
:100A300043681B68D3F88004C3F880047047426899
:100A40001368D3F8100150B1D269002012780A70EF
:100A5000C3F81001D3F8102101221A6070474FF03B
:100A6000FF30704702680346D2F8580140B95B680E
:100A7000DB0706D4D2F82001003818BF01207047E8
:100A80000120704743681B68D3F80423D20517D5AB
:100A9000D3F82021A2B1EFF31182202181F3128833
:100AA000BFF36F8FD3F8201131B10021C3F82011AB
:100AB000D3F820110121D96082F31188BFF36F8F21
:100AC000D3F85831704700F150039B009BB203F1FB
:100AD000804303F5883300221A601B687047FFF7D4
:100AE00061B808B5FBF7A0FDFBF774FEBDE8084050
:100AF000FFF758B8004700F095B8C00000F18040FB
:100B000000F5F830C0F81015C0F814257047FEF74E
:100B1000BBB8FDF7BDBBF7B5019001A8DDE90847FB
:100B200016461D46FDF7C0FC019BB6F1000C18BF30
:100B30004FF0010C00EB83000B1E18BF0123002DAA
:100B400043EA4C0314BF4FF00C0C4FF0000C002C88
:100B500043EA0C0314BF4FF4E06C4FF0000C002F7D
:100B600043EA0C03D0F8002714BF4FF4403C4FF089
:100B7000000C43EA0C0322EA030301B109780EB129
:100B80003678760019430DB12D78AD0031430CB1A4
:100B90002478240229430FB13F783F040C433C439F
:100BA000C0F8004703B0F0BD1FB50DF10F0301936E
:100BB00000238DF80F1000931A461946FFF7ABFF7C
:100BC00005B05DF804FB38B5054608460C46FDF750
:100BD000BDFCB0B10846FDF7ADFC90B90846FDF785
:100BE0009DFC2A6801238340C2F808332A6803B2B7
:100BF00002EB8303D3F8102522F00302C3F810257B
:100C000038BD20460021BDE83840FFF7CDBFFDF7D5
:100C100023BDFFF7D8BFFEF73DB808B5FFF7FBFFD0
:100C2000002008BD08B1FCF7CDBA7047704740B14D
:100C3000C368587810F001001EBF1878B0FA80F031
:100C400040097047EFF31183202383F31288BFF329
:100C50006F8FFEE708B5FFF7F5FF10B5D0E9003458
:100C600033B90020E268537843F00103537010BD9C
:100C7000204698470028F4D00028B8BF4042E368D7
:100C8000FF28A8BFFF201870ECE700F05EB900F065
:100C90004EB970474169836843EA010212F00302CA
:100CA0000FD1C2600269013A01FB023382689A42A5
:100CB00001D900207047C2681A604269C3609B1A5C
:100CC000F4E76FF01500704710B5C0E90432002357
:100CD000816083610446FFF7DDFF0028A8BFC4E9F7
:100CE000004410BDF8B504460D46EFF311862023ED
:100CF00083F31288BFF36F8FC7686FB900F0C1F834
:100D000050B18767456100F06EF8314604F1080084
:100D1000BDE8F840FEF740BCE3682B60A369E560DE
:100D2000013BA36186F31188BFF36F8FF8BD08B54F
:100D30002024EFF3118384F31288BFF36F8FFFF742
:100D400062FDF6E790F90E308B4201D0FEF7E0BB72
:100D50000020704703460020C3E90200C3E90033C6
:100D60007047EFF30580003818BF01207047FEF789
:100D700025BCD0E9003213605A600023C0E900337B
:100D8000704708B5FFF7F5FF437B23F00203437379
:100D90000023836008BD38B504460D46FEF798FA77
:100DA000637B43F002036373E5B1A5602B689D424A
:100DB00009D16B68C4E900531C606C6012E06A687A
:100DC0009A42F6D01B68002BF3D094F90E2093F9C9
:100DD0000E108A42F3D09142F1DD5A68C4E9003224
:100DE00014605C6038BD10B5EFF31184202383F3E9
:100DF0001288BFF36F8FFEF783FA84F31188BFF375
:100E00006F8F10BD10B50446183000F077F8EFF37F
:100E10001181202383F31288BFF36F8F627B12F05E
:100E2000100204D081F31188BFF36F8F10BD2046EC
:100E3000BDE81040FEF798BA38B50446EFF31185C7
:100E4000202383F31288BFF36F8F437B13F0280FA7
:100E50000BD183680BB1FFF794FF637B51B903F0AB
:100E6000FB0363732046FEF74BFA85F31188BFF34B
:100E70006F8F38BD03F0EB03F3E701211838FFF75C
:100E8000DBBF38B5EFF31185202383F31288BFF35E
:100E90006F8F0468A0420DD034B12046FFF771FF78
:100EA00004F1180000F02AF885F31188BFF36F8F62
:100EB000204638BD0024F7E7EFF31181202282F3AA
:100EC0001288BFF36F8F027BD2070CD581F3118894
:100ED000BFF36F8F002383F31188BFF36F8F042359
:100EE000184602DF7047437B1B0704D581F3118846
:100EF000BFF36F8F70470122FEF736BA10B5EFF3DC
:100F00001184202282F31288BFF36F8F03683BB1F4
:100F1000FEF712FD002084F31188BFF36F8F10BD20
:100F20006FF01500F7E708B5FEF724FE08BD0A4488
:100F3000914200F1FF3300D1704710B511F8014B19
:100F400003F8014F9142F9D110BD02440346934288
:100F500000D1704703F8011BF9E710B502460144C0
:100F60008A42134603D01C780132002CF8D1181A9B
:100F700010BDF0B5C3F137070446FFB203F01F03FD
:100F80001046082BE6B233D0102B3ED06508A408DB
:100F900044EA817445EAC1752D194FEA910242EB8A
:100FA0005102290941EA02716D1842EB1212290A15
:100FB00041EA02616D1842EB1222290C41EA02411A
:100FC0006D1842EB1242AD1842F10002EC0844EAFF
:100FD0004274D10804EB8402A6EB4205EDB2092D60
:100FE0000CD90134A5F10A0541F10001EDB212E07E
:100FF000E40844EA417406F00705C908303554EAAC
:10100000010200F8015BBCD1F0BD240944EA01747F
:1010100006F00F050909092D84BFED19EDB2EDE7C2
:0C10200001480068704700001C0D002013
:10102C0081D100000000000081D200008C10010072
:10103C001B0C01000000000081EF0000000000000C
:10104C0039D60000B410010039D60000A010010000
:10105C00DF0A010000000000D1DA0000C810010016
:10106C00E9D400000000000039DE000000000000A0
:10107C005DD1000000000000E30A01000000000048
:10108C0073150100CC120100DC120100E4050020F4
:10109C00500D002082150100F812010028130100E8
:1010AC00E6050020A40D002090150100101301008E
:1010BC0028130100E8050020B00D0020A615010042
:1010CC004C13010090130100EA050020BC0D002018
:1010DC0041E40000F50A010000000000F1070100E6
:1010EC00C8100100850A010000000000F107010092
:1010FC0000000000F107010000000000F1070100F2
:10110C00CDEA0000F50A010000000000F107010023
:10111C0000000000F107010000000000F1070100D1
:10112C0000000000F107010000000000F1070100C1
:10113C0000000000F107010000000000F1070100B1
:10114C0000000000F107010000000000F1070100A1
:10115C0000000000F107010000000000C9DE0000E3
:10116C0000000000F107010000000000F107010081
:10117C0000000000F107010000000000F107010071
:10118C0000000000F107010000000000F107010061
:10119C0000000000F107010000000000F107010051
:1011AC0000000000F107010000000000F107010041
:1011BC0000000000F107010000000000F107010031
:1011CC0000000000F107010000000000F107010021
:1011DC0000000000F107010000000000F107010011
:1011EC0000000000F107010000000000F107010001
:1011FC0000000000F107010000000000F1070100F1
:10120C0000000000F107010000000000F1070100E0
:10121C0000000000F107010000000000F1070100D0
:10122C0000000000F107010000000000F1070100C0
:10123C0000000000F107010000000000F1070100B0
:10124C0000000000F107010000000000F1070100A0
:101260000338FDD87047000000000000CD070100E2
:10127000DC040020D4040020CC0400200000000086
:10128000C404002041C7000035C6000089C6000024
:10129000E9C60000C00400200000000000000B06AA
:1012A00002000000A8120100000000005E1501000D
:1012B00026000207000000206615010022000B1125
:1012C00009D20000D9D100000000000059D300006D
:1012D0004DD200004F09010055090100D9D200008C
:1012E000CD0801002F09010000000000690801007D
:1012F0000000000000000000FFFF0000000300509D
:10130000000000000100000000600040000000003C
:10131000BCF801FF000000500000000000000000C9
:101320000060004000000000CDD60000610901000F
:101330006F09010087090100930901009F0901005D
:1013400039D50000B909010000000000002000406C
:1013500001000000000000006C1301000000D60135
:1013600000000000E60F0020E50F002000200040F4
:101370007813010001000000801301000400000048
:101380000600000005000002080600010706000331
:101390003F0A01001DDA0000310A01002C10010093
:1013A0002C100100741001007C1001008C10010051
:1013B0008C100100FF8FFFFFFF8FFFFFFE8FFFFFED
:1013C000FE8FFFFFFD8FFFFFFC8FFFFFFC8FFFFFF6
:1013D0006D757465785F667265652063616C6C65B8
:1013E000642077697468204E554C4C20706172619E
:1013F0006D6574657200000043616E277420696E2C
:10140000697469616C697A65206D757465782C20E2
:10141000776173204E554C4C0D0A0000436F756C7C
:1014200064206E6F74206C6F636B20706F776572D1
:101430002073617665206D75746578006275696CDE
:10144000642074696D653A204A616E20323820321A
:101450003032352031323A33393A30320A006E7246
:10146000663532383430646B0053696E676C6520C2
:1014700062616E6B2073657269616C207265636F67
:1014800076657279207769746820737973627569FB
:101490006C6420666F72206275696C64207461727E
:1014A0006765742025730A002A2A2A20426F6F7408
:1014B000696E67206E524620436F6E6E65637420BE
:1014C00053444B2076322E392E302D373738376241
:1014D00032363439383430202A2A2A0A002A2A2A75
:1014E000205573696E67205A6570687972204F5372
:1014F0002076332E372E39392D31663866336463C2
:101500003239313432202A2A2A0A006D75746578FE
:101510005F696E69742063616C6C656420776974BF
:1015200068204E554C4C20706172616D6574657217
:1015300000436F756C64206E6F7420616C6C6F6318
:10154000617465206D75746578206265666F72657B
:1015500020696E697469616C697A696E6700464CCE
:101560004153485F30005352414D5F30000000014D
:10157000000000636C6F636B4034303030303030CB
:1015800030006770696F40353030303033303000B4
:101590006770696F403530303030303030000001D6
:1015A000020304050607756172744034303030322E
:1015B0003030300000000000000101000000000099
:1015C000002030303030303030303030303030305B
:1015D00000015465726D696E616C000000000000CE
:1015E0000054545220524547474553006D61696E7F
:1015F00000286E756C6C29002A666C6F61742A0075
:10160800FF050100000600203A0000001406002033
:101618003A000000EC0500203A00000028060020EF
:101628003A000000000000005F0801000000000010
:1016380000000000000000000000000000000000A2
:101648000000000000000000000000000000000092
:101658000000000000000000000000000000000082
:101668000000000000000000000000000000000072
:101678000000000000000000000000000000000062
:101688000000000000000000000000000000000052
:101698000000000000000000000000000000000042
:1016A8000000000008000000FF000000000000002B
:1016B8000300000000000000FFFF0F007C05002071
:1016C8007C05002000000000DDFB0000C8050020AC
:1016D800C0050020B805002000000000B00500206B
:1016E800F9FC000045FC000079FC0000C1FC00008A
:1016F800100E00203A00003A140E00203A00003A7A
:10170800180E00203A00003A1C0E00203A00003A59
:10171800D80500209C050020940500209005002095
:041728008C0500200C
:08172C000000000000000000B5
:10173400EC050020EC050020000000000000000083
:101744000E0000000006002000060020000000003B
:10175400000000000E000000140600201406002003
:1017640000000000000000000E0000002806002019
:101774002806002000000000000000000E00000009
:0417840015E015E077
:040000030000CB2509
:00000001FF
