:1000000038160020690A0000EB4D0000550A000078
:10001000550A0000550A0000550A000000000000C3
:100020000000000000000000000000001D0B0000A8
:10003000550A000000000000550A0000550A0000A3
:10004000610C0000610C0000610C0000610C0000FC
:10005000610C0000610C0000610C0000610C0000EC
:10006000610C0000610C0000610C0000610C0000DC
:10007000610C0000610C0000610C0000610C0000CC
:10008000610C0000610C0000610C0000610C0000BC
:10009000610C0000610C0000610C0000610C0000AC
:1000A000610C0000610C0000610C0000610C00009C
:1000B000610C0000610C0000610C0000610C00008C
:1000C000610C0000610C0000610C0000610C00007C
:1000D000610C0000610C0000610C0000610C00006C
:1000E000610C0000610C0000610C0000610C00005C
:1000F000610C0000610C0000610C0000610C00004C
:1001000000000000000000000000000000000000EF
:1001100000000000000000000000000000000000DF
:1001200000000000000000000000000000000000CF
:1001300000000000000000000000000000000000BF
:1001400000000000000000000000000000000000AF
:10015000000000000000000000000000000000009F
:10016000000000000000000000000000000000008F
:10017000000000000000000000000000000000007F
:10018000000000000000000000000000000000006F
:10019000000000000000000000000000000000005F
:1001A000000000000000000000000000000000004F
:1001B000000000000000000000000000000000003F
:1001C000000000000000000000000000000000002F
:1001D000000000000000000000000000000000001F
:1001E000000000000000000000000000000000000F
:1001F00000000000000000000000000000000000FF
:10020000DEE61E284CBBCE8F02340000EC0000005E
:10021000586B00000100000000000000000000001A
:10022000FFFF02910000000000000000000000003D
:10023000000000000500000000000000DEE61E28AF
:10024000EAAC45B8023400002000000003100000B2
:1002500001000000010000002D510000DEE61E2814
:10026000EAAC45B802340000300000000210000083
:10027000000000000100000035150000E9510000F9
:10028000EF5100006150000074000000DEE61E28FF
:10029000EAAC45B802340000200000000110000064
:1002A0000200000001000000F7500000DEE61E28FA
:1002B000EAAC45B802340000200000000111000043
:1002C000030000000100000055520000DEE61E2879
:1002D000EAAC45B802340000200000000012000023
:1002E00000000000010000000D1A000030B44FF0C3
:1002F000000310F8014B11F8015B013A84EA050490
:1003000043EA0403F5D1A3F101034FEAD37030BCF3
:10031000704700BF4FF0000310F8012B013943EA8A
:100320000203F9D1A3F101034FEAD370704700BF74
:1003300030B411F8014B12F8015B6C4000F8014B2E
:10034000013BF6D130BC704753B94AB9002908BF08
:1003500000281CBF4FF0FF314FF0FF3000F00CB809
:10036000ADF1080C6DE904CE00F008F8DDF804E00A
:10037000DDE9022304B07047704700BF2DE9F04764
:1003800086468C460846089E154674461946002B3C
:1003900040F0C2808542B2FA82F245D94AB1C2F138
:1003A000200300FA02FC2EFA03F3954043EA0C0CFA
:1003B00094404FEA154EA8B2BCFBFEF8230C0EFB8E
:1003C00018CC08FB00F943EA0C43994528D9EB18EF
:1003D00008F1FF3704D2994502D9A8F102072B444E
:1003E000A3EB0903A4B2B3FBFEFC0EFB1C330CFB16
:1003F00000F044EA0344A04214D92C190CF1FF3355
:1004000004D2A04202D9ACF102032C44241A43EADC
:1004100007401EB1D440002334607360BDE8F0870C
:100420004746DDE76346F1E792BB431B01214FEAF4
:10043000154EAFB2B3FBFEFC200C0EFB1C330CFBC5
:1004400007F840EA0343984562D9EB180CF1FF30F6
:1004500004D2984502D9ACF102002B44A3EB080367
:10046000A4B2B3FBFEFC0EFB1C330CFB07F744EA03
:100470000344A7424ED92C190CF1FF3304D2A742F2
:1004800002D9ACF102032C44E41B43EA0040C0E76C
:10049000C2F1200320FA03F1954090402EFA03F3B5
:1004A00003434FEA154EAFB2B1FBFEFC0EFB1C102E
:1004B000190C0CFB07F841EA0041884504FA02F4E4
:1004C00022D969180CF1FF3004D2884502D9ACF169
:1004D00002002944A1EB08019BB2B1FBFEFC0EFB1C
:1004E0001C110CFB07F743EA01439F420ED9EB189E
:1004F0000CF1FF3104D29F4202D9ACF102012B442E
:10050000DB1B41EA004192E76046E3E76146F7E71B
:100510006046A3E76346B7E7834206D916B90021D0
:1005200008467BE7C6E900E0F9E7B3FA83F78FB93D
:10053000834201D3724508D8BEEB020460EB03038B
:1005400001209C461EB9002168E73846FAE7C6E953
:10055000004CF8E7C7F1200CBB4022FA0CF41C4316
:100560002EFA0CF120FA0CF3B84001434FEA14497B
:100570000EFA07F5B3FBF9F81FFA84FE09FB1830F1
:100580000B0C08FB0EFA43EA00439A4502FA07F205
:1005900040D9E31808F1FF3004D29A4502D9A8F1F6
:1005A00002002344A3EB0A0389B2B3FBF9F809FB69
:1005B000183308FB0EFE41EA03418E452CD9611821
:1005C00008F1FF3304D28E4502D9A8F10203214479
:1005D00043EA0040A0FB0298A1EB0E014145CE4644
:1005E000434602D306D14D4504D2B9EB020E68EB67
:1005F00004030138002EA6D0B5EB0E0261EB030117
:1006000001FA0CFC22FA07F34CEA0303F940C6E9AD
:10061000003198E74046C5E74346D9E72DE9F04366
:10062000DFF83890DFF8388085B00746002601AD46
:1006300098E8070059F8044B3C4485E807000C2271
:100640002946204605F004F800B91CB90136072EEA
:10065000EED10024204605B0BDE8F083085F00001D
:10066000205C000037B504461E480D4604F083FBAD
:100670002CB91D4803B0BDE8304004F07CBBA16933
:100680001A4804F078FBA069214604F0F1FD40B956
:10069000174804F070FB204603B0BDE8304001F07D
:1006A00075BA1448616904F066FB0DF1060000F0AC
:1006B000ABFF40B1104804F05EFB104804F05BFB58
:1006C0000023ADF806306069BDF80630984203D9C2
:1006D000294680B200F05EFF204600F019FE03B00C
:1006E00030BD00BF006200001E62000039620000E1
:1006F0006162000091620000A7620000CF6200000A
:1007000070B54FF40041002004F0A7FC064620B16C
:10071000134804F030FB002070BD04F0DAFD0446FD
:1007200004F0DBFD05462046FFF778FF0446284627
:10073000FFF774FF054618B1626943699A4209D30D
:1007400000212046FFF78EFF01212846FFF78AFF90
:100750000448DEE70121FFF785FF31462046F5E733
:100760001263000040630000014B1B68184700BF84
:10077000B8040020014B1860704700BFB804002087
:1007800030B585B004460D4610220021684604F0BD
:1007900057FF02238DF802302A46044B019321466D
:1007A000684603F09FF905B030BD00BF690700003F
:1007B00008B5044804F0DFFABDE80840024804F038
:1007C000DABA00BF6A6300009F630000014802F0CC
:1007D0007FBF00BF245F000030BFFFF7FDBF00BF39
:1007E000134B9A6A12F0007F9A6A14BF1E201D20D4
:1007F00012F0807F9A6A18BF1F2012F4002F9A6AA5
:1008000018BF212012F4802F9A6A18BF222012F4F8
:10081000003F9A6A18BF232012F4803F9A6A6FEA59
:1008200002426FEA12429A6218BF2420704700BF4A
:1008300000ED00E010B5194B0246986A9C6A10F46E
:10084000805F14BF1720162014F4006F9C6A18BF35
:100850001820A40509D5986B986A000404D51AB12C
:100860009A6A22F400429A6219200C4B9A6A12F496
:10087000806F9A6A18BF1A20D2050CD49B6A13F4B1
:10088000005F18BF1C20054A936A43F47F439362BC
:1008900000230B7010BD1B20F5E700BF00ED00E04A
:1008A00010B51C4B0246986A9C6A10F0100F14BFDA
:1008B0001120102014F0080F9C6A18BF1220A40702
:1008C00009D5586B986A000604D51AB19A6A22F0C5
:1008D00080029A6213200F4B9A6A12F0010F9A6AF3
:1008E00018BF142012F0200F9A6A18BF1520D406E2
:1008F00058BF9B6A074B9A6A920642BF5A6A22F413
:1009000000525A629A6A42F0FF029A6200230B7008
:1009100010BD00BF00ED00E0F0B5474B5B688BB049
:100920000446C3F30803002585F31188BFF36F8FD6
:1009300002F07F40B0F17F4F11D102F00C00082887
:100940000DD010074CBF0C4601250022033B8DF84B
:100950000720032B05D8DFE803F02462665F2C46EE
:10096000F3E700239DF80720CAB902AE04F120077F
:1009700020686168324603C20834BC421646F7D18B
:10098000099A002D53D0C2F3080121B96FEA52220F
:100990006FEA4222099202A9184604F01CFA0BB031
:1009A000F0BD254BDA6A9107DBD4DA6A002AD8DB7E
:1009B000DA6A5200D5D55A69A16942F480725A6147
:1009C000BFF34F8FBFF36F8F5A6931F8021C22F4C7
:1009D00080725A61BFF34F8FBFF36F8F4DF6027273
:1009E000914209D09A6AD2B242B10DF107010120B9
:1009F000FFF756FF0346B5E72368B3E79A6A12F498
:100A00007F4F05D00DF107010120FFF713FFF1E73C
:100A10009B6AB3F5803FA4D3FFF7E2FEEAE70DF14E
:100A200007010020E4E70DF107010020EDE722F4C3
:100A3000FF7222F00102ADE700ED00E0044B5A69BD
:100A400042F010025A615A6922F008025A61704756
:100A500000ED00E0EFF30880EFF3098101B5724685
:100A6000FFF75AFF01BD00BF002080F31488BFF3D9
:100A70006F8F0F4880F3088801F0B0F800200D490F
:100A80000860BFF34F8F00F019F8202080F3118821
:100A900009484FF40061401880F30988EFF314808F
:100AA0000221084380F31488BFF36F8F00F07CF8B5
:100AB0003816002094ED00E03806002072B60023BE
:100AC00083F31388144B4FF0FF32C3F88020C3F830
:100AD0008420C3F88820C3F88C20C3F89020C3F882
:100AE0009420C3F89820C3F89C20C3F88021C3F851
:100AF0008421C3F88821C3F88C21C3F89021C3F85E
:100B00009421C3F89821C3F89C2162B6BFF34F8F9C
:100B1000BFF36F8F704700BF00E100E01EF0040FCD
:100B20000CBFEFF30880EFF30980816911F8021C14
:100B30000229FFD001B5724604F053F901BD00BF90
:100B400040B2002807DB044A4109012300F01F00DE
:100B5000834042F82130704700E100E0054B420934
:100B600000F01F0053F82220012303FA00F0104088
:100B7000704700BF00E100E040B20028A8BF00F1CC
:100B8000604001F10101B8BF064B4FEA4111ACBF13
:100B900000F5614000F00F00C9B2B4BF195480F8ED
:100BA0000013704714ED00E0144A08B5144B22F00E
:100BB0007F029A60BFF34F8FBFF36F8FD3F8882007
:100BC00022F47002C3F88820D3F8882042F4A002EF
:100BD000C3F888204FF04042C3F83422BFF34F8F50
:100BE000BFF36F8F0023E1EE103A01F0C7FA01F076
:100BF00009FB00F029F801F0CDFA00BF0000000069
:100C000000ED00E080B5154606460C460022E1EEF8
:100C1000102A074F87F309884FF0000005498847DD
:100C2000204629461A46B04703488047FEE700BFE2
:100C300038160020034E0000114E0000014B102218
:100C40001A61704700ED00E0044800232021C2181B
:100C50000133302B82F80013F9D1704700E100E036
:100C600008B5EFF30583064A103B02EBC30152F8C7
:100C7000330049688847BDE8084004F0BDB800BFAC
:100C80006C5A000008B5024B1B689847002008BD4D
:100C900034050020034B044A1860937843F00203A4
:100CA0009370704734050020BC04002008B5064945
:100CB000064821F00701C1F1005202F5802204F03C
:100CC00000F8002008BD00BF3F9600203805002036
:100CD0000E4A0123C2F840354FF080424FF0805158
:100CE000C2F87835D1F83001082808D1D1F834118C
:100CF000052904D80648415C09B1C2F838364FF0DE
:100D000080430122C3F880250020704700E00140A5
:100D1000CD63000020B1034B800143F0010318476D
:100D2000704700BF705C0000084B70B5C31A0D46D9
:100D300007499B10044659430648402204F07EF8B8
:100D40002B4601462046BDE8704018474405002068
:100D5000B76DDBB6445A000073B50C4C0C4A402307
:100D6000041B00930D460B460A49A4106143064636
:100D7000094804F08EF8011E05DA30462B4602B011
:100D8000BDE87040184702B070BD00BF44050020A8
:100D9000014F0000B76DDBB6445A000010B5EFF309
:100DA0001184202383F31288BFF36F8F074A1368DF
:100DB00023F00201DB07116002D4012004F072FB72
:100DC00084F31188BFF36F8F10BD00BF940500201E
:100DD000002270B5012104461046FFF7CDFE0F48F2
:100DE00001F074F80E4B984215D101F07FF8266996
:100DF0000C49304603F0CCFF00280BDB012535649D
:100E00002469084904F11C0003F0C2FF002801DB3B
:100E1000E564002070BD6FF00400FBE7F10E0000F8
:100E20000000AD0B2C5F000030B4104B0C2202FB15
:100E3000003301460020D3E90E529863EFF311808E
:100E4000202484F31288BFF36F8F1C6C04F0C0045D
:100E500044F002041C6480F31188BFF36F8F1DB14E
:100E60002B46034830BC184730BC7047440500206F
:100E7000445A000010B4EFF31182202383F3128848
:100E8000BFF36F8F1848016841F002040460C8077F
:100E900008D482F31188BFF36F8F01205DF8044BF3
:100EA00001F036B84FF08041D1F80C04D1F80C14A1
:100EB000C907EED5EFF3118083F31288BFF36F8F6C
:100EC0000A490B6C03F0C00343F002030B6480F388
:100ED0001188BFF36F8F82F31188BFF36F8F0020EB
:100EE0005DF8044BFFF7A0BF9405002044050020E7
:100EF00010B1012804D07047034B1B6C5B0701D174
:100F0000FFF792BF704700BF4405002008B50748AF
:100F100004F0FAFA38B10648FFF7BCFE0448FFF7C0
:100F200029FC002008BD6FF01200FBE7585A0000B2
:100F3000350F00000A2838B5074D044604D1AB68C8
:100F40000D215B6828469847AB6803485B68E1B2AF
:100F50009847204638BD00BF585A0000036803F088
:100F60001F025B09026004D0012B034818BF002058
:100F700070474FF0A0407047000300502DE9F04F3C
:100F8000DFF89491DFF894A185B01546834600EB15
:100F9000810140F2FF18594503D1002005B0BDE89A
:100FA000F08FDBF800305E04C3F3C322C3F3080400
:100FB00000F1AC801B0E19F80270444508BF4FF0D9
:100FC000FF34222B00F2A580DFE803F012191F2264
:100FD000252B22A3A3A3A33B68A3A3A3A3A3A3A3FB
:100FE000A3A36B818487A3A3A38A9194979A9D005E
:100FF000C5F80C45601C5ED10BF1040BCBE7C5F8BE
:101000001445621CF8D000265FE0C5F80845F1E7FA
:10101000C5F81045F5E7631CC5F80845ECD0002677
:1010200004E0661CC5F80C45E6D0012603A803942D
:10103000FFF794FF039B012202FA03F3C0F80C357B
:1010400008E0C5F80845002FDBD1631CD4D000268A
:1010500032460627DBF80030019303F400400028F5
:1010600018BF002203A8009218BF01260394FFF7BF
:1010700075FF039C019B009A00EB8400C3F3412C95
:10108000D0F800473B0243EA8C03134304EA0A0406
:10109000234343EA4603C0F80037ADE7C5F80C45E3
:1010A000D1E7C5F86045601CDBF80030A4D0C3F37D
:1010B0000043002BB9D003A80394FFF74FFF039B15
:1010C000012606FA03F3C0F808353246C2E7C5F830
:1010D0006445E8E7C5F86845E5E7C5F86C45E2E72B
:1010E000C5F82445621C87D000220126B2E7C5F866
:1010F00028457FE7C5F83045F4E7C5F83445F1E702
:10110000C5F83845EEE7C5F83C4573E76FF01500C4
:1011100044E76FF0850041E7EE630000F0F8FCFF64
:101120002DE9F041044647680D4604F02FFA4FF0D0
:10113000200868B9244B1B7853B16426606803F01B
:101140001CFFD0B9012004F09FF9013EF6D1F4E76D
:10115000EFF31186314688F31288BFF36F8F606812
:1011600003F00BFFA8B986F31188BFF36F8FEFE789
:1011700086F31188BFF36F8FDFE7EFF311863146F7
:1011800088F31288BFF36F8F606803F0F6FE0028C3
:10119000EED0BB691D706368BA691B680020C3F894
:1011A00044250122C3F84825C3F82001D3F8204183
:1011B000C3F85801D3F858019A6081F31188BFF33E
:1011C0006F8FBDE8F08100BF33060020F7B50546FC
:1011D000002201210220FFF7CFFC0220FFF7B0FC24
:1011E0006A6811681369C1F82435137D507D927DBA
:1011F00003431343C1F86C356E68D6E9004313F01E
:10120000010348D02F6907F1080004F049F9304B79
:1012100098425AD1387A04F10C0204F5907104F026
:1012200035F9387A012707FA00F000F0E7FD0823C6
:10123000C4F80035B369C4F844350023C4F8483510
:10124000A760D4F85831002BFBD00021C4F800155A
:101250006B68DC6801AA204603F062FE002805DB0B
:10126000019B226819791868FFF788FE6A6813687D
:101270000821C3F80015117A51B9D269C3F8342591
:101280000122C3F83825C3F81011D3F810111A60E1
:10129000002003B0F0BD0822C4F80025B269C4F8EC
:1012A0004425C4F848350123A360D4F82031002B2D
:1012B000FBD00023C4F82031D4F820310123E360AF
:1012C0004FF48073C4F80433BBE76FF00400E0E729
:1012D0000000AD0B30B50C490C4D0B6802460024E4
:1012E00005EB0310D0F80808C0B218B904B10B60C0
:1012F000002007E00133072B4FF00104F0D90B6009
:101300006FF01B00136030BDA405002000E0014019
:101310007FB505464FF480514FF4004003F09DFE29
:10132000044628B14C4804B0BDE8704003F023BD2A
:10133000A9694A4803F01FFD0121284600F066FB19
:1013400008B94748EFE7474B4748C3F80045D3F88B
:101350000C250092D3F814250192D3F808250292A7
:10136000D3F81035414E0393694651F8043B5A1C9B
:101370000FD003F01F025B0965D0012B66D1334605
:1013800003EB8203D3F80027024042F00202C3F8C5
:1013900000270134042CE8D14FF080424FF0FF3396
:1013A000C2F80833BFF36F8F72B6314AC2F880308B
:1013B000C2F88430C2F88830C2F88C30C2F890305D
:1013C000C2F89430C2F89830C2F89C30C2F880312C
:1013D000C2F88431C2F88831C2F88C31C2F8903139
:1013E000C2F89431C2F89831C2F89C314FF0E02332
:1013F00000221A61D3F8042D42F00072C3F8042DC4
:10140000D3F8242D22F4E02203F550635A62EFF35F
:101410001482920707D5EFF3148222F0020282F3BE
:101420001488BFF36F8FBFF34F8FBFF36F8FAA691D
:101430009A60AB691A6882F30888002282F30988EF
:101440005E68304600474FF0A04399E702F5E0722E
:10145000002353F82230FFDE046400002C640000F7
:101460003E64000000200040F0F8FCFF0003005044
:1014700000E100E0024B0122C3F80025704700BFE5
:1014800000A00250024B0022C3F80025704700BFA5
:1014900000A0025070B5EFF30883B3F5004F02D2FD
:1014A000094D2B780BB1002070BD084C0126C4F803
:1014B000006501F0A5F818B92E70C4F80005F2E730
:1014C0006FF00D00F0E700BF3206002000A00250D0
:1014D00090B5B1F1005F83B002AF1FD2BBB16C46D3
:1014E000ADF5007D02AB00934FF4007303F049FEAD
:1014F000A5460E4B984213D00A33984213D00C3BAA
:10150000984208BF6FF015000437BD4690BD084BE8
:1015100000934FF4004303F034FEEAE70023F7E7BB
:101520006FF01500F0E76FF08500EDE70202F000C4
:101530003816002008B500F0C1FF034B984208BFE1
:101540006FF0150008BD00BF0002F0001FB5084A8B
:10155000044607CA01AB83E807000C22194620465F
:1015600004F076F800280CBF2046002004B010BD1F
:101570002C5C000070B5064E0546002456F8040B9E
:101580002844FFF7E3FF10B90134072CF6D170BDF2
:10159000945F000073B50B46024606460D4616489A
:1015A000492103F009FC0DF10601012003F0F4FECE
:1015B000044628B102461148452103F0FDFB08E02E
:1015C000BDF8063043B90E48452103F0F5FB6FF036
:1015D0001504204602B070BDB5FA85F1490941EA0B
:1015E000460189B2012003F01CFF04460028F0D018
:1015F000024645210348E0E773640000AA64000046
:10160000F36400001F65000037B5054690B10DF189
:101610000601012003F002FF044630B107484521CE
:1016200003F0CAFB204603B030BDBDF806305B08AE
:101630002B80F7E76FF01504F4E700BF5B6500004F
:101640002DE9F04F824689B01046D2F80C90D2F8BE
:1016500010800F4614461D46FFF778FF40B91DB9AC
:10166000A448452103F0A8FB002009B0BDE8F08F95
:10167000A069504504D0002DF6D19F484521F1E7DF
:1016800025B9B8421FD09D484521EBE73846FFF702
:1016900071FF8442E8D1226A994B9A42E4D10DF15C
:1016A0000E00FFF7B1FF002842D16269BDF80E308D
:1016B0009A42D9D32669B6F5404FD5D8E368B342EC
:1016C00040D995B3D0E7FFF755FF844202D08D484B
:1016D0004521C7E7226A8A4B9A4213D18A48492199
:1016E00003F06AFB0DF10E00FFF78EFF024670B9A2
:1016F0006269BDF80E309A4243D32669B6F5404F71
:10170000DCD912E08148452103F056FBACE7804864
:10171000452103F051FB7F48492103F04DFBADF813
:101720000E502669B6F5404F30D97B48452199E7E0
:101730000023ADF80E302669B6F5404F94D8E36823
:101740009E4291D314EB090924D218EB070321D24E
:10175000BC421FD3A3421DD909F1FF394F4519D807
:101760004B4517D918EB0A08E3692CBF4FF0010964
:101770004FF0000914D3002D7FF476AF6748452160
:1017800070E76748452103F017FB6DE7E3689E4269
:10179000D8D2CAE7002D7FF467AF6248452161E7E0
:1017A0005345E8D34345E6D23A1DA2EB0A02D3588B
:1017B000534505D2002D7FF457AF5B48452151E7D3
:1017C0004345F7D207EB0608584B08F1050B0DF11E
:1017D000100A93E807008AE807000C2251464046A9
:1017E00003F036FF514B18B9B8F1000F40F0C2803A
:1017F00008F10108C345ECD1002D7FF435AF4C480A
:1018000045212FE7002D7FF42FAF4A48452129E7D6
:1018100003F06BFD044668B1002D7FF425AF02464E
:101820004521454803F0C8FA71347FF41DAF4348A1
:10183000492117E7424A434B002D14BF93469B466C
:1018400003F04FFD844205D3002D7FF40DAF3E48D9
:10185000452107E75146204603F070FD1028024657
:1018600010D010F1160F07D125B93848224649216A
:1018700003F0A2FA0134E3E7002D7FF4F5AE34481B
:10188000452141E765B933482246492103F094FADE
:101890009DF81F309DF810202F48492103F08CFA45
:1018A00008F1700200963B46514608F13000D847D7
:1018B0000246A8B9294E4C4506D11DB928484921F0
:1018C00003F07AFA0120D0E625B94A46492130468C
:1018D00003F072FA484600F087F809F10109EAE7D7
:1018E00010F1650F40D1002DC4D11E48572103F0DF
:1018F00063FABFE780650000A3650000D9650000BA
:10190000FFFF0291096600005F6600003566000077
:1019100083660000AD66000036670000986700002F
:10192000F366000068670000C7670000385C0000CD
:10193000F76700002B68000084680000AB680000B7
:10194000F7500000175100000A6A0000E368000029
:101950000F690000356900005E69000077690000CA
:1019600091690000B3690000002D7FF47DAE0A4844
:101970004521C9E6D8F80C20A3699A427FF442AF0A
:1019800003F0C2FB024600283FF442AF002D7FF473
:101990006BAE02484521B7E6DB69000061680000D4
:1019A0004FF400431B6B984216D21423434348F272
:1019B0003402D1580A4A0B4B42EA00628A4243EA97
:1019C000006309D08B4209D0002383F31188BFF351
:1019D0006F8F0423184602DF0020704701207047F4
:1019E0000000FA50FFFFFA5010B50446FFF7D8FF89
:1019F00048B1142048F2340300FB04300249BDE82A
:101A0000104000F023BB10BD0000FFFF2DE9F04F98
:101A100087B00646009198B303F01FFD00270446E7
:101A2000B36BBB424ED9DFF8BCA04FF000085AF8A8
:101A3000043BDFF8B4B04FF000095BF8045B01939E
:101A40001D44254B93E8070003AB83E807001946C4
:101A50000C22284603F0FCFD019B00B9A5B909F151
:101A60000109B9F1070FE8D11C4B08F101089845AD
:101A7000DDD3009B13B1636A00221A60236A3BB373
:101A8000002007B0BDE8F08F2B6A154A9342EBD1D6
:101A9000AE42E9D0696B05F13C038842E4D0256988
:101AA0001A6995420AD19A69A569954206D8E569ED
:101AB000954203D962695D69AA4305D0DA680130AD
:101AC0001344EAE70120DCE7009A0AB1626A136076
:101AD000E36801371C44A3E7445C000001000000F8
:101AE000FFFF0291CC6A0000B05F00002DE9F043D7
:101AF0002248234FDFF8909085B003F0AEFC1F4BD7
:101B0000D3F8388004460026B04503D8002005B03D
:101B1000BDE8F08397E80700636A1D6801AB83E8BE
:101B200007000C221946284603F092FD78B975B1DA
:101B300022692B699A420AD1AB69A2699A4206D8F6
:101B4000E2699A4203D963696A6993430CD0256AB2
:101B500075B10C4803F00FF9002383F31188BFF32C
:101B60006F8F0423184602DFE36801361C44CBE77D
:101B7000484603F000F9636A1D60F5E700020000C3
:101B8000505C00003B6A0000646A0000026A044B7B
:101B90009A4203D10349203000F058BA704700BF81
:101BA000FFFF02910000FFFF4FF08053D3F8302178
:101BB000082A06D1D3F83431052B02D8024AD05C6A
:101BC00070470020704700BF9D6A0000024AD2F8AB
:101BD0000034002BFBD0704700E0014010B54FF0FF
:101BE0008053D3F83021082A4ED14FF08042002193
:101BF000C2F80C11C2F81011C2F8381502F54042B3
:101C0000D3F80414C2F82015D3F80814C2F8241528
:101C1000D3F80C14C2F82815D3F81014C2F82C15F8
:101C2000D3F81414C2F83015D3F81814C2F83415C8
:101C3000D3F81C14C2F84015D3F82014C2F8441588
:101C4000D3F82414C2F84815D3F82814C2F84C1558
:101C5000D3F82C14C2F85015D3F83014C2F8541528
:101C6000D3F83414C2F86015D3F83814C2F86415E8
:101C7000D3F83C14C2F86815D3F84014C2F86C15B8
:101C8000D3F84434C2F87035FFF78EFF18B1414BDA
:101C9000414AC3F88C26FFF787FF18B13F4BFB2260
:101CA000C3F81825FFF780FF70B14FF080414FF067
:101CB0008053D1F8E42ED3F8583222F00F0203F00B
:101CC0000F031343C1F8E43EFFF76EFF20B1344B1E
:101CD0004FF40072C3F840264FF08053D3F83031F0
:101CE000082B09D14FF08043D3F80024D20744BF1A
:101CF0006FF00102C3F800242A4AD2F8883043F476
:101D00007003C2F88830BFF34F8FBFF36F8F4FF06F
:101D10008053D3F83021082A0ED1D3F83431052B63
:101D200002D8214AD35C3BB14FF01023D3F80822EC
:101D30004FF08043C3F858254FF01023D3F800220A
:101D4000002A03DBD3F80432002B22DA17490123DF
:101D50004FF01020C1F804351224FFF737FFC0F808
:101D60000042FFF733FFC0F80442FFF72FFF0023C4
:101D7000C1F80435FFF72AFFBFF34F8F09490C4B19
:101D8000CA6802F4E0621343CB60BFF34F8F00BF19
:101D9000FDE710BD005000404881030000F0004006
:101DA0000090024000ED00E0976A000000E0014072
:101DB0000400FA0530B50468CCB1BFF35B8FB4FA08
:101DC00084F3C3F11F03DBB201229A4024EA02022A
:101DD00050E8005FA54204D140E8002CBCF1000FA0
:101DE000F6D1BFF35B8FE6D102480B7030BD0248DD
:101DF000FCE700BF0000AD0B0200AD0B014BC3F8C8
:101E00000405704700F00140F7B50546F8B1012818
:101E10001BD104224FF4807301464FF080400344ED
:101E20000244C0F808130026012111601E608D4293
:101E30001B688DF8071008BF0DF1070642F21074F9
:101E40004FF0804745B1012D28D003B0F0BD0C22E2
:101E50004FF482730221E0E7D7F8183403F480339B
:101E60003EB9002BF1D0012003F00EFB013CF3D171
:101E7000EBE7D7F8182402F003023260002BE4D01D
:101E80009DF80700012803D103F0FEFA013CD9D1E7
:101E9000012DDAD10C4B00225A71D6E7D7F80C3459
:101EA00003F480333EB9002BF4D0012003F0ECFAA8
:101EB000013CF3D1EEE7D7F80C2402F001023270B6
:101EC000002BDDD1E6E700BFA8050020044B1A79FE
:101ED00022B9012218609A80024870470248704770
:101EE000A80500200000AD0B0C00AD0B08B5074B9A
:101EF0001B682BB10020FEF731FE08B9FEF720FE6B
:101F00004FF080430022C3F8182508BDA805002023
:101F100010B510B1012843D010BD4FF08043D3F865
:101F20001814D3F81824C80321D502F00303012B99
:101F300004D013B10020FFF767FF00234FF0804269
:101F40000220C2F8183508224FF4827303F180434F
:101F50000021196002F180421C6801241460154AB6
:101F600012680AB34FF08043C3F80403D4E7D3F8F0
:101F70001424D107E1D5D3F81C249207DAD40D4AF2
:101F800012681AB10222C3F80423C5E7D3F804216A
:101F9000002AFBD00022C3F80421D3F80431BBE7A8
:101FA00000224FF48073D1E71A68002AFCD0196030
:101FB0001B68B1E7A8050020F8B54FF080431C4E20
:101FC000D3F804430125002704B9F8BDB4FA84F01E
:101FD000C0F11F00830003F580739BB203F18043BF
:101FE00005FA00F2196892B224EA02040029EBD043
:101FF0001F601B684FF08043012AC3F8082305D0F7
:10200000022A08D03368C0B29847DDE77379002B05
:10201000DAD17271F6E7D3F81814D3F818148907D7
:10202000F0D1C3F81855C3F804239D60CCE700BF76
:10203000A8050020044AD2F80034DB07FBD5016074
:10204000BFF35F8F704700BF00E0014010B5054C43
:102050000123C4F80435FFF7EDFF0023C4F804356D
:1020600010BD00BF00E0014001460148FFF7A2BEDD
:10207000CC04002008B5144BA8220021184603F018
:10208000DFFA0322026111494261114A8161C26192
:102090004FF480620262002282624262C262016682
:1020A0000C4941661021816603460267C266426799
:1020B000BFF35F8F084911F8010D98540132102ABF
:1020C000F9D1BFF35F8F08BD10040020A36A0000A0
:1020D0001000002000000020BC6A000010B4BFF314
:1020E0005F8F0C4A0C490023C85C12F8014D8442F2
:1020F0000AD10133102BF7D10023BFF35F8F2BB12F
:102100005DF8044BFFF7B6BF0123F6E75DF8044B1B
:10211000704700BFBC6A00001004002038B5094BAE
:1021200053F82040013053F82050A54200D838BD64
:10213000636823B1204603F00CFA0834F5E72368FE
:102140009847FAE7CC5F000008B50A4B012203204C
:102150001A70FFF7E3FFFEF72BFB03F016FA0420DB
:10216000FFF7DCFFFEF7CCFA034A137B23F00103F1
:10217000137308BD33060020B005002008B50348DE
:10218000034A0021121A03F0FCF908BD34050020AF
:102190003406002008B50020FFF7C0FF164B83F37C
:1021A0000888164C636943F4007363610025E023DB
:1021B00084F82230E57725766576A57684F8205078
:1021C000636A43F4E023636284F82350FEF736FC2D
:1021D000FEF734FD4FF0FF33A362E36203F093F99F
:1021E0000120FFF79BFF0220FFF798FF04482B46D2
:1021F0002A462946FEF706FD380E002000ED00E0D5
:10220000492100000748084A084908B5121A03F096
:10221000BAF90748074A0849BDE80840121A03F00E
:10222000B2B900BFB804002034050020D86A00000D
:10223000B8040020B8040020D86A000030B1026859
:10224000034B04489A4208BF002070470248704779
:10225000DD55AABB8208F0007108F00038B50D46C4
:102260000446B0B1A0220021043003F0AEF995B1CC
:102270000822294604F1640003F0ADF9082205F1B3
:10228000200104F1840003F0A6F9044B2360002030
:1022900038BD0348FCE70348FAE700BFDD55AABB99
:1022A0007108F0008308F0002DE9F74305460E465B
:1022B00099461146FFF7C2FF0446002840F084808B
:1022C000002E00F08580002900F08480B9F1200FF5
:1022D00040F0828005F14404082205F104082046FC
:1022E00003F079F905F1240708223146404603F04E
:1022F00072F906F120010822384603F06CF902A9B0
:102300004FF4807041F8049D03F059F9002865D11D
:10231000334A4FF480731360012193600823314ADC
:1023200000F02EFB0121084605232F4A00F028FB70
:102330000823424601211C2000F022FB08233A46D4
:102340000121032000F01CFB22460823012102206A
:1023500000F016FB0823254A01211A2000F010FB8B
:102360000523234A01211B2000F00AFB0823214AF0
:102370000121142000F004FB08231F4A012115202D
:1023800000F0FEFA082305F164020121162000F096
:10239000F7FA082305F184020121172000F0F0FA72
:1023A0000823164A01210B2000F0EAFA00F044FB52
:1023B0000446019800F0D2FA114B002C18BF1C46BD
:1023C000A421284603F003F9204603B0BDE8F083BA
:1023D0000C4CF9E70C4CF7E70C4CF5E7084CEFE731
:1023E00090B00250246000009C600000E45F000098
:1023F0008860000048600000686000000460000021
:102400008408F0007608F0008008F0008108F000F1
:102410000C4BC2691A60826943F8042C426943F884
:10242000082C026943F80C2CC26843F8102C82680F
:1024300043F8142C426843F8182C026843F81C2C0B
:10244000704700BF5CB602500C4B1B68C3610C4B5D
:102450001B6883610B4B1B6843610B4B1B6803615B
:102460000A4B1B68C3600A4B1B688360094B1B68DF
:102470004360094B1B680360704700BF5CB60250A5
:1024800058B6025054B6025050B602504CB60250E4
:1024900048B6025044B6025040B6025030B102680D
:1024A000034B04489A4208BF002070470248704717
:1024B000DD55AABB0202F0000002F00038B5044668
:1024C00068B1051D7021284603F081F828462022B6
:1024D000044903F078F8044B2360002038BD03481A
:1024E000FCE700BFB0600000DD55AABB0002F000B1
:1024F0002DE9F043284B04460E4615460FCB85B018
:102500006F4687E80F002DB94FF00009484605B027
:10251000BDE8F0832046FFF7C1FF81460028F5D1D2
:10252000231D0193636AA3BB236F8BB1C3F14008E2
:10253000A84528BFA84604F1300031461844424659
:1025400003F041F8236F434446442367A5EB080595
:10255000226F402A06D104F13001384600F0AEFB6C
:102560000023236705F03F0835F03F0505D03146CD
:102570002A46384600F0A2FB2E44B8F1000FC3D023
:102580004246314604F1300003F01DF8C4F8708073
:10259000BCE7DFF80890B9E75C5C00000C02F000D3
:1025A0002DE9FF41144B04460E460FCB6F4687E8DA
:1025B0000F002046FFF772FF8046B0B9CEB1636AC4
:1025C000251D01953BB901236362226F04F130019F
:1025D000384600F073FB2B46043E243453F8042B9A
:1025E00012BAA34246F8042FF8D1404604B0BDE821
:1025F000F081DFF80880F8E75C5C00000502F0007D
:10260000084B1B681B0EF02B08D1074B1A68074BB1
:102610009A4205D1064B002018607047052070478C
:102620000620704728B9025024BA02500000E0206A
:102630000CBA0250002230B549001346023840F669
:10264000FC7502F1A05404F52C44A400904202F160
:102650000102CABF236025605B181E2AF1D1044A1B
:1026600013600B445360034B034A1A6030BD00BF34
:1026700078B0025084B0025020F80F0030B51E4BE5
:1026800085B01A46196800910099CC07FAD500F177
:10269000A05000F52C408000016813680193019B55
:1026A000D807FAD5154B164C1868164D1F30202345
:1026B00090FBF3F00138002810DA002301304001CC
:1026C00053B1A0F120014FF00042134204D1013870
:1026D00088424FEA5202F8D105B030BD1368039327
:1026E000039BDB07FAD5431823602B680293029BF8
:1026F000002BE3D10138DEE7B4B00250ACB0025099
:10270000E4B00250DCB00250F0B51D6885B001F0B5
:102710001F040DB91F2C25D1154D2E462F6801978A
:10272000019FFF07FAD500F1A05000F52C40800072
:10273000006835680395039DED07FAD50D4D00EB54
:10274000611028600C48006802901F2C18BFC94314
:1027500002980FBF106001F01F0100FA01F1116033
:102760000021196010684300C00F136005B0F0BD70
:10277000B4B00250E4B00250DCB002500C4B186010
:102780003F3020F03F008901403058609960D960A7
:102790001961596199611C330648196082B0026859
:1027A0000192019AD207FAD5196002B0704700BFB2
:1027B00090B00250B4B0025038B5A0F12003B3F588
:1027C000426F05462CD88F2826D800F1470300F128
:1027D0006604DB064FEA541400D0013464013F3430
:1027E000A409013411B1A1421AD30C46E3004FF4FD
:1027F0008050B0FBF3F0202828BF202002B11060E9
:10280000084B01221A602146FFF714FF2846214693
:10281000FFF7B4FF002038BD00F11F046409DDE7B5
:102820000148F8E71CB802502221F000F0B5454BF2
:1028300089B01D461C680194019CE407FAD5424BFF
:10284000DFF80CE1DFF80CC113449B0000241A6888
:102850000B181E2B88BFC0F11E011F320B18520926
:102860005343B3F5806F82BF4FF48061B1FBF2F147
:10287000091A00F1A05000F52C402746A14233DC94
:102880002B680493049BDB07FAD5304B1B6829683F
:1028900005910599CF07FAD52D4C2E4923600023C9
:1028A0001E46934203F1010040D120F00102294865
:1028B000194600268A423CD8296806910699CE0717
:1028C000FAD525490968286807900798C007FAD5FE
:1028D0002160204800210C468B422DD11D4900204B
:1028E0009A422CD809B0F0BD2B680293029BDB07FB
:1028F000FAD503199B001B682E680396039EF60702
:10290000FAD5CEF800300023934203F1010306D13B
:10291000164623F00103B34204D80134AEE7CCF8E5
:102920000070F1E7CCF800700136F4E70E60034662
:10293000B7E706600131BDE704600131CCE708600C
:102940000133CDE7B4B0025024AC00147CB0025087
:10295000D4B00250D8B0025078B0025008B540B19F
:10296000202801464FF0070228BF20210020FFF752
:102970005DFF024B00221A6008BD00BF1CB8025068
:10298000F0B5294D85B02C462E680096009EF607BE
:10299000FAD500F1A05000F52C40800005682068B1
:1029A00001900198C707FAD52048214F056002EB36
:1029B0008306B24229D15A1C1D4E22F00102002783
:1029C0009A4227D823680293029BDE07FAD5194B57
:1029D0000B449B001B681F335B099A4213D221688A
:1029E00003910399C907FAD5154400219B1A104A8F
:1029F000056008468B4210D85A1C0D4922F001028E
:102A000000209A420CD805B0F0BD52F804CBC7F8AC
:102A100000C0CEE737600133D2E710600131E9E74B
:102A200008600133EDE700BFB4B00250D4B00250EB
:102A3000D8B0025024AC00142DE9F041814B1D6840
:102A400098682033A0B01E461A680192019AD707F1
:102A5000FAD57D4B7D4A1A6032680292029AD407F9
:102A6000FAD57B4A1A607B4A144611680391039990
:102A7000C907FAD5784A1168C1F34021376804972D
:102A8000049FFF07FAD5754F1F6027680597059FBC
:102A9000FF07FAD51768002900F0CF80B90540F18B
:102AA000CC80316806910699CF07FAD56C49196038
:102AB000216807910799C907FAD51168C1F3402128
:102AC00037680897089FFF07FAD5664F1F60276889
:102AD0000997099FFF07FAD51268002900F0AF8017
:102AE000910540F1AC8032680A920A9AD207FAD571
:102AF000564A1A6032680B920B9AD707FAD55A4A8F
:102B00001A6031680C910C99CC07FAD557491960B5
:102B100031680D910D99C907FAD555491960316889
:102B20000E910E99CF07FAD55249196031680F916D
:102B30000F99CC07FAD550491960504B1E461968B9
:102B400010911099C907FAD53F4C4D4B236033685B
:102B50001193119BDB07FAD54A4B2360336812931C
:102B6000129BDF07FAD5484B23603A4B9846196809
:102B700013911399C907FAD5324F3860336814930B
:102B8000149BDB07FAD5226033681593159BD80791
:102B9000FAD53E4B236033681693169BD907FAD5B6
:102BA0003B4B236033681793179BDA07FAD5394BF1
:102BB000236033681893189BDB07FAD5364B2360E4
:102BC00033681993199BD807FAD5344B23603368BF
:102BD0001A931A9BD907FAD5314B236033681B939C
:102BE0001B9BDA07FAD52F4B236000F01DFC08BBB6
:102BF000D8F800301C931C9BDB07F9D53D60336887
:102C00001D931D9BD907FAD5274B236033681E936C
:102C10001E9BDA07FAD5254B2360D8F800301F93A6
:102C20001F9BDB07F9D50C4B1B6813F4805F204B0F
:102C300008BF184620B0BDE8F0811E48FAE71E48DC
:102C4000F8E700BF90B0025080B00250001002516F
:102C5000C01F7229B4B0025088B00250C0CF012901
:102C6000C01F0E29C03F002940010249003184A83D
:102C700000001649400108A180440888B0B0025005
:102C8000C044708880077A41C0077E4100006A49CD
:102C90008006164940006E49000200210082202172
:102CA000408220218082242140A161A100C861517D
:102CB0000308F1000108F1000208F1002DE9F74FC7
:102CC000314B44688046924699461A68002AFCD1E6
:102CD0002E4B9B461A68002AFCD14FF0FF30019121
:102CE00000F094FC802000F097FC294D294A2A4FDF
:102CF0002A4E012307202B60A2F59E72C2F83C01E8
:102D00001360636A3B60A36A3360D8F8003042F80E
:102D1000043CD8F80830204698470199D9F800308B
:102D2000002BFBD1BAF1000F20D11D4B04221A60F9
:102D3000D9F80030002BFBD1DBF800A0BAF1000F6E
:102D4000FAD1D8F80C30204698473B686362336864
:102D5000A362144BC3F800A0C3F844A1D9F8003013
:102D6000002BFBD12B6003B0BDE8F08F236A012B51
:102D700004BF0C4A13600C4B40201960C3F804A038
:102D800000F050FCD4E700BF10B9025020BC025044
:102D900018B8025000B90250CCB70250D0B7025058
:102DA000C8B7025084B6025028BC025010B5544B2C
:102DB00098B019461A680192019AD207FAD5514B78
:102DC000514A1A600A680292029AD407FAD54F4A09
:102DD0001A600A680392039AD007FAD54C48186023
:102DE0000A680492049AD207FAD54A4A1A600A6815
:102DF0000592059AD407FAD5474A1A600A680692DE
:102E0000069AD207FAD5454A1A600A680792079AC5
:102E1000D407FAD5424A1A600A680892089AD2077B
:102E2000FAD5404A1A600A680992099AD407FAD575
:102E30003D4A1A600A680A920A9AD207FAD53B4AB2
:102E40001A600A680B920B9AD407FAD5384A1A60AE
:102E50000A680C920C9AD207FAD5364A1A600A68A8
:102E60000D920D9AD407FAD5334A1A600A680E9269
:102E70000E9AD207FAD5314A1A600A680F920F9A51
:102E8000D407FAD52E4A1A600A681092109AD2070F
:102E9000FAD52C4A1A601A4B19461C681194119CD9
:102EA000E407FAD5174B1860086812901298C40707
:102EB000FAD51A600A681392139AD007FAD5124A03
:102EC0001A600A681492149AD207FAD51E4A1A6038
:102ED0000A681592159AD407FAD51C4A1A600A682E
:102EE0001692169AD007FAD5194A1A600A681792EC
:102EF000179AD207FAD5174A1A6018B010BD00BF4A
:102F0000B0B0025080B002500093652100043190AF
:102F1000409665900083612100C3302100C3649016
:102F2000008161900046102100811121004144215F
:102F300000C320290C4610C80086312100C360213F
:102F400040C12829409665210013319040962529DB
:102F5000594614C84004324910B5494B94B019463B
:102F60001A680092009AD207FAD5464B464A1A6070
:102F70000A680192019AD407FAD5444A1A600A688D
:102F80000292029AD007FAD5414818600A68039263
:102F9000039AD207FAD53F4A1A600A680492049A43
:102FA000D407FAD53C4A1A600A680592059AD207F6
:102FB000FAD53A4A1A600A680692069AD407FAD5F0
:102FC000374A1A600A680792079AD207FAD5354A33
:102FD0001A600A680892089AD407FAD5324A1A6029
:102FE0000A680992099AD207FAD5304A1A600A6823
:102FF0000A920A9AD407FAD52D4A1A600A680B92E7
:103000000B9AD207FAD52B4A1A600A680C920C9ACE
:10301000D407FAD5284A1A600A680D920D9AD20789
:10302000FAD5264A1A600A680E920E9AD407FAD583
:10303000234A1A600A680F920F9AD207FAD5214ADA
:103040001A600F4B19461C681094109CE407FAD5BF
:103050000C4B1860086811901198C407FAD51A60D3
:103060000A681292129AD007FAD5174A1A600A68AB
:103070001392139AD207FAD5144A1A6014B010BDED
:10308000B0B0025080B002508090652100040990D9
:103090004096659080806121802008218020649086
:1030A00000816190004610210081112100414421DE
:1030B00080202029024610C8008609218020602136
:1030C000402128294096652140962529594614C853
:1030D00010B5504B96B01C461A680192019AD2075F
:1030E000FAD54D4B4D4A1A6022680292029AD207D5
:1030F000FAD54B4A1A604B4A42EA80402268039252
:10310000039AD207FAD5186022680492049AD0076D
:10311000FAD5454A1A60A2F5800242EA8141226846
:103120000592059AD207FAD5196022680692069A86
:10313000D007FAD53D4A1A6022680792079AD1074C
:10314000FAD53B4A1A6022680892089AD207FAD543
:10315000384A1A6022680992099AD007FAD5364A85
:103160001A6022680A920A9AD107FAD5334A1A607D
:1031700022680B920B9AD207FAD5314A1A6022685C
:103180000C920C9AD007FAD52E4A1A6022680D923A
:103190000D9AD107FAD52C4A1A6022680E920E9A1F
:1031A000D207FAD5294A1A6022680F920F9AD007DF
:1031B000FAD5274A1A60216810911099C907FAD5E3
:1031C0001A60144B1A46196811911199C807FAD55B
:1031D000114B20491960116812911299C907FAD54B
:1031E0001D491960116813911399CC07FAD50B4941
:1031F0001960116814911499C807FAD51749196014
:10320000116815911599C907FAD5154A1A6016B0B3
:1032100010BD00BFB0B0025080B0025040044190D9
:1032200000862929D81001C8401441904014212952
:10323000401465210034409000310C90C0400C9047
:10324000C030202940960D9000416090031645C87B
:103250000086112100416021594644C84014459020
:1032600040142D9070B5264888B005460468009437
:10327000009CE607FAD52348234C0460234C44EA1B
:1032800083432C680194019CE407FAD50360930101
:1032900043EA824242F0104444F4C0442B68029353
:1032A000029BDE07FAD504602B680393039BDB07C0
:1032B000FAD5174B03608B0143EA814141F010437B
:1032C00043F4C0432E680496049EF607FAD50360C3
:1032D0002B680593059BDE07FAD5046041F0584141
:1032E0002B680693069BDC07FAD5016042F0584232
:1032F0002B680793079BDB07FAD5026008B070BD07
:10330000B0B0025080B00250C021022980710098F4
:1033100080611890354B8EB019461A680092009A59
:10332000D207FAD5324B334A1A600A680192019AE1
:10333000D007FAD5304A1A600A680292029AD20778
:10334000FAD52E4A1A600A680392039AD007FAD572
:103350002B4A1A600A680492049AD207FAD5294ABD
:103360001A600A680592059AD007FAD5264A1A60AB
:103370000A680692069AD207FAD5244A1A600A68A1
:103380000792079AD007FAD5214A1A600A6808926C
:10339000089AD207FAD51F4A1A600A680992099A50
:1033A000D007FAD51C4A1A600A680A920A9AD2070C
:1033B000FAD51A4A1A6008680B900B98C007FAD51C
:1033C0001A600A680C920C9AD007FAD5144A1A604F
:1033D0000A680D920D9AD207FAD5124A1A600E2188
:1033E0000D230F2200200EB0FFF73CBFB0B00250FB
:1033F00080B0025080430129406339218070012947
:103400008020542100D13490C0403490C030202915
:10341000C0530D9000413890832308C880E31021E9
:1034200000413821CF4308C82DE9F041012392B073
:10343000CDE90333624B1D461A680592059AD207FF
:10344000FAD5604C604B2360604B19461A680692AF
:10345000069AD707FAD55E4B1A68D60400F1A88001
:103460002A680792079AD007FAD55A4A22600A6852
:103470000892089AD207FAD51E68C6F30036002EC5
:1034800040F098801220FFF7F9F807461320FFF765
:10349000F5F887428CBF12201320FFF7EFF8471E84
:1034A000FFF738FF03AB01AA39461220FFF72CF9CA
:1034B00004AB804602AA39461320FFF725F900EB3A
:1034C0004800022832D003283ED0012874D12B684E
:1034D0000993099BDB07FAD53F4B23602B680A93BE
:1034E0000A9BD807FAD53D4B23602B680F930F9B9F
:1034F000D907FAD53A4B23602B681093109BDA0753
:10350000FAD5384B23602B681193119BDB07FAD552
:10351000354B2360013F25D51023192218210020A7
:10352000FFF7A0FE304612B0BDE8F0812B680B9388
:103530000B9BD907FAD52D4B23602B680C930C9B62
:10354000DA07FAD52A4BCFE72B680D930D9BDB07E3
:10355000FAD5284B23602B680E930E9BD807FAD51B
:10356000254BC1E703AB01AA39461220FFF7CCF87F
:1035700004AB044602AA39461320FFF7C5F810EB46
:10358000440402D1FFF712FCC4E7FFF7E5FC022C6C
:1035900008D0032C09D0012C10D117211620FFF7D9
:1035A00097FDB7E715211420F9E70F210E20F6E764
:1035B000124EB7E7124EB5E7124EB3E7124EB1E71F
:1035C000B0B0025080B0025000084A51B4B002506E
:1035D00088B0025000084E5100065A4940065E4924
:1035E000000442410014424940042E490006524959
:1035F0004006564900063A4940063E490608F10091
:103600000708F1000408F1000508F100014B1860FB
:10361000704700BF08BA0250014B1860704700BFE6
:1036200004BA0250034A13681842FCD0024A1060E0
:103630001846704700BA025008BA025010B50A4C3A
:1036400023681BB101232360002010BD00F048F85F
:103650000028F7D00138062803D8044B53F820007F
:1036600010BD034810BD00BF18060020D060000048
:10367000FE8FFFFFBFF34F8F0549064BCA6802F468
:10368000E0621343CB60BFF34F8F00BFFDE700BF85
:1036900000ED00E00400FA0510B40A4B0A490B4C97
:1036A0004FF0FE32C3F800244968C3F80424C3F87D
:1036B0000824C3F80C240023C4F800355DF8044B3B
:1036C000084700BF00B00250D004002000A0025004
:1036D000D0E90012014BC3E900127047D00400206A
:1036E00038B500F02FF820B1032400F063F820462D
:1036F00038BD00F031F898B900F0ACF898B90F4D2A
:10370000D5F828391B0EF02B08D1D5F8242A0C4BFC
:103710009A420AD0072400F017F8E6E70624FAE7F1
:103720000424204638BD0024F5E7012000F092F87B
:1037300004460028F7D1C5F80C0AD8E700B00250BB
:103740000000E0200020704700207047014BC3F8C4
:10375000040A704700B0025010B5114800F048F854
:1037600000B110BD0F4800F043F80028F9D10E4C0D
:10377000204600F03DF80028F3D10C4B0C481C60AB
:1037800000F036F801460028EBD100F02DF8044691
:1037900008B1204610BD00F03FF82046FAE700BF10
:1037A000E8040020E4040020E0040020D804002005
:1037B000DC04002008B5084800F024F8074800F0B1
:1037C00021F8074800F01EF8064800F01BF8BDE895
:1037D000084000F00BB800BFE8040020E40400201B
:1037E000E0040020DC04002000207047704700BF88
:1037F00008B5034B02681B6810689847002008BD95
:103800000005002008B5034B02685B681068984704
:10381000002008BD0005002070B5094C094D206945
:10382000AB68984718B1084B08485B689847084A46
:10383000EB68206900211160BDE87040184700BFA7
:10384000EC04002000050020D0040020EC60000003
:103850001C060020F8B51A4D1A4E0446B2682869B5
:103860009047E8B9184F3B684CB1A3B1012B19D070
:10387000013B3B602869F36898470020F8BD43B9D5
:10388000124A0121C2F800151149D1F81029002A65
:10389000FBD101333B60F368286998470020F8BDED
:1038A0000C48F8BD0A4AD2F81039002BFBD1074A60
:1038B0006FF07E40C2F80035FFF748FF3B68D7E75E
:1038C000EC040020000500201C06002000A002508F
:1038D00000B00250E98FFFFF10B5044650B1636895
:1038E00013F0685F05D0064A934202D0002323609C
:1038F000626010BD034B04485B689847EFE700BF68
:103900002C5F5CA9D00400200C610000C8B14368A2
:103910000D4A934213D013F0685F0ED0012350E894
:10392000002F194640E8001C9CF0000FF7D1012A37
:10393000F5D0BFF35F8F00207047044870470448FC
:1039400070476FF4E04070472C5F5CA9E98FFFFF80
:10395000EA8FFFFF80B14368094A93420AD013F00F
:10396000685F05D0BFF35F8F002303601846704780
:1039700004487047044870476FF4E040704700BF48
:103980002C5F5CA9E98FFFFFEA8FFFFF10B50446AB
:1039900020B1044B63600022226010BD0248FFF793
:1039A0007BFEF6E73A00003A346100002DE9F04171
:1039B00001260746B24201DCBDE8F0813B461F46C6
:1039C00013F8014B002CF7D0252CF8D11C78252CAE
:1039D00007F10207F2D00023DFF804819C461D4660
:1039E0001F2D18D8A4F1200EBEF1100F09D9A4F193
:1039F000300EBEF1090F1ED80A2404FB03E3202574
:103A000004E028FA0EFE1EF0010F06D017F8014B55
:103A1000002CE5D128E07F2D1CD8A4F1300EBEF19A
:103A2000090FE9D9242C10D1BCF1000F46D0B342C4
:103A300046D00023EAE724F0040EBEF12A0FF8D0A6
:103A40006C2C09D145F08005E0E724F0040EBEF1AE
:103A50002A0FEED06C2C22D06C2C1BD8682C23D0D3
:103A60006A2C28D04C2C26D0BCF1000FA4D0B44531
:103A7000A0D144F02007A7F1650CBCF1020F0B6840
:103A800001D9612F1ED1073323F0070308330B60E0
:103A900001368EE7742CB9D07A2CB7D0E4E72C0627
:103AA00048BF45F40075CDE7EC0548BF45F4007507
:103AB00045F48075AAE745F42075A7E79C46B8E76A
:103AC0006324D6E7692C02D007D8632C03D02F06D5
:103AD00001D5AC05D7D40433D9E7732CF6E700BF82
:103AE000892801002DE9F04F93B043680193837852
:103AF00080469807CDE9061217D50B920B46002594
:103B00001F78A7B1252F16D001330593019B41469D
:103B100038469847002805F1010580F2358498F869
:103B2000023043F0040388F802304FF0FF35284696
:103B300013B0BDE8F08F5F789A1C252F0592E5D071
:103B400000242646A246A346BBF11F0F32D8A7F198
:103B50002003102B0AD8DFE803F02409092A0909F9
:103B6000091B09090922092709091900A7F13003CE
:103B7000092B2DD92A2F39D154B90B9B1BF0400F9B
:103B800053F8042B0B9329D0164601E04BF0010BA0
:103B9000059B13F8017B0593002FD5D15BE04BF01B
:103BA000020B4BF0040BF3E74BF0080BF0E74BF084
:103BB000100BEDE7BBF17F0F3FD8A7F13003092BC6
:103BC000D8D81BF0400F03D00A2202FB0636DFE7ED
:103BD0000A2202FB0A3A4BF0200BD9E7B2F1000AA5
:103BE000F9DACAF1000A4BF0280BD1E72E2F05D1E4
:103BF0001BF0400F9BD14BF0400BC9E7242F1CD189
:103C0000002C00F04181079B0B931BF0400F0AD161
:103C1000524606980BA9FFF7C9FE0B9B1A1DD3F855
:103C200000A00B92B4E7324606980BA9FFF7BEFE40
:103C30000B9B1A1D1E680B92AAE76C2F00F01181D6
:103C400000F20881682F00F014816A2F00F01981BA
:103C50004C2F00F0168134B1079B06980B93224637
:103C60000BA9FFF7A3FE002E47F02009B8BF2BF0E9
:103C7000400BA9F16503BCBF1FFA8BFB0026022B8A
:103C800040F20781B9F1610F40F06482FF4307F011
:103C9000200304930B9B073323F007031BF0400F13
:103CA00003F1080208BF4FF0FF3693ED000B0B92B3
:103CB0003146049A0CA801F006FE0130C3B2B342AB
:103CC0004BF4C054029301DB029B5E1E01230C9F48
:103CD0000393A3464FF0700907F10903122B0DD986
:103CE00007F16303C62B40F20D8107F2E73340F280
:103CF000CE72934294BF0323042303939DF8342090
:103D000002F00C0312F0010240F017811BF0020FC9
:103D100040F010811BF0040400F0F680002B40F00E
:103D20000F8120231BF4405F1FD1029A4832002EDE
:103D30006A4408BF0126133A029921B112F8011D05
:103D4000302900F034811BF0100F029A18BF324660
:103D5000391DC0F23181B74280F22E81BA424BF454
:103D6000005B40F32B817E1C961B1BF400520892D3
:103D700000F0268127EAE774013403B10134002EF4
:103D800000F02681721C1444A245CCBFAAEB0404A7
:103D900000241BF0090F04D12C44A54240F01D81E2
:103DA000002443B118464146019B9847002805F17D
:103DB0000105FFF6B4AE1BF4006F13D0019B414622
:103DC000302098470028FFF6AAAE049BC3F1780084
:103DD0004146019B00F0F8009847002805F10205D4
:103DE000FFF69DAE1BF0080F05D12C44AC4240F00D
:103DF000008125460024089B002B00F01A8127EA49
:103E0000E77AA7EB0A077642029BBB4284BF0CAB62
:103E1000FB180AF1FF3A88BF5879019B98BF302000
:103E2000564505F10109414600F3ED809847002809
:103E300007F10107FFF673AEBAF1FF3F08D1019B0E
:103E400041462E2098470028FFF669AE05F1020989
:103E50004D46D9E7742F3FF49BAE7A2F3FF498AECE
:103E6000F9E61BF0800F18BF4BF4007B4BF0800B82
:103E70008EE61BF4807F18BF4BF4007B4BF4807BF5
:103E800086E64BF4207B83E62646B3465446B2468C
:103E90007EE6FF4307F0200304930B9B073323F0D8
:103EA00007031BF0400F03F1080208BF0626B9F113
:103EB000650F93ED000B0B9211D1711C0022C9B25A
:103EC0004BF4805B1346112928BF11210CA800F088
:103ED000FBFAC3B2029302230C9F0393FCE6B9F1F1
:103EE000660F05D14BF4005B334601221121EAE74E
:103EF000F1B201294FF0000238BF012113464FF003
:103F00006509E0E70223F8E6002B3FF40BAFBAF1B6
:103F1000030F3BDC9DF83430A54E13F0080FA54B82
:103F200008BF1E463746B94617F8010BB0BBAE1B9B
:103F3000B1447BE033BB2B23F4E62BBB2D23F1E60E
:103F40002022BAF1040F13DD1BF0080FAAF10404BC
:103F50000FD12C44019B0292414620209847002813
:103F600005F10105FFF6DBADA542029AF2D19AB147
:103F70000024019B414610469847002805F10105A1
:103F8000C8DACCE52B22DCE72D22DAE71BF0080F9C
:103F9000AAF10304BED1DCE71446BBE7049BC01AB8
:103FA0004146019BC0B298470028BCDAB7E50299A8
:103FB0000139C9B20291BFE6561ED6E60026D4E604
:103FC0001BF4006F039A0CBF032405241444D4E6A9
:103FD0001BF0100F18BF0134D6E609934146019B30
:103FE000202098470028099B05F10105BFF6D5AEB2
:103FF00095E5019B414630209847002805F10105D1
:10400000BFF6F4AE8BE598470028FFF688AD1BF0AD
:10401000100F0BD0BAF1FF3F08D105F1020941465C
:104020002E20019B98470028FFF679AD4D464C4461
:1040300032E29DF83500019B414698470028FFF683
:104040006EAD002E69DD019B41462E209847002869
:10405000FFF665AD4FF0010A029B9A45BBBF0CAB62
:10406000534430205879019B414698470028D34655
:10407000FFF655AD0AF1010A5645EDDA02355D4409
:10408000049BA9EB03004146019BC0B2984700285E
:10409000FFF645AD002FB4BF2D202B20019B4146DC
:1040A000B8BF7F4298470028FFF639AD039B042B29
:1040B00041D14FF47A79B7FBF9F606F13000019B54
:1040C0004146C0B29847002805F10305FFF627AD29
:1040D00009FB16774FF06409B7FBF9F606F13000DB
:1040E000019B4146C0B29847002805F10105FFF643
:1040F00016AD09FB16774FF00A09B7FBF9F606F182
:104100003000019B4146C0B29847002805F10105E7
:10411000FFF605AD09FB167715E01BF0100F01D176
:104120000135ADE7019B41462E209847002805F157
:104130000205A5DAF3E4039B032B05F10205C9D0C0
:10414000039B012BD7D107F1300005F1010941464E
:10415000C0B266E7A7F16303122B00F2FE80DFE82E
:1041600013F013005600FC00FC00FC00FC0056009D
:10417000FC00FC00FC00FC00FC001601F700FC0049
:10418000FC002B00FC00B8000B9B1A1D1B680B9257
:104190008DF8303001240CAF1BF0080F2DD03E19E4
:1041A000B946B1452BD1EF1BB944AAEB04043DE756
:1041B000C16A0000BD6A00000B9B1A1D0B921F68AC
:1041C000AB4B002F08BF1F461BF0400F14BF3146FA
:1041D0004FF0FF31384601F04BFA0446DCE7019B13
:1041E0004146202098470028FFF699AC013EB44292
:1041F000F5D35544AD1BB246D1E75646F7E719F85B
:10420000010B019B414698470028CADA87E41BF05E
:10421000800F0B9B35D01BF4007F2DD0073323F08C
:104220000703D3E9000103F108020B922BF01009F8
:1042300000291FFA89F936DA404261EB410149F45D
:1042400080690DF1300B0A235A4601F01DFA19F06E
:10425000400FA0EB0B0B65D029F001025E4592B236
:1042600040F3B280002F00F0A98019F0100334460B
:10427000914626D002345CE01A1D18680B92C117D3
:10428000D4E71A1D1BF4807F19680B9201D10846F0
:10429000F5E71BF4007F15BF48B208B241F3C01127
:1042A00041F3C031C2E750EA0103CAD11BF0400F0D
:1042B000C7D0002EC5D12BF0110B1FFA8BF9344655
:1042C000B34640F2064319EA03031CBF013400233E
:1042D0002FE02BF0100B1FFA8BFB0A231BF080043E
:1042E0000B9A57D01BF400711DBF073222F0070252
:1042F00002F10801101D19BF0B91D2E900010B90CA
:10430000106850EA010252D12BF016091BF0400F41
:104310001FFA89F94FD0002E4DD12BF0170B1FFA41
:104320008BF9B34619F0100352D0002F4ED10BF188
:10433000010419F0080F5ED119F0010F06D0A24553
:104340006EDDAAEB040404EB0B06544622464DE056
:104350004BF0100B10237827C0E7B9F1780F04D188
:10436000C7F1780343F01003B8E7019B41462520CD
:1043700098470028FFF6D3AB019B41463846984743
:104380000028FFF6CCAB0235059BFFF7B9BB08232D
:104390000027A3E7111D0B911BF480711068B0D0AA
:1043A0001BF400711ABFC0B2214680B2A9E72BF0FE
:1043B000060B1FFA8BF90DF1300B45E729F01109B7
:1043C0001FFA89F934467CE79146ABE75C4651E732
:1043D0005C4676E7CDE902234146019B20209847C1
:1043E0000028FFF69CAB029A039B01329245F1DC58
:1043F0002C1BA5181446F3B1019B41463020984769
:104400000028FFF68CAB6FB90135A9462E44A6EB08
:1044100009035B4521DC5D460CAE5DBBD944C4E6B7
:104420005E4693E7023541463846019B984700288F
:10443000EBDAFFF774BB40F2064319EA030FE4D04E
:1044400019F0020F14BF2B20202019F4806F05F102
:104450000105414618BF2D20E7E7019B414630206A
:104460009847002809F10109D1DAFFF758BB00BFCE
:10447000C56A0000013D019B705D414698470028D8
:10448000CBDAFFF74CBB019B414620209847002820
:1044900005F10105FFF643AB631B002BF3DC73E76B
:1044A0001FB502AB0093074A4FF0CC3301F0D1F9AE
:1044B000DDE90201C00840EA4170C90805B05DF8B5
:1044C00004FB00BFCDCCCCCC2DE9F04F55EC104B0C
:1044D0009DB0CDE90C322A460B91C5F31303290D8B
:1044E000D20FC5F30A5507908DED050A0A9275B9EA
:1044F00022461A431BD1302343710A9B056043F0C7
:1045000002030371012738461DB0BDE8F08F40F269
:10451000FF7295424DD1059A13430A9B079A14BF27
:1045200043F0080343F0040313710027EBE7059AF7
:10453000B24D02F001020992059A4FEA830848EA57
:104540009278970001229A461646C5F1000B58460C
:10455000089200F017FAB5F1FF3FACBF8146A0F119
:104560000109ABEB090B09EB05035846069300F074
:104570000FFA18A9A0F17D05584600F029FA14ABEE
:10458000089A0193A9EB050512AB029200930598D6
:104590002B4618AA514601F09FF8B9F1010F0446C5
:1045A0000D4600F2D880099B002B40F0CB800127FC
:1045B0006FE0059A02F001020992059A43F4801A0D
:1045C0004FEA8A081343A5F2354548EA92784FEA44
:1045D00082074BD140F2FE7319420CBF0126002620
:1045E000002D3246B1DB284600F0C6F90346032D04
:1045F000C8BF013B1846069300F0CAF9069B7C3001
:104600005D1B054418A9184600F056FA14AB019337
:1046100012AB0093059802962B4618AA514601F05A
:104620005BF8069B152B04460D4600F2888016ABFE
:10463000734A009338464FF0CC33414601F009F9F4
:10464000169B179A9B0843EA827303EB8303BB42D2
:10465000DDE9129A0CD13846414600F0A1F9069BDB
:1046600083428CBF00270127002612E00126B7E70E
:10467000099B002B53D1013F48F1FF31B81B61F179
:10468000000100F08DF9069B099F83428CBF002634
:1046900001260D9B002B40F09380DDF82CB04FF0ED
:1046A0000008CDF82080CDF814804FF00A0ADDE92B
:1046B0001201FFF7F5FE149B1093CDE90E01184689
:1046C0001599FFF7EDFE0E9B0F9A119198420B463C
:1046D0009341814680F08E8020462946FFF7E0FE18
:1046E000109A0AFB09F3934214BF002606F0010654
:1046F0000E9B12930F9BCDE91339119B1593089BC9
:10470000B8F1000F14BF002707F0010701330AFBBF
:1047100010485FFA88F8089304460D46C7E7B81CAE
:1047200048F1000100F03CF9069B83428CBF002059
:104730000120B9EB00006AF10002CDE91202002766
:104740003E46A6E7129B139A013B42F1FF32CDE9A8
:104750001232012788E7B9F13E0FF0D84FF0FF334E
:10476000A9F1200003FA09F203FA00F0C9F12001CF
:1047700023FA01F102430A4303FA09F327EA030784
:1047800028EA020857EA08070CBF012700276BE751
:1047900000FB02FCA1FB0012013362448C4275EB6A
:1047A000020CF5D2069A13440C9A1344D20F93428A
:1047B000B8BF13460B9A9A42A8BF1A4693466EE7B3
:1047C0000A21002201230846E8E70AFB03F0A2FBC6
:1047D0000A2301310344944275EB0300F5D2594595
:1047E00010DDBBF1000F02D154EA05030AD001230A
:1047F000059371E70A2200230121ECE7CCFBFFFFC0
:10480000CDCCCCCC7EB34FF00A0A149B15990F93F4
:104810001846FFF745FE0F9B0E910AFB00F29A42E5
:10482000814620D1DDE91201FFF73AFE10900F9189
:1048300020462946FFF734FE0F9B109A1292CDE9CD
:1048400013390E9B1593089BB8F1000F14BF002776
:1048500007F0010701330AFB10485FFA88F8089354
:1048600004460D46D1E7069B089A13449946002F4B
:104870005AD0B8F1050F57D114F001034AD1059A67
:1048800032B9DDE914239D4208BF94425FD0059BF5
:1048900018194FF00A0445F10001002201262546AF
:1048A000A04271EB020755D2F3B1B3451CDA0D9B60
:1048B00073B10C9A06EB09031A441346012A0B9AAA
:1048C000B8BF01239A42A8BF1A46964293460BDD11
:1048D00005304FF00A024FF0000341F10001FBF7F1
:1048E00033FD09F10109013E5E45A8BF5E4637B2BE
:1048F0000FFA89F9079B09FA86F607F10508013EC8
:1049000098444FF00009B9452BDB079B0A9A1E60BB
:104910001A71F8E5059B2BB9DDE914239D4208BF08
:10492000944209D00123B3E7059B53B9DDE9142371
:104930009D4208BF944204D1099B002BF2D1002E66
:10494000F0D0B8F1040F94BF00230123A0E74FF08B
:104950000408F1E705FB02F7A4FB054201363A44DF
:104960009EE70A220023FBF7EFFC303208F8012D06
:1049700009F10109C7E700BF014B5843800C70479C
:1049800041340100014B5843000D7047FB2E0B00D2
:10499000024B5843C00C0130704700BF4F931200C8
:1049A0000A4A70B503464FF0CC3600204FF033353D
:1049B00006FB03F402FB0144A3FB023121449D42A8
:1049C00075EB010401D30130F2E770BDCDCCCCCC46
:1049D0002DE9F04F1A23354EB0FBF3FA03FB1A030F
:1049E00089B004460D4606EB0A1653B9D6E90023F2
:1049F000C1E90023D6E90201C5E9020109B0BDE819
:104A0000F08F2B4A02EBC303D3E9008904AB009378
:104A1000D6E902234046494600F01BFF06AB00934F
:104A2000D6E9002383460F464046494600F011FF71
:104A3000DDE9066216EB0B0652EB07084FF00003A8
:104A400028BF0123814633B1049B059A013342F10B
:104A50000002CDE9043220460391FFF799FF074693
:104A60001A2000FB0AF0FFF793FF3F1A3246434635
:104A700003990097484600F007FF4FEA141C0D4ABF
:104A8000640004F01E0352F82C40DC4004F00304E0
:104A9000241841F10001C5E90041DDE90423009734
:104AA0003046414600F0F0FEA6E700BF485D00003A
:104AB000785C0000586100002DE9F04F1A27DFF8FC
:104AC000ECA000F11905B5FBF7F56F433A1A4FEA70
:104AD000051B89B004460E460AEB05150AD1D5E937
:104AE0000023C1E90023D5E90201C6E9020109B0AA
:104AF000BDE8F08F2B4B03EBC203D3E9008904AB75
:104B00000093D5E902234046494600F0A2FE5AF838
:104B10000B206B68013ACDE9020106A963F100039D
:104B200000914046494600F094FEDDE906528A466F
:104B300002996D18039952EB01084FF0000328BF4A
:104B40000123814633B1049B059A013342F10002EF
:104B5000CDE904323846FFF71BFF07462046FFF732
:104B600017FF3F1A2A46434600974846514600F031
:104B70008BFE4FEA141C0C4A640004F01E0352F82A
:104B80002C40DC4004F003040134241841F10001FE
:104B9000C6E90041DDE9042300972846414600F0BC
:104BA00073FEA2E7785C0000AC610000185E0000B4
:104BB0007047836800EBC101B3F5004F2CBF51F87B
:104BC000220031F81200704700EBC1018068B0F597
:104BD000004F2CBF41F8223021F81230704708B541
:104BE0000122FFF7E6FFD04008BD8368B3F5004F10
:104BF00000EBC10108D34B681AB143F001034B60CD
:104C0000704723F00103FAE74B881AB143F0010320
:104C10004B80704723F00103FAE753000122FFF7AE
:104C2000D3BFB0F5004F34BF04230823481C08331A
:104C3000A0EBD300B0FA80F0C0F11F0070472DE95F
:104C4000F0410D4686680446FFF7C9FFB6F5004FF0
:104C5000014601D3012832D03046FFF7E2FF04EBD2
:104C600080010E6996B9E368012282401343E36034
:104C700002220D612B4629462046FFF7A5FF03229D
:104C800029462046BDE8F041FFF79EBF022231468B
:104C90002046FFF78EFF2946034607462046FFF7CA
:104CA00093FF0322334629462046FFF78DFF3946FE
:104CB0002B462046FFF788FF02223146E1E7BDE898
:104CC000F081B2F5802F2CBF08230423D21A2DE9DE
:104CD000F0418C18CD1D25F0070524F00704641B56
:104CE0000026E40805602146AC60EE602046FFF730
:104CF00098FF421D9200013002F107074FEAD707E3
:104D0000A2F110023146B8BF324605F1100000F0A2
:104D100097FC3A4631462846FFF77FFF3346324636
:104D200031462846FFF750FFA4EB070828463146D6
:104D30000122FFF75AFF42463946FFF76EFF3B4616
:104D4000324639462846FFF73FFF21462846FFF7FF
:104D500064FF4346324621462846FFF735FF214689
:104D600028460122FFF741FF3946BDE8F041FFF731
:104D700066BF002070470FB407B504A951F8040BB3
:104D80000191FBF7FDFC03B05DF804EB04B0704744
:104D900038B50C46054658B151B10B6843B14B6864
:104DA00033B11C22002100F04BFC2C61002038BDE7
:104DB0006FF01500FBE770470FB407B504A951F871
:104DC000040B0191FBF7DCFC03B05DF804EB04B0CD
:104DD0007047FEE77047012801D1EFF3058300F02B
:104DE000A9BB01460068FFF7F6BF08B5FBF7F4FC66
:104DF000BDE8084000F000B8704700210120FFF72F
:104E0000EABF61B662B680F31188BFF36F8F704757
:104E1000EFF31180202383F31288BFF36F8F704765
:104E200008B5FBF72FFF002008BD0369C9B20C22AB
:104E300001FB0233186C00F00700704770B5C9B26F
:104E40000369EFF31185202484F31288BFF36F8F79
:104E50000C2606FB0134246C14F0C00408D0A242D6
:104E600006D085F31188BFF36F8F4FF0FF3070BD10
:104E700071430B4401221A6485F31188BFF36F8FCD
:104E800043680B445B6898470020F0E78022FFF7F7
:104E9000D5BFF8B5069F0469C9B2EFF31186202586
:104EA00085F31288BFF36F8F0C2569430C44256C82
:104EB00005F0070CBCF1010F0BD1276486F31188B4
:104EC000BFF36F8FC4E90E2343685B5898470020F7
:104ED000F8BD05F0C005AF4286F31188BFF36F8FB0
:104EE0000CBF6FF077004FF0FF30F1E713B580246F
:104EF0000094FFF7CEFF02B010BD6FF08500704741
:104F000010B40069CBB21C2403FB040000215DF83F
:104F1000044B10470020FCF7FBBF002000F0C2BA92
:104F200030B543681360057A446804EBC504A342B6
:104F300002D36FF0010030BD5C798C4201D00833A0
:104F4000F0E70020F7E743681B68D3F88004C3F854
:104F50008004704742681368D3F8100150B1D269D9
:104F6000002012780A70C3F81001D3F81021012232
:104F70001A6070474FF0FF30704702680346D2F85E
:104F8000580140B95B68DB0706D4D2F8200100382D
:104F900018BF012070470120704743681B68D3F891
:104FA0000423D20517D5D3F82021A2B1EFF3118243
:104FB000202181F31288BFF36F8FD3F8201131B114
:104FC0000021C3F82011D3F820110121D96082F308
:104FD0001188BFF36F8FD3F85831704773B505460A
:104FE00001A80C461646FCF775F970BB4FF08053CC
:104FF0001969B5FBF1F201FB125242BB1969B4FB0E
:10500000F1F201FB124212BB1A695B695343A342DE
:105010001DD3E4B1019B1B0103F1804101F5F03187
:10502000C1F80058C1F80448C1F80868D1F8002850
:1050300095420FD1D1F8042894420BD1D1F8083809
:10504000DBB2B34218BF6FF00D0002B070BD6FF05D
:105050001500FAE76FF00D00F7E70222FFF7BEBF79
:1050600030B589B0154601230A460146684600F06E
:10507000DAF8044640B9202269462846FBF736F99B
:10508000002808BF6FF06404204609B030BD2DE948
:10509000F04190B004469DF85C60884615461F4676
:1050A00001463346402208A800F0BDF838B9102266
:1050B00008A94046FBF71AF920B96FF0640010B058
:1050C000BDE8F081169A33463946684600F0ABF8E1
:1050D0000028F4D12022334669460DEB020000F08F
:1050E000A2F80028EBD120212B4622460DEB01002F
:1050F00000F01CF8E3E713B501240194049C00942C
:10510000FFF7C5FF02B010BD08B500F00DF808B9F3
:1051100000F068F808BD13B500240194049C0094C5
:10512000FFF7B5FF02B010BDFCF7B4B9F0B5ADB0F4
:10513000144606460F461D46FCF79CF933462146A9
:105140002A46009703A800F027FA0446FCF79AF9CC
:10515000A4F57003A3F676030E2B0DD8DFE803F059
:10516000080C0C0C0C0C0C0C0C0C08080C080E0099
:105170006FF015002DB0F0BD2046FBE76FF0650025
:10518000F8E72DE9F84F9A421546904681468A463F
:105190001E4628BF9846FCF76DF9AB460027AF4284
:1051A00005D30024FCF76EF92046BDE8F88F0A9B72
:1051B0000AEB07013BB108F1030222F00302184693
:1051C00000F024FA0A9942464846FDF791F9044650
:1051D0000028E7D1ABEB080B5E45B046374428BF4B
:1051E000D846DCE7FCF756B90123FCF771B938B5AE
:1051F00004460D46FCF73EF929462046FDF7D0F956
:105200000446FCF73FF9A4F57003A3F50073052BE2
:1052100004D8252222FA03F3DB0701D4204638BD47
:105220006FF01500FBE7F0B59FB0044601A80D46EE
:1052300016461F46FCF77EF950B93B4632462946D2
:1052400001A8FCF745F918B9214601A8FFF7CFFFDF
:105250001FB0F0BD70B5054608460C46FCF78AF94C
:105260002146024601232846BDE87040FCF7E8B914
:105270000A4600230146FCF7E3B92DE9F0414FF45B
:10528000004314221B6B48F2340502FB035507460A
:10529000284600F027F9012803D000242046BDE865
:1052A000F0812C1D4FF00008AE1C304600F01AF9BA
:1052B0004045F2D9A01C00F015F90546204600F043
:1052C00011F98742EAD0023504EB450408F10108E0
:1052D000EBE74FF40043986A70474FF40043D86AF5
:1052E00070474FF40043186B70472DE9F0414FF4BD
:1052F00000473B6B102B1BD848F2480500244FF6A3
:10530000FF783B6B9C4202D30020BDE8F081204631
:10531000FCF746FB48B1A5F11006304600F0E2F874
:10532000404508D00236AE42F7D101341435E8E7E3
:105330006FF01500E9E76FF07000E6E7F8B5044696
:105340000D46FCF72DFB08B34FF400431B6B9C424A
:105350001FD214235C430434002248F23406A318FD
:105360000021F758C2F11003032B94BF002301233F
:105370009B00C80027FA00F0685401319942F8DB1D
:105380001A440F2A1D44EAD91020F8BD6FF0150009
:10539000FBE76FF00D00F8E710B50C46FFF76DFF67
:1053A00058B154B1023000F09DF84FF6FF729042B0
:1053B00003464FF0000003D120806FF0150010BDB0
:1053C0002380FCE72DE9F8430D461646FFF755FF0D
:1053D000044600B3FDB1023000F084F80027814696
:1053E0000434B846BBB2994507D8002406B13460EE
:1053F000A5F800800020BDE8F883204600F072F890
:10540000C3439BB20137A21C002BEFD0984538BF95
:1054100098461446E6E76FF01500ECE70022FFF728
:10542000D1BF37B50D4601AA0DF10201FFF7CAFF42
:10543000044648B9BDF80230AB4208D2019848B1E1
:10544000E94389B200F03EF8204603B030BD6FF06A
:105450001504F9E76FF00B04F6E703463C305A6B8E
:1054600000239A4200D17047C16801330844F8E72D
:10547000FEF7E4B808B5FBF7A9F9FFF7ABFCBDE808
:105480000840FEF7DBB8004700F039B8C00000F173
:10549000804000F5F830C0F81015C0F814257047AA
:1054A000FCF7E2BDFCF7B0BC07B54FF0FF3301934A
:1054B00000F0030001AB184400F09AF8019803B023
:1054C0005DF804FB13B50222ADF806100DF10601DC
:1054D0000446FFF7E9FF014624F00300FCF7B6FDA0
:1054E00002B010BD20F0030382071B680CBF98B206
:1054F000180C704708B5FCF7F1FD002008BD08B195
:10550000FBF708BC7047704740B1C368587810F08B
:1055100001001EBF1878B0FA80F040097047EFF321
:105520001183202383F31288BFF36F8FFEE708B542
:10553000FFF7F5FF10B5EFF31184202383F31288F2
:10554000BFF36F8FFFF7F3FF84F31188BFF36F8F03
:1055500010BD10B5D0E9003433B90020E2685378AB
:1055600043F00103537010BD204698470028F4D043
:105570000028B8BF4042E368FF28A8BFFF2018708A
:10558000ECE700F05DB800F033B87047EFF305804A
:10559000003818BF012070472DE9F041069F0446EE
:1055A00015461E46FCF75AFE38B93B463246294698
:1055B0002046BDE8F041FCF777BEBDE8F0810A4621
:1055C0000021FDF7F9B800F013B800F039B80A4629
:1055D000002100F035B801EB820204388A4201D183
:1055E0000020704752F8043D1BBA40F8043FF5E72D
:1055F0000A44914200F1FF3300D1704710B511F811
:10560000014B03F8014F9142F9D110BD884210B50A
:1056100001EB020402D98442234607D8431EA1426B
:1056200008D011F8012B03F8012FF8E702440146D6
:105630008A4200D110BD13F8014D02F8014DF7E781
:1056400002440346934200D1704703F8011BF9E777
:1056500010B501390244904201D1002005E00378E1
:1056600011F8014FA34201D0181B10BD0130F2E721
:1056700010B5024601448A42134603D01C78013219
:10568000002CF8D1181A10BD2DE9F047C3F13709E5
:10569000074688465FFA89F903F01F0516464FF062
:1056A000000A384641462A465346FAF74DFED4B220
:1056B000092C88BF4C443A46434688BFE4B2AA420C
:1056C00004F1300473EB0A0306F8014B07468846E1
:1056D000E7D23046BDE8F0872DE9F04F89B00618D3
:1056E000994604AB41EB0104009315463046D2E9DC
:1056F00000232146DDF84CB000F0ABF806AB009378
:10570000D5E90223074688463046214600F0A1F835
:10571000DDE90463841951EB0306069BD5E900011A
:105720004FF0000228BF0122D218079B43F100036B
:10573000381848EB0101B84271EB0801E9680391A0
:10574000A96834BF0120002014EB010C039946EB3B
:10575000010110EB0C0041F10001A04271EB060CBD
:1057600034BF4FF0010C4FF0000CCDE90623A9F136
:10577000410A1CEB020243F10003CDF800A000F047
:1057800083F8129BC3E90001149B012BDDE906237A
:1057900029D1D5E90201D5E900C5201A66EB01013E
:1057A000674578EB050534BF01250025401B61F1F5
:1057B0000001844276EB010534BF01250025521B10
:1057C000CDF800A063F1000300F05EF8DDE90623E8
:1057D000CBE90001CDF800A02046314600F054F896
:1057E00009B0BDE8F08F17EB070E48EB080C201945
:1057F00046EB0601BE457CEB080834BF01270027B5
:10580000C71941F10008D5E9000186457CEB010C80
:10581000D5E9021534BF01200020381A68F1000CC8
:10582000401A6CEB050192185B41A74278EB060524
:1058300034BF01250025521943F10003874278EB5C
:10584000010834BF01250025521BA9F14005009530
:10585000B8E7F0B50F460446A0FB0201A7FB0252D1
:105860004919A3FB044542F10002A7FB0373611829
:1058700045F10004D219059E43F10003121943F1CA
:105880000003C6E90023F0BDF0B5059CC4F1400754
:10589000C4F1200602FA06F6A4F12005BB4022FA64
:1058A00005F53343C4F120062B4301FA06F6A4F1B3
:1058B0002005E04021FA05F53043BA402843E14095
:1058C00010431943F0BD2DE9F04357EC106B3B46F4
:1058D0003446C3F30A55C3F31303FE0F54EA030C13
:1058E000067140F2FF7707D0BD420CD146F00806A2
:1058F00006710020BDE8F083002D63D0BD425ED16B
:1059000046F00406F4E7002D59D10125A5F2FF3534
:105910000029056059DB0C2959DCC1F10D05AD00EA
:10592000012605F1FF3EA5F1210CC5F1210726FA5C
:1059300007F706FA0CFC06FA0EF64CEA070CB71944
:105940004CEB0C09D7F1000869EB490E013F49F116
:10595000FF39274009EA0309BE427CEB09090FDB46
:10596000C5F12009B5F1200703FA09F924FA05F574
:1059700045EA09055CBF43FA07F73D43ED0703D548
:10598000A619344643EB0C0304EA080403EA0E03A9
:1059900000F112050D260846C2F127024FF0300E25
:1059A00004F00F01240944EA037406F1FF3C1B11C3
:1059B0006F1EB1B9B0420CDA66463D46F0E743F4DB
:1059C0008013A3E72C462B46A2E70021E0E70D2138
:1059D000DEE785F800E01CF1010166463D46DFD1B7
:1059E00088E70929C8BF89183031B0422970B8BF8B
:1059F0003046F0E788A9FF7F01000000D10C0000CD
:105A000000000000D10D0000445A0000F5540000D1
:105A1000000000007154000000000000CD110000E3
:105A2000585A00000D0F000000000000AD0C0000EF
:105A3000000000007554000000000000ED1A000096
:105A400000000000D3630000385F0000EC5B000042
:105A50003005002044050020F6630000505F000080
:105A6000085C00003205002098050020B91F0000E6
:105A70008754000000000000FB4D0000585A000051
:105A80009B4F000000000000FB4D000000000000E4
:105A9000FB4D000000000000FB4D00000000000076
:105AA000FB4D000000000000FB4D00000000000066
:105AB000FB4D000000000000FB4D00000000000056
:105AC000FB4D000000000000FB4D00000000000046
:105AD000FB4D000000000000FB4D00000000000036
