:020000040001F9
:10520000804D002065760100EBAA01005176010077
:105210005176010051760100517601000000000036
:1052200000000000000000000000000041770100C5
:105230005176010000000000517601005176010016
:10524000AD780100AD780100AD780100AD780100C6
:10525000AD780100AD780100AD780100AD780100B6
:10526000AD780100AD780100AD780100AD780100A6
:10527000AD780100AD780100AD780100AD78010096
:10528000AD780100AD780100AD780100AD78010086
:10529000AD780100AD780100AD780100AD78010076
:1052A000AD780100AD780100AD780100AD78010066
:1052B000AD780100AD780100AD780100AD78010056
:1052C000AD780100AD780100AD780100AD78010046
:1052D000AD780100AD780100AD780100AD78010036
:1052E000AD780100AD780100AD780100AD78010026
:1052F000AD780100AD780100AD780100AD78010016
:10530000000000000000000000000000000000009D
:10531000000000000000000000000000000000008D
:10532000000000000000000000000000000000007D
:10533000000000000000000000000000000000006D
:10534000000000000000000000000000000000005D
:10535000000000000000000000000000000000004D
:10536000000000000000000000000000000000003D
:10537000000000000000000000000000000000002D
:10538000000000000000000000000000000000001D
:10539000000000000000000000000000000000000D
:1053A00000000000000000000000000000000000FD
:1053B00000000000000000000000000000000000ED
:1053C00000000000000000000000000000000000DD
:1053D00000000000000000000000000000000000CD
:1053E00000000000000000000000000000000000BD
:1053F00000000000000000000000000000000000AD
:10540000DEE61E284CBBCE8F023400008C0000006C
:10541000786E0000010000000052010000520100FF
:10542000FFFF0291000000000000000000000000EB
:10543000000000000000000002000000DEE61E2860
:10544000EAAC45B802340000280000000310000058
:105450000100000001000000FF000000010000004A
:10546000C04D0020DEE61E28EAAC45B8023400003C
:1054700028000000021000000000000001000000F1
:10548000FF00000001000000C44D002053B94AB9DC
:10549000002908BF00281CBF4FF0FF314FF0FF303C
:1054A00000F00CB8ADF1080C6DE904CE00F008F87E
:1054B000DDF804E0DDE9022304B07047704700BF67
:1054C0002DE9F04786468C460846089E15467446E8
:1054D0001946002B40F0C2808542B2FA82F245D9CB
:1054E0004AB1C2F1200300FA02FC2EFA03F3954000
:1054F00043EA0C0C94404FEA154EA8B2BCFBFEF8F0
:10550000230C0EFB18CC08FB00F943EA0C43994529
:1055100028D9EB1808F1FF3704D2994502D9A8F130
:1055200002072B44A3EB0903A4B2B3FBFEFC0EFB62
:105530001C330CFB00F044EA0344A04214D92C199C
:105540000CF1FF3304D2A04202D9ACF102032C4487
:10555000241A43EA07401EB1D4400023346073602C
:10556000BDE8F0874746DDE76346F1E792BB431BA2
:1055700001214FEA154EAFB2B3FBFEFC200C0EFB2F
:105580001C330CFB07F840EA0343984562D9EB183B
:105590000CF1FF3004D2984502D9ACF102002B4443
:1055A000A3EB0803A4B2B3FBFEFC0EFB1C330CFB05
:1055B00007F744EA0344A7424ED92C190CF1FF33F4
:1055C00004D2A74202D9ACF102032C44E41B43EA03
:1055D0000040C0E7C2F1200320FA03F1954090405B
:1055E0002EFA03F303434FEA154EAFB2B1FBFEFCB4
:1055F0000EFB1C10190C0CFB07F841EA0041884512
:1056000004FA02F422D969180CF1FF3004D288455B
:1056100002D9ACF102002944A1EB08019BB2B1FB15
:10562000FEFC0EFB1C110CFB07F743EA01439F42F3
:105630000ED9EB180CF1FF3104D29F4202D9ACF124
:1056400002012B44DB1B41EA004192E76046E3E79D
:105650006146F7E76046A3E76346B7E7834206D9AA
:1056600016B9002108467BE7C6E900E0F9E7B3FA7E
:1056700083F78FB9834201D3724508D8BEEB020489
:1056800060EB030301209C461EB9002168E7384601
:10569000FAE7C6E9004CF8E7C7F1200CBB4022FA54
:1056A0000CF41C432EFA0CF120FA0CF3B840014321
:1056B0004FEA14490EFA07F5B3FBF9F81FFA84FE16
:1056C00009FB18300B0C08FB0EFA43EA00439A451D
:1056D00002FA07F240D9E31808F1FF3004D29A45E4
:1056E00002D9A8F102002344A3EB0A0389B2B3FB59
:1056F000F9F809FB183308FB0EFE41EA03418E4519
:105700002CD9611808F1FF3304D28E4502D9A8F1D3
:105710000203214443EA0040A0FB0298A1EB0E01E2
:105720004145CE46434602D306D14D4504D2B9EB9E
:10573000020E68EB04030138002EA6D0B5EB0E0272
:1057400061EB030101FA0CFC22FA07F34CEA0303B4
:10575000F940C6E9003198E74046C5E74346D9E736
:10576000F0B5284B284AC3F8002685B0C3F80426B4
:10577000C3F80826C3F80C26C3F81026C3F814266D
:10578000C3F81826C3F81C2604F012FD01A800F087
:1057900007FF1E4B1B68834204D01D48452105F0BE
:1057A000FCF8FEE74FF4C0314FF4104005F019FC4F
:1057B000044620B11748452105F0EFF8FEE7694699
:1057C0009DF8080000F02AF8009B039D1D44019BF2
:1057D0001E8903F0AFF9AF1901F0DCF901F0B0F95F
:1057E00001F06AFFAB5983F3088884F31488BFF390
:1057F0006F8FBFF36F8F7B6898470748452105F08F
:10580000CCF8FEE7000001403546526E80060020CD
:10581000BAB90100DDB9010010BA010008B50246AD
:1058200038B105480023452105F0B7F86FF01500A1
:1058300008BD0860FCE700BF33BA010021B10129AF
:1058400006D06FF015007047044B53F830007047D6
:10585000024B03EBC0035868704700BF78B60100E5
:105860002DE9F04FFDB0DDE987899B46754B03902C
:105870003CA8899F1D680E46144603F091F9B8F1C3
:10588000000F07D0B9F1000F04DD4A4641463CA89D
:1058900003F094F933897289D6F80CA013449A4422
:1058A0004FF00008C2453DD80CA93CA803F08CF984
:1058B00027B120220CA9384605F075F90023009382
:1058C00022464FF6FF73314606A804F072FC0746E5
:1058D00028BB03980B9E214600F076F986421ED81D
:1058E000DFF864B1DFF864914FF0FF360DF1120379
:1058F00004AA05A906A804F0AAFC00280FDB40F0C2
:105900009A80059906A804F0EEFC10BBBDF81200C1
:105910004F4A4FF6FF7132F8023B8B4217D1494B89
:105920001D688BE0869BAAEB0809994528BF99461C
:105930004B465A464146204605F03DF80028EED138
:105940004A4659463CA803F039F9C844AAE79842A8
:10595000E1D1BDF81230102B17D0222B4DD0012BE6
:10596000C4D1BDF81030202BD9D805991CAA2046E7
:1059700005F021F806460028D1D19DF810A0BAF113
:10598000200F19D94FF0FF36B0E7BDF81070202F67
:10599000C5D105993B461CAA204605F00CF8002805
:1059A000BDD13A461CA90CA804F0D7FCDBF80030A6
:1059B0008342B4D1012799E7D9F80030DFF8948009
:1059C0000393039B9E42DDDA3CA803F0E9F8D8F884
:1059D000042058F8081B12683CA803F0EFF814A93B
:1059E0003CA803F0F1F852461CA914A805F0CBF826
:1059F00000283FF47BAF0136E3E7731C3FF476AF3A
:105A0000D9F80030B342BDDDBDF81030802B86D808
:105A100005991CAA204604F0CEFF00287FF47FAF32
:105A2000F6B2BDF8103000961CAA20210CA800F098
:105A300013F80546A6E7002F3FF471AF28467DB066
:105A4000BDE8F08FC40400208006002088B6010065
:105A50008CB901008CB601002DE9F04796B01646CE
:105A60001D469DF87820374BDFF8DC8053F8321064
:105A7000019103EBC20307465B68D8F800901868F1
:105A800002AA0144302301A804F02EFE002851D1BF
:105A9000DDE901431C4403AA06AB214601A804F03A
:105AA0004BFE002846D1049A072A43D1274905987E
:105AB00005F069F800283DD1079A082A3AD124490F
:105AC000089805F060F8A8BB02AA214601A804F0D6
:105AD0001FFE78BBDDE901A30AEB0302944229D142
:105AE000412B27D13544302303AA294602A8029628
:105AF00004F0FAFDE0B9DDE9023213449D4217D308
:105B00002A4602A906A804F0FCFB88B92A4602A985
:105B10000EA804F0F6FB58B99AF80030042B07D110
:105B200006AB0AF101022021384603F053F828B1F0
:105B3000D8F80090484616B0BDE8F087054BD3F87A
:105B40000090F7E78CB60100C404002062BA01009F
:105B500059BA010080060020094A0B78400052F82B
:105B600020108B4209D0013052F82000834214BF2C
:105B70004FF0FF304FF4C07070474FF4C070704763
:105B800094B601001FB5582303FB01006A46046A5E
:105B9000A16810231039204604F00DFF034640B1E0
:105BA00022780748452104F0F8FE0024204604B07E
:105BB00010BD04491022684604F0E5FFF6E700BF77
:105BC0006ABA0100AAB9010013B508460C4604F0F0
:105BD000CBFB6A460146204604F0D1FA30B10448B6
:105BE000452104F0DAFE002002B010BD0098FBE76A
:105BF00096BA010037B50346802293F8B840019267
:105C000008466200114951F82250A8420ED158218D
:105C100001FB043201FB0434526A283401A904F068
:105C20003CFF08B9019B236003B030BD013251F83D
:105C30002220904208D1582101FB043201FB043399
:105C4000126D03F15404E9E70120EDE7A4B6010069
:105C500070B590F8B850104E6D00044656F82510F7
:105C6000FFF7C8FF98B90135204656F82510FFF711
:105C7000C1FF054668B994F8B830582202FB0343C7
:105C8000186A04F0DAFEC4F8B400284670BD012595
:105C9000FBE70925F9E700BFA4B601002DE9FF479E
:105CA0004FF02C0990F8B8A009FB01F9582505FB25
:105CB0000A93034404461E6A30460F46904604F099
:105CC000C3FE94F8B83015FB039525446B1E0335CD
:105CD00013F8012F824224D19D42F9D187B1314678
:105CE000204604F010FC98F80730042B0DD194F8EE
:105CF000B830582202FB03432046196A04F003FC23
:105D0000254B186804B0BDE8F08794F8B80003F09C
:105D100033F80428F4D1EAE7204B18682BE0204A36
:105D200035E058212C2201FB0AF302FB0733E5186A
:105D30002869C206D2D4E2581A4B9A42ECD1EA68DA
:105D40002B899B18E8D26A89D218E5D2B3689A42A7
:105D5000E2D240F60C630340DED1CDE90233019379
:105D60000AFB01914FF48073009332460E4B21449D
:105D70002046FFF775FD0D4B1B688342C2D0002FF4
:105D8000CDD0B2680021304604F03FFE084A0948F1
:105D9000452104F002FEB3E7C0040020C404002043
:105DA000D1BA01003DB8F3960C1C002080060020FB
:105DB000D9BA0100E3BA010073B50D4690F8B820D6
:105DC000044600212846CDE9001104F08DFB58B3AC
:105DD00058235A43234EA358B34203D101AA204665
:105DE00004F0EAFA94F8B830582202FB0343DB6A65
:105DF000B34204D16A460121204604F0DDFADDE910
:105E00000032934288BF0193019BAB6094F8B86065
:105E1000154B9B5DBBB1012E1AD12046294600F0DF
:105E200047FE304601F044F911462046FFF7AAFE2E
:105E300005F10801064604F0A2FAAB68019330466A
:105E400004F0B8FDE2E7019A2946204600F022FD61
:105E5000064B1A68002A03DD0548572104F09DFD12
:105E600002B070BD3DB8F3960C1D0020401B002011
:105E70000BBB01007FB51B4B90F8B82006460D46C2
:105E800013F8320001A901F03DFA40BB019804F07B
:105E90006BFAD6F8B4100446284604F0A4FB044478
:105EA000019804F0CAFD0646019804F0CDFD0822D1
:105EB00001460DEB020004F081FE2B798DF80830CD
:105EC00021460198334602AA04F08AFD041E019877
:105ED00018BF012404F06EFD204604B070BD0124FB
:105EE000FAE700BFA4B601002DE9F84FDFF870B063
:105EF0001C4C1D4D884691469A4600260B9B9E429F
:105F000001D300200FE00B9B154A9F1BB7F5806F54
:105F100028BF4FF480673B4606EB0A01404604F079
:105F20004AFD10B10120BDE8F88F0A993B465A4658
:105F30007118484604F054FD0028F3D1C4F8005607
:105F40003E44C4F80456C4F80856C4F80C56C4F8C5
:105F50001056C4F81456C4F81856C4F81C56CDE7A9
:105F600084060020000001403546526E2DE9F04FB6
:105F70000026DFF8D8A2DFF8D8B295B004460D4667
:105F8000B146012E84F8B86014D9B9F1000F00F0C1
:105F9000F48100212C275826012984F8B81000F23A
:105FA000EC81631893F8B920002A00F09681013142
:105FB000C9B2F1E7A31993F8B930002B55D158278E
:105FC00007FB06410AEB86224A6202F500620A6577
:105FD000304619460393FFF731FC94F8B81007FBDD
:105FE000014180462031C0B201F08CF9039B70B9A9
:105FF00001213046FFF722FC94F8B81007FB01415D
:1060000080464C31C0B201F07DF948B10123CDE9A1
:10601000003042468F483346452104F0BEFCFEE77F
:106020002046FFF715FE064690B90022114620468D
:1060300004F01AFAF0B194F8B8205721584604F049
:10604000ACFC94F8B8302344012283F8B0200CE073
:1060500080228148572104F0A0FC94F8B830012236
:106060002344964283F8B020DFD194F8B86001361B
:10607000F6B286E7204604F0C9FA0028E1D00AA863
:1060800004F029FA0146204600F09AFA20B194F86B
:10609000B82072485721D2E70AA804F025FA80F008
:1060A00001010AAAC9B2204604F0DEF9024620B175
:1060B00094F8B82066485721C1E70AA804F014FAFA
:1060C000064600284CD194F8B8305BBB20460AA99C
:1060D000FFF772FE94F8B8009DF82F30221882F86E
:1060E000B030033B012B08D800F0C4FA28B194F873
:1060F000B8302344FF2283F8B0209DF82F3094F865
:10610000B800023B022B1ED800F09EFAD8B194F8DA
:10611000B8302344FF2283F8B0205148452104F0D1
:106120003CFCFEE794F8B020042A04BF012284F866
:10613000B020012BCAD094F8B130042BC6D1012372
:1061400084F8B130C2E794F8B830234493F8B03003
:10615000FF2BE2D000221146204604F085F970E7BB
:106160009DF82F30012B40F0A58094F8B8303D4FBA
:1061700007925821FA5401FB03433B4AD96AD3F8EA
:106180004C8091424BD1998E0423194407AA404672
:1061900004F011FC014600B3052794F8B8302344FD
:1061A00083F8B07094F8B83073B1E21892F8B02068
:1061B000012A3FF45AAF042A0DD094F8B020042AE3
:1061C00002D1012284F8B020234493F8B030023B7E
:1061D000022B3FF64AAFB14647E794F8B800FFF705
:1061E0002DFB0EA9C0B201F08DF80028D4D1079A7A
:1061F000A2F51043B3F5404F3CD894F8B8200123E2
:10620000002A55D0BB540E9B5B68B3F5104F02D0EB
:10621000B3F5A83F03D194F8B8300122FA5494F8AA
:10622000B80002F0A9FD831E022B0746B5D8012154
:106230000AAA2046FFF732FD0C4B1B689842ACD0EF
:106240000B4B1B689842A7D132E000BF840A0020A4
:10625000C9BB01003ABB010087BB0100F5BB0100CF
:106260001FBC01000C1D00203DB8F39680060020E5
:10627000C0040020A2F5A833B3F5404F10D8B048B1
:10628000452104F08AFBD8F808200021404604F09C
:10629000BCFB94F8B820AB48452104F07EFB7BE7BB
:1062A0000E994B689A4203D389680B449A42AAD943
:1062B000012772E701210AAA2046FFF7EFFCA24B53
:1062C0001B68984294F8B83008BF9DF82F202344EB
:1062D00018BF052283F8B02064E793F8B03003F0CC
:1062E000FB03013B18BF01237B4306FB0132224421
:1062F00016FB0131D2F8208001230093424640234F
:1063000021440EA803F055FF00284ED100230DF1C3
:10631000160206A90EA803F09AFF00282DDB40F014
:106320000C81BDF816300C2B41D1069907AA4046C6
:1063300004F041FB08BB9DF81C30012B1DD8E2186E
:1063400008A992F8B020023A022A94BF2C2000201B
:1063500006FB03001430204404F0A7F80028D5DA27
:1063600094F8B830234493F8B020012A1BD0023AA5
:10637000012A02D8012283F8B020DFF8D08100265C
:10638000012E84F8B86017D900236F4EDFF8C08162
:10639000704F0E93012B84F8B83074D90E9A022AEC
:1063A00000F0DC80FEE70422E5E70328E5D140F2B7
:1063B0000113A4F8B030E0E7A21992F8B930002B2D
:1063C0005CD10AA804F087F892F8B0308DF82F302D
:1063D000013B042B4ED8DFE803F03D0303224900C4
:1063E00018F80690B9F1000F19D1582716FB07F0DD
:1063F00000F1140140302144204404F056F80028F4
:106400000DDA07FB06474946F86C826804F0FDFA8E
:1064100094F8B8300122234483F8B0201AE02046D3
:106420000AA9FFF7C9FC94F8B800231893F8B03014
:10643000DA1E012A0CD800F01DF920B994F8B80032
:1064400000F002F930B194F8B830FF222344E3E7BA
:10645000022BF3D094F8B830234493F8B030FF2BDC
:106460000CD13D48452104F098FAFEE7304600F093
:1064700001F9E7E7FF2382F8B030EBE794F8B86062
:106480000136F6B27CE7234493F8B9208DF81C203E
:106490009DF81C1001F0FF0239B10E9B01330E93E1
:1064A00094F8B8300133DBB274E793F8B030012BC5
:1064B00007D01146204603F0D7FF10B1244B1D68CA
:1064C00014E094F8B830012BE7D0002211462046A2
:1064D000FFF7E4FB3368984206D1D8F800309842C1
:1064E00002D03B689842D8D1D8F800501022002141
:1064F0000AA804F063FB58260023012B84F8B83067
:1065000006D9284615B0BDE8F08F84F8B82042E0DF
:10651000E21892F8B9205AB906FB0343D86C04F08C
:1065200049FA94F8B83006FB0343186A04F042FABB
:1065300094F8B8300133DBB2DFE794F8B81036E5F1
:106540002BBC010057BC0100800600200C1D002060
:10655000C4040020C00400201FBC010094F8B9301E
:1065600023B194F8BA30002BCFD10123582684F8F8
:10657000B83006FB0343186A03F0FFFD287194F856
:10658000B83006FB03431B6A5B68AB6094F8B83015
:1065900003FB06462E60014B91E700BF80060020FA
:1065A00038B5064D0446BC220021284604F006FBFF
:1065B00021462846FFF7DAFC38BD00BF841A0020C8
:1065C00073B50D46064604F023F80446E86078B338
:1065D000022832D196F8B8201A4B01A913F83200DC
:1065E00000F090FE58BB01982A46314600F0C4F8EE
:1065F0000446D0B9019804F00DFD012301460DF1C8
:106600000302019804F0D7F90446A0B901980122C9
:106610000DF1030104F012FD10B101238DF80330D8
:106620009DF8033003F00F03EB71019804F0C2F9F9
:10663000204602B070BD0124F7E70724F8E70124E3
:10664000F6E700BFB4B6010013B5094B01A913F872
:10665000300000F057FE48B9019804F086FD04466A
:10666000019804F0A7F9204602B010BD0124FAE712
:10667000B4B601001FB50F4B01A913F8300000F0AC
:1066800041FEA8B9019802A902F020FB044668B9AE
:106690009DF80B30032B03D1019804F034FD044620
:1066A000019804F087F9204604B010BD0124F7E7F3
:1066B0000124F8E7B4B601002DE9F34105460C4684
:1066C00017461E460BB9002127E0184603F00CFFC1
:1066D0000028F8D195F8B8102846FFF753FA18B9F2
:1066E000012002B0BDE8F08101A903F048FE0028B6
:1066F000F6D10199284603F067FF95F8B830582283
:1067000002FB03535B6A59687379012B1DD1002C7E
:10671000D9D13368834298BF002195F8B830582208
:1067200053432C2202FB04331D443A46286A20239B
:1067300004F041F90028D3D1002ED2D038680D4B97
:10674000C01A18BF4FF0FF30CBE7022BBBD1336824
:10675000012B05D98342B6D8B4FA84F46409B2E7B0
:10676000B1D1002CD9D0012CADD13479023C18BF65
:106770000124A8E73DB8F3962DE9F04F0C4685B00B
:106780000146074694F8B8001646FFF7E5F9051EDE
:1067900051DB3846D4F8B44003F0E6FD5FFA84F9E3
:1067A0006B1E09FB03084FF0000A4FF0010B4FF07E
:1067B000FF349DB9BAF1010F03DD2148452104F0F2
:1067C000ECF8631C06D07F2C2ADC013440F2011364
:1067D0003460B380284605B0BDE8F08F6B1E00938F
:1067E0000DF10F0201234146384604F0E4F8031E80
:1067F000019322DB01220DF10F01384604F01EFC4B
:10680000019B40B15B4501D00AF1010A009DA8EB54
:1068100009089B46CDE7B4F1FF3F08BF2C46F5E7DA
:106820000223803C7371631004F0010401330134CE
:1068300033603471CEE70725CCE70125CAE700BFF6
:1068400082BC010073B54B681446114A03F0FF2364
:10685000934206460D4618D10B68012B15D16946A7
:10686000204602F033FA9DF80030032B0DD121466B
:10687000304603F048FE204604F045FCA968204657
:1068800003F08BFD204602F001FA02B070BD00BF9C
:10689000000100042DE9F04F044689B00D46114671
:1068A00003F092FE94F8B830582707FB0343834661
:1068B0005B6A28465E6803F017FE10B3D4F8B40094
:1068C00003F04DFD94F8B83007FB03439F6A0023A3
:1068D000013F3344984201D9013FFAE7BB4510D349
:1068E0006F48572104F059F807FB06F36D480BFB7E
:1068F0000662572104F051F80123EB7109B0BDE89D
:10690000F08F94F8B830DFF8A0815F00013718F8F5
:10691000330006A900F0F6FC07A918F8270000F0DC
:10692000F1FC079A29462046FFF78CFF6B79012B73
:1069300050D1DFF878A15F4646E02A68C2F1010332
:106940005B449F423FD894F8B830582101FB034381
:10695000012A5B6A196853F8370003EBC703A0EB01
:10696000010953F8083CA3EB0103049311D1079BE1
:106970000393EB68022B08D04146204603F0C3FD89
:106980002A464146204603F0FBFD0399204603F0CA
:10699000BAFD32464946404603F0B3FD049B4246E9
:1069A0004146CDE900962046FFF79EFA294620464B
:1069B000FFF760FA2B6801332B6020B1DAF8003062
:1069C0000133CAF80030013FDDF81880002FB4D140
:1069D00001232B6002236B710127BB45DDF8189062
:1069E00006D2484603F0E6FF079803F0E3FF85E789
:1069F0002B689F4252D394F8B820DDF81CA058238E
:106A000003FB0242FB00516A126D51F837000490FB
:106A1000083B08680390C958D0581368A0EB0308D6
:106A20002B79012B38D1039B3246C91A4846059170
:106A300003F067FD0599009143464A465146019689
:106A40002046FFF751FA29462046FFF713FA0223A2
:106A50002B7118B1154A1368013313603246414651
:106A6000504603F04EFDDDE9032349469B1ACDE96C
:106A7000008652462046FFF737FA29462046FFF7A0
:106A8000F9F92B6801332B6001232B7130B1074AD0
:106A900013680133136001E0022BDFD001379CE75C
:106AA000A5BC0100D4BC0100C4B60100401B0020FD
:106AB0007FB590F8B830582202FB030304461B6DE3
:106AC00002A903205E6800F01DFC94F8B820164B64
:106AD00003EBC20303A9187900F014FC029800210B
:106AE000826803F00EFD029A0399936801930025D2
:106AF0002B4600952046FFF7F7F90399204603F04F
:106B000002FDDDE902309A68836832449A4228BF68
:106B10001A46294603F0F5FC029803F04BFF039850
:106B200003F048FF04B070BDD4B601000A4619B1A5
:106B3000024B00211B681847704700BFC8040020A3
:106B4000BFF36F8F72B6124B4FF0FF32C3F8802045
:106B5000C3F88420C3F88820C3F88C20C3F89020A1
:106B6000C3F89420C3F89820C3F89C20C3F8802170
:106B7000C3F88421C3F88821C3F88C21C3F890217D
:106B8000C3F89421C3F89821C3F89C21704700BF33
:106B900000E100E0F8B5254B254D4FF0FF3401270B
:106BA0005F60C3F84843C3F8084303F5C0430026B9
:106BB0005F60C3F84843C3F8084303F598330220E5
:106BC0005F60C3F84843C3F80843C5F8084300F0C2
:106BD000D7FD6F60C5F84C61D5F84C31C5F8106130
:106BE000D5F81031C5F84461D5F84431C5F80065D1
:106BF00005F518352820C5F8084300F0C1FD6F6081
:106C0000C5F84C61D5F84C31C5F81061D5F8103194
:106C1000C5F84461D5F84431064BC5F80065C3F8A2
:106C200008454FF08043C3F80843F8BD00B000406A
:106C30000020004000F00140014B1B68184700BFD6
:106C4000CC040020014B1860704700BFCC0400202A
:106C500007B50B46002102460091034800F006F8F4
:106C600003B05DF804FB00BF396C01002DE9F04F63
:106C70008DB01D46531E8246019103934FF00009CB
:106C8000039B5878252803F1010419D11E460020E2
:106C90004FF0FF380236034602904446317803969F
:106CA000392954D81F2914D8002900F0EE81019900
:106CB0002520D04701993078D04709F10209DFE754
:106CC000002800F0E2810199D04709F101090394FD
:106CD000D6E7A1F12002192AE9D801A757F822F036
:106CE000496D0100AF6C0100AF6C0100496D0100FE
:106CF000AF6C0100C96D0100AF6C0100AF6C010009
:106D0000AF6C0100AF6C0100156E0100496D010010
:106D1000AF6C0100296E0100D56D0100AF6C010060
:106D2000E36D0100036E0100036E0100036E0100BC
:106D3000036E0100036E0100036E0100036E01008B
:106D4000036E0100036E010008460136A6E75829CC
:106D500000F0EB80A1F16302D7B2172FA7D8172A52
:106D6000A5D801A757F822F0D16F01004F6E01009E
:106D7000AF6C0100AF6C0100AF6C01002F6E010021
:106D80004F6E0100AF6C0100AF6C01002F6E01006F
:106D9000AF6C0100AF6C0100AF6C0100056F01002A
:106DA000AF6C0100AF6C0100A56F0100AF6C01007A
:106DB0004F6E0100AF6C0100AF6C0100056F010068
:106DC000AF6C01002F6E010001992520D04709F119
:106DD000010955E7029A02F0FE0202924FF0000804
:106DE000B3E7002C0DDAB8F1000F0DDA029A002A91
:106DF00000F0438124EAE4740A2202FB0414303CCC
:106E0000A3E7B8F1000FF5DB0A2202FB0812A2F19A
:106E100030089AE7B8F1000F55F8042B80F22F8163
:106E2000002A80F22E815442022202928DE76829C4
:106E300003D1682B06D1482387E76C2902D16C2B3C
:106E400000F02181002B7FF432AF0B467DE77A2BD7
:106E500006D1752955F8046B14D14FF0000B0CE0E6
:106E60006C2BF6D04C2BF4D1073525F00703752990
:106E7000D3E9006B03F1080506D120283BD1854FEB
:106E8000013C09E04FEAE67BBBF1000FF5DA764200
:106E9000814F6BEB4B0B013C0DF12D030593002350
:106EA0000493304659460A220023FEF7EFFA059B69
:106EB000303203F8012DB4460593049B5A46BCF1C9
:106EC0000A0F8B4672F1000203F1FF31064604916E
:106ED000E7D2C3F1010B30330DEB0306B8F1000F1D
:106EE000A6F104066DDA029BD9077DD4A8EB0B034B
:106EF000A4EB0B0413E02B280ABF684F684F04F182
:106F0000FF34C9E770290FD155F8042B0023FAB9D3
:106F1000634F644E053C6FF004034FF0050B029A7B
:106F2000920770D4A04666E078216C2B03D155F807
:106F3000042B002308E04C2BF9D1073525F007037B
:106F40001D465B6855F8082B232825D1880621D5D6
:106F5000554F023C01F06001A1F1390B0DF12D0EEE
:106F6000002602F00F01092988BF594430310EF87C
:106F7000011D102A4FEA121141EA03714FEA131C56
:106F800073F1000306F1FF3008D2C6F1010B06F1E0
:106F90003003A1E7454FDCE7414FDBE706460A46F1
:106FA0006346DEE755F8046B304603F0E5FDB8F1C3
:106FB000000F834602DB4045A8BFC346384F4FF061
:106FC0000008A8EB0B03002B92DDA4EB0804A6E756
:106FD00055F8043B8DF81830314F013C4FF0FF332A
:106FE0004FF0010B06AE9AE7A046EAE7029301993B
:106FF0002020D047029BB8F10108F7D524EAE472BB
:10700000013C9144A41AB84606E004930292019907
:10701000D047029A049B9046424612F8010B002882
:10702000F3D11A46013A15D5002BACBFC7EB0307C5
:107030007F425B46013B15D5BBF1000FA8BF5F4403
:107040004F442646013E14D5002CA8BF3F1907EB3C
:10705000080915E60493029201993020D047049B59
:10706000029ADFE70293019916F8010BD047029BC1
:10707000E0E701992020D047E4E70122D5E69046D9
:1070800063E6144661E64C235FE648460DB0BDE872
:10709000F08F00BF62BD010060BD010064BD010052
:1070A00095BA01006CBD010066BD010069BD01001B
:1070B00008B50446EFF31183202383F31288BFF34E
:1070C0006F8F01F037FD204600F05EFD024803F0AF
:1070D0007FFB03F025FDFCE772BD01002DE9F047C1
:1070E000058B04462807904611D4022905F00705B0
:1070F00040F0CC80204603F078FB78B10138218B3A
:10710000042811D8DFE800F0C2106D859500012930
:107110000CBF45F0100545F02005258388F3118844
:10712000BFF36F8FBDE8F08701F0070AAA4500F0B2
:10713000A5800027B9463E46A368002B00F0BC801E
:1071400041F00801218388F31188BFF36F8FA16894
:10715000002900F0BA800D68002900F0B680D1F84F
:107160000480334652462046C047002D76D02B6817
:1071700029461D46F0E701F007035A1F012A1BD8D4
:10718000002221F00701062B276889B2C4E90022FA
:1071900009D13B4603E0628B013262831B68002BFE
:1071A000F9D141F002012183204603F01EFB0028A3
:1071B0007AD041F0200176E0042B0AD121F00701BA
:1071C00089B22183204603F010FB10B141F0200169
:1071D0002183218B01F0070AAA454FD00027B94629
:1071E000AAE7236921F0070141F00601062DD3F833
:1071F000009021832DD1B9F1000F3FD041F008015B
:10720000218388F31188BFF36F8F3A492046C8471E
:1072100029E021F00701236941F0040189B2042D1E
:10722000D3F804902183E6D000273E464FF0040AAD
:1072300082E721F00701236941F0050189B2052D9C
:10724000D3F808902183D6D000273E464FF0050A98
:1072500072E700273E464FF0060A6DE72B4687E7A8
:10726000B9F1000FD1D1EFF31188202383F31288F5
:10727000BFF36F8F238B23F008032383258BEA064C
:107280002ED525F01003238305F007056669218BB1
:10729000002EBFF670AF00232768C4E9003321F049
:1072A000070141F001012183218B01F0070AAA4562
:1072B0004FF000097FF440AF002F9CD041F008014F
:1072C000218388F31188BFF36F8F002FC8D03D68EA
:1072D000394633465246204603F0B3FA2F46F4E7C8
:1072E000AB067FF51BAF25F02003238305F00705D0
:1072F00000E700BF6FA80100014B0360002070474A
:10730000E8B6010070B5104B1C680D46B4B10F4BC8
:10731000196800238B4202DB6FF0010070BD22462A
:1073200012F8106B864202D001331446F2E7E0688F
:1073300003F0CCFF28B12C600020EFE76FF00C00C9
:10734000ECE76FF01200E9E7D0040020E8B6010096
:1073500010B588B0436802938368C068CDE90332F2
:107360000A680023CDE906230C4601AA04490593C7
:1073700003F0DFFC079808B9059B236008B010BD37
:1073800057AA010008B5054803F022FA044803F0A3
:107390001FFABDE80840034803F01ABA9BBD01007C
:1073A000CCBD0100FFBD0100014802F077BD00BF68
:1073B000FCB7010030BFFFF7FDBF00BF70B5264B23
:1073C00015469A6A12F0100F9A6A14BF11241024FD
:1073D00012F0080F9A6A18BF1224920706460AD5BF
:1073E000586B9A6A140634D519B19A6A22F0800251
:1073F0009A62132401E06FF01500174B9A6A12F09D
:10740000010F9A6A18BF142412F0200F9A6A18BF4D
:107410001524D20602D49B6A9B070AD50E4B5B68E3
:10742000190506D5314600F001FA10B180F309883C
:107430000224094B9A6A920642BF5A6A22F4005209
:107440005A629A6A42F0FF029A6200232B70204629
:1074500070BD6FF01500CCE700ED00E0134B9A6AA9
:1074600012F0007F9A6A14BF1E201D2012F0807F48
:107470009A6A18BF1F2012F4002F9A6A18BF2120A1
:1074800012F4802F9A6A18BF222012F4003F9A6AE1
:1074900018BF232012F4803F9A6A6FEA02426FEA13
:1074A00012429A6218BF2420704700BF00ED00E02E
:1074B00010B5194B0246986A9C6A10F4805F14BF9D
:1074C0001720162014F4006F9C6A18BF1820A4051A
:1074D00009D5986B986A000404D51AB19A6A22F407
:1074E00000429A6219200C4B9A6A12F4806F9A6AD1
:1074F00018BF1A20D2050CD49B6A13F4005F18BF82
:107500001C20054A936A43F47F43936200230B7067
:1075100010BD1B20F5E700BF00ED00E070B5454B46
:107520005B688AB00546C3F30803002686F311881A
:10753000BFF36F8F02F07F40B0F17F4F11D102F0A7
:107540000C0008280DD010074CBF0D460126002264
:10755000033B8DF80720032B05D8DFE803F01E5D01
:10756000615A3546F3E700249DF807309BB9202285
:10757000294602A803F017FB099B002E54D0C3F341
:10758000080222B96FEA53236FEA4323099302A941
:10759000204603F0A0FA0AB070BD264BDA6A9107C4
:1075A000E1D4DA6A002ADEDBDA6A5200DBD55A69F6
:1075B000A96942F480725A61BFF34F8FBFF36F8F96
:1075C0005A6931F8021C22F480725A61BFF34F8F5E
:1075D000BFF36F8F4DF6027291420AD09A6AD2B20F
:1075E0004AB10DF1070201212846FFF7E7FE0446E4
:1075F000BAE72C68B8E79A6A12F47F4F05D00DF10C
:1076000007010120FFF754FFF1E79B6AB3F5803FC4
:10761000A9D3FFF723FFEAE70DF107020021E3E713
:107620000DF107010020EDE723F4FF7323F00103C0
:10763000ACE700BF00ED00E0044B5A6942F01002D5
:107640005A615A6922F008025A61704700ED00E061
:10765000EFF30880EFF3098101B57246FFF75EFF93
:1076600001BD00BF002080F31488BFF36F8F0F4867
:1076700080F3088801F0ECFB00200D490860BFF39F
:107680004F8F00F02BF8202080F3118809484FF429
:107690000461401880F30988EFF314800221084345
:1076A00080F31488BFF36F8F00F0A4F8804D0020A2
:1076B00094ED00E0401D00200749D1F89020002300
:1076C000C2F307221846934200DB7047C1F8983096
:1076D000C1F8A0000133F6E700ED00E008B572B68E
:1076E000002383F31388FFF7E7FF144B4FF0FF32BB
:1076F000C3F88020C3F88420C3F88820C3F88C2006
:10770000C3F89020C3F89420C3F89820C3F89C20B5
:10771000C3F88021C3F88421C3F88821C3F88C21E1
:10772000C3F89021C3F89421C3F89821C3F89C2191
:1077300062B6BFF34F8FBFF36F8F08BD00E100E06B
:107740001EF0040F0CBFEFF30880EFF3098081698E
:1077500011F8021C0229FFD001B5724603F0C1F9ED
:1077600001BD00BF40B2002807DB044A41090123E4
:1077700000F01F00834042F82130704700E100E034
:1077800040B200280CDB4309064900F01F002033FB
:107790000122824041F82320BFF34F8FBFF36F8F48
:1077A000704700BF00E100E0054B420900F01F00F8
:1077B00053F82220012303FA00F01040704700BF65
:1077C00000E100E040B20028A8BF00F1604001F1F4
:1077D0000101B8BF064B4FEA4111ACBF00F5614053
:1077E00000F00F00C9B2B4BF195480F800137047FD
:1077F00014ED00E00B4A08B50B4B22F07F029A60B3
:10780000BFF34F8FBFF36F8FD3F8882022F470023D
:10781000C3F8882002F00CFA02F052FA00F03AF8AD
:1078200002F012FA0052010000ED00E010F1160F14
:10783000074B08D0984208D34033834205D98B4286
:1078400003D9044870474033F9E70020704700BF70
:1078500080250020C025002080B50C46074615462F
:10786000064E86F309884FF00000054988472046F8
:1078700029461A46B84703488047FEE7C04D002016
:1078800003AB010011AB0100014B10221A617047DC
:1078900000ED00E0044800232021C2180133302B02
:1078A00082F80013F9D1704700E100E008B5EFF36A
:1078B0000583064A103B02EBC30152F833004968C6
:1078C0008847BDE8084003F017B900BF5CB4010069
:1078D000024B034A0348022100F066B8000004206E
:1078E0000000002004B80100084AC2F898000B68A4
:1078F00023F01F03034343F01003C2F89C308B684E
:1079000043F00103C2F8A030704700BF00ED00E073
:107910002DE9F043DFF8608085B00E461F4604462F
:107920004FF00009B14523DA6068D8B13FB1411E7C
:1079300008421BD11F2819D92368194216D1236880
:10794000019303F009F9A36803430393D8F8905017
:10795000C5F30725D0B2013DA84207D801A9FFF71A
:10796000C3FF421C09F101090C34DBE76FF015027B
:10797000104605B0BDE8F08300ED00E0044B0522A1
:10798000C3F89420BFF34F8FBFF36F8F704700BFD2
:1079900000ED00E0BFF35F8F024B0022C3F894209C
:1079A000704700BF00ED00E010B5034C01232278C2
:1079B000FFF7AEFF207010BD0E1D00202DE9F04333
:1079C000534B544CD3F890302568C3F307239D42A2
:1079D00085B000F29A80FFF7DDFF00200C2685427B
:1079E0001AD14D4C4D4F25706846FFF785FCDFF8E6
:1079F0002081DFF82C9106460025AE4213D1237872
:107A000043490020D1F89020C2F30722934276DB4D
:107A1000FFF7B4FF002042E0616806FB0011FFF7AA
:107A200063FF0130DBE7009800EB05114FEA051C0E
:107A3000CB683B40B3F5000F48D00AD8B3F5001F20
:107A400030D0B3F5800F36D0B3F5801F10D001359C
:107A5000D3E7B3F1807F42D0B3F1007FF7D150F884
:107A60000C3088684A6803F077F840F4802009E019
:107A700050F80C3088684A6803F06EF840F088507F
:107A800040F43020CDE901230390D8F890302078DD
:107A9000C3F30723013B98422AD96FF0150005B0C4
:107AA000BDE8F08350F80C3088684A6803F054F859
:107AB00040EA0900E6E750F80C3088684A6803F0AD
:107AC0004BF840F0007040F40030DBE750F80C3029
:107AD00088684A6803F040F840F08270D2E750F8B6
:107AE0000C3088684A6803F037F840F08870C9E7BE
:107AF00001A9FFF7F9FE237801332370A7E7C1F846
:107B00009830C1F8A00001337CE74FF0FF30C6E7A2
:107B100000ED00E01CB801000E1D00200000F0FF89
:107B200000000811014B1860704700BFD40400200A
:107B30000E4A0123C2F840354FF080424FF0805189
:107B4000C2F87835D1F83001082808D1D1F83411BD
:107B5000052904D80648415C09B1C2F838364FF00F
:107B600080430122C3F880250020704700E00140D7
:107B70003CBE010020B1034B800143F001031847D4
:107B8000704700BF70B60100BFF34F8F0549064B29
:107B9000CA6802F4E0621343CB60BFF34F8F00BFAB
:107BA000FDE700BF00ED00E00400FA05084B70B5EA
:107BB000C31A0D4607499B10044659430648402204
:107BC00003F011F82B4601462046BDE870401847E7
:107BD000581B0020B76DDBB6F8B3010073B50C4C31
:107BE0000C4A4023041B00930D460B460A49A4107F
:107BF00061430646094803F021F8011E05DA3046C4
:107C00002B4602B0BDE87040184702B070BD00BFFF
:107C1000581B0020ABAC0100B76DDBB6F8B3010018
:107C200010B5EFF31184202383F31288BFF36F8F15
:107C3000074A136823F00201DB07116002D4012018
:107C400003F0AAFA84F31188BFF36F8F10BD00BF51
:107C5000A81B0020002270B5012104461046FFF742
:107C6000B1FD0F4801F07EFA0E4B984215D101F09C
:107C700089FA26690C49304602F006FE00280BDB23
:107C8000012535642469084904F11C0002F0FCFD5B
:107C9000002801DBE564002070BD6FF00400FBE705
:107CA000717D01000000AD0B3CB8010030B4104BF9
:107CB0000C2202FB003301460020D3E90E529863E8
:107CC000EFF31180202484F31288BFF36F8F1C6CB4
:107CD00004F0C00444F002041C6480F31188BFF374
:107CE0006F8F1DB12B46034830BC184730BC70471E
:107CF000581B0020F8B3010010B4EFF311822023C9
:107D000083F31288BFF36F8F1748016841F00204B4
:107D10000460C80707D482F31188BFF36F8F012076
:107D200010BC01F041BA4FF08041D1F80C04D1F8F9
:107D30000C14C907EFD5EFF3118083F31288BFF35A
:107D40006F8F0A490B6C03F0C00343F002030B640E
:107D500080F31188BFF36F8F82F31188BFF36F8FA9
:107D6000002010BCFFF7A2BFA81B0020581B00205A
:107D700010B1012804D07047034B1B6C5B0701D185
:107D8000FFF794BF704700BF581B00202DE9F84350
:107D90003649BFF35B8F0746012251E8003F41E8B7
:107DA00000200028F9D1BFF35B8F33B93049314847
:107DB0004B60CB608A6002F07AFD7B1E012B2DD8D0
:107DC000012F07D14FF08043D3F81C3403F0030395
:107DD000012B23D003F0BCFA054608BB264B1B78C9
:107DE000F3B14FF080430222C3F808230646DFF8C0
:107DF0008C904FF080444FF00108D4F81824D4F848
:107E00001834D20315D503F00303012B01D0012F41
:107E10000FD125B386F31188BFF36F8FBDE8F883C8
:107E2000EFF31186202383F31288BFF36F8F0125B0
:107E3000DDE7304602F081FED4F81835002BDCD1A6
:107E4000D4F80421002AD8D0C4F80431D4F804317D
:107E5000C4F81885C9F88081C4F80880CDE74FF0D0
:107E600080430222C3F80423D8E700BF541B00203C
:107E7000441B0020741B0020121D002000E100E0C4
:107E800008B5074803F022FA38B10648FFF74AFE62
:107E90000448FEF7D7FE002008BD6FF01200FBE794
:107EA00034B40100A97E01000A2838B5074D044604
:107EB00004D1AB680D215B6828469847AB6803483E
:107EC0005B68E1B29847204638BD00BF34B401007A
:107ED000024B0B6001231360704700BFAC1B0020F6
:107EE0000048704760B8010010B503F0E1F9034C99
:107EF000206003F0D9F96060002010BDAC1B0020A9
:107F00004FF08042D2F81015D2F8103501F01E0162
:107F100023F01F030B4343F00103C2F81035024B5B
:107F200000221A70704700BF0F1D00204FF08053D1
:107F3000D3F83031082B20D14FF08042D2F8101501
:107F4000CB071AD5D2F8103501F01E0123F01F031C
:107F50000B43C2F81035D2F808315BB1D2F81035B6
:107F600023F01F030B4343F00103C2F810356FF0F9
:107F70008B007047024B01221A700020704700BF2F
:107F80000F1D00202DE9F0410D46164603F08CF937
:107F900031460746284602F001FF28B3B5FBF7F348
:107FA00007FB135303BBB6FBF7F407FB1464DCB900
:107FB000B74213D803F078F9DFF834800746FFF7AB
:107FC000B5FF044668B9284601F07CFD98F80030FA
:107FD0000BB1FFF795FFF61B3D44F0D12046BDE8FD
:107FE000F0816FF08B04F9E76FF01504F6E700BF3E
:107FF0000F1D00202DE9F8430E463046194617465E
:108000001C4602F0CBFE30B344EA060515F003052A
:1080100021D11CB3DFF848906319032BA6EB0508A8
:1080200007D8104AD2F80034DB07FBD50020BDE8A2
:10803000F883FFF77BFF58B97B1B4046196801F0B6
:1080400061FD99F800300BB1FFF75AFF043DE3E7FB
:108050006FF08B00EBE76FF01500E8E72046E6E7EE
:108060000F1D002000E00140F0B54068057B01F0E5
:108070001F0444EA4514056987B0002D64D0B2F5A9
:10808000001F00F1100506D12146284603F004F92F
:10809000002007B0F0BD01AE0027B2F5800F0197B8
:1080A000776039D1B3F1007F14BF052304238DF825
:1080B00004300023CDE904630393836823FA01F1BC
:1080C00011F001011AD1B2F1A07F17D104F01F0302
:1080D000620903F5E0732AD0012A3BD11F4A52F806
:1080E0002330DB070AD40DF1030632462146284629
:1080F00001F042FB1A4B98421CD0029603AA21467B
:10810000284601F0FBF9174B984220D10122214665
:10811000284601F095FBBBE7B3F1C06F05D0B3F182
:10812000007F14BF01230223C1E70323BFE74FF001
:10813000A042D4E73146284601F07CFB094B984227
:10814000DBD06FF00B00A4E76FF08500A1E76FF0C4
:1081500015009EE751F82330FFDE00BF00030050FA
:108160000400AD0B0000AD0B38B545682B69B3B109
:108170001035284601F04EFB044680B901462846DA
:1081800001F014FB084B98420BD1084922462846BF
:1081900001F0ECFA224605210620FFF713FB002030
:1081A00038BD6FF00400FBE70000AD0BB1810100AA
:1081B000420970B5034602D0012A17D070BD0D4E9A
:1081C000326951680029F9D003F01F0301250C68BA
:1081D0009D400029F2D08A682A4002D04B68304680
:1081E00098472CB1236821461C46F2E7024EE7E788
:1081F0002346F8E720B401000CB401002DE9F04358
:10820000466840F20635D006337B87B002EA0505A2
:1082100054BFC2F34010032001F01F07B5F5837F60
:10822000144647EA43178DF8030045D00FD8062DB2
:1082300018D007D8B5B1022D40D06FF0150007B0A7
:10824000BDE8F083B5F5807FF7D101250AE040F263
:108250000222954234D0B5F5407F33D0B5F5007F8A
:10826000EBD102250123220303FA01F12CD5736817
:10827000C3F80815326982BB07F01F037F0929D0B4
:10828000012F77D13E4A02EB830284F48033D2F887
:108290000017C3F30043C4F3404444EA430421F409
:1082A000E16144EA800421F0070144EA05230B431D
:1082B000C2F800370020C2E70725D3E70425D1E73D
:1082C0000525CFE70325CDE7630344BF7368C3F8F3
:1082D0000C15CFE74FF0A042D5E710360DF10202A2
:1082E0003946304601F048FA14F4403F80460CD13C
:1082F0003946304602F0CEFF224B9845DAD19DF840
:108300000210304601F090FAD4E701AB4FF00009BB
:1083100003AA39463046CDE90439CDE90199CDF8B3
:108320000C9001F0EBF8174B984286D114F400330F
:1083300015D09DF803308DF80E3084F48034C4F3EA
:1083400000444B4603AA394630468DF80C508DF850
:108350000D4001F08DF90B4B9842CDD06DE7CDE982
:10836000043303AA0DF1030339463046039301F0A9
:10837000C5F8F0E703F5E07352F82330FFDE00BFE5
:10838000000300500000AD0B036803F01F025B09FF
:10839000026004D0012B034818BF002070474FF043
:1083A000A0407047000300502DE9F04FDFF8949192
:1083B000DFF894A185B01546834600EB810140F2B9
:1083C000FF18594503D1002005B0BDE8F08FDBF858
:1083D00000305E04C3F3C322C3F3080400F1AC8091
:1083E0001B0E19F80270444508BF4FF0FF34222BD2
:1083F00000F2A580DFE803F012191F22252B22A32B
:10840000A3A3A33B68A3A3A3A3A3A3A3A3A36B8139
:108410008487A3A3A38A9194979A9D00C5F80C45DD
:10842000601C5ED10BF1040BCBE7C5F81445621C50
:10843000F8D000265FE0C5F80845F1E7C5F810451B
:10844000F5E7631CC5F80845ECD0002604E0661C7F
:10845000C5F80C45E6D0012603A80394FFF794FF66
:10846000039B012202FA03F3C0F80C3508E0C5F8BB
:108470000845002FDBD1631CD4D0002632460627E6
:10848000DBF80030019303F40040002818BF0022FD
:1084900003A8009218BF01260394FFF775FF039C01
:1084A000019B009A00EB8400C3F3412CD0F80047F5
:1084B0003B0243EA8C03134304EA0A04234343EADE
:1084C0004603C0F80037ADE7C5F80C45D1E7C5F85D
:1084D0006045601CDBF80030A4D0C3F30043002BE0
:1084E000B9D003A80394FFF74FFF039B012606FAB8
:1084F00003F3C0F808353246C2E7C5F86445E8E73B
:10850000C5F86845E5E7C5F86C45E2E7C5F82445D8
:10851000621C87D000220126B2E7C5F828457FE714
:10852000C5F83045F4E7C5F83445F1E7C5F83845F6
:10853000EEE7C5F83C4573E76FF0150044E76FF0D0
:10854000850041E793BE0100F0F8FCFF2DE9F04102
:10855000044647680D4602F0FBFE4FF0200868B95C
:10856000244B1B7853B16426606802F0BEFCD0B97E
:10857000012002F003FE013EF6D1F4E7EFF311868D
:10858000314688F31288BFF36F8F606802F0ADFC4C
:10859000A8B986F31188BFF36F8FEFE786F31188D0
:1085A000BFF36F8FDFE7EFF31186314688F3128850
:1085B000BFF36F8F606802F098FC0028EED0BB69B3
:1085C0001D706368BA691B680020C3F84425012246
:1085D000C3F84825C3F82001D3F82041C3F8580157
:1085E000D3F858019A6081F31188BFF36F8FBDE80B
:1085F000F08100BF121D0020F7B5054600220121C1
:108600000220FFF7DFF80220FFF7ACF86A68116874
:108610001369C1F82435137D507D927D03431343C4
:10862000C1F86C356E68D6E9004313F0010348D0F9
:108630002F6907F1080002F0ADFD304B98425AD186
:10864000387A04F10C0204F5907102F099FD387A41
:10865000012707FA00F000F01DFD0823C4F80035DB
:10866000B369C4F844350023C4F84835A760D4F88A
:108670005831002BFBD00021C4F800156B68DC6872
:1086800001AA204602F004FC002805DB019B2268B9
:1086900019791868FFF788FE6A6813680821C3F81B
:1086A0000015117A51B9D269C3F834250122C3F8F3
:1086B0003825C3F81011D3F810111A60002003B048
:1086C000F0BD0822C4F80025B269C4F84425C4F8F6
:1086D00048350123A360D4F82031002BFBD00023C0
:1086E000C4F82031D4F820310123E3604FF48073C3
:1086F000C4F80433BBE76FF00400E0E70000AD0B03
:1087000070B5012383400E4ABFF35B8FDC4352E810
:10871000001F01EA040542E80056002EF7D1BFF31E
:108720005B8F4FF4803282400648C0F80823BFF3C5
:108730005F8FBFF36F8F0B4214BF0120002070BD0D
:10874000DC1B00200010014070B40E49D1E9003458
:10875000D01AC31844F1000422F07F46C1E9003466
:10876000A6F50013B3F5400F09D2074B1B681A0A90
:108770001B069C19054B42F10005C3E9004570BC7E
:1087800001F0E8BAE8050020E01B0020F005002019
:1087900011B3BFF35B8F0123104A834052E800CF2F
:1087A0004CEA030C42E800C10029F7D1BFF35B8F0C
:1087B0000B4A4FF480338340C2F80433094BBFF3B4
:1087C0005B8F1B68BFF35B8FC340DB0742BF064B69
:1087D0004FF40032C3F80021704700BFDC1B0020BB
:1087E00000100140D81B002000E100E00D4B18688C
:1087F000010A0006BFF35F8F0B4BD3F8043518183E
:1088000041F10001B3F5801F0AD2084BD3E90023E0
:10881000904271EB030303D210F1807041F100012B
:10882000704700BFE01B002000100140F005002051
:108830002DE9F04F85B016461F469DF840A004462E
:10884000FFF75EFF0190FFF7D1FFB04271EB070326
:1088500054D23E4B301A67EB0101984271F100018E
:108860004FD23B4B03EB0413D3E902239F4208BFD3
:1088700096425ED037494FF4803804F1500508FA2B
:1088800004F8AD00C1F848832046ADB202F05EFBAB
:1088900026F07F4B05F1804504F5A87305F5883572
:1088A000DC464FF003090293029A2CF07F4341F813
:1088B0002230C1F84483D1F80435274A6FF0020012
:1088C000C01A604420F07F40904232D9286868B1D5
:1088D000D1F804350393A3EB0B0020F07F40B0F5F3
:1088E000000F26D9204602F031FB039BBAF1000F9E
:1088F00007D109EB030C09F10109D5E7BAF1000F23
:1089000009D06FF0150520460199FFF741FF284671
:1089100005B0BDE8F08F0123104ABFF35B8FA34081
:1089200052E8000F184342E800010029F8D1BFF3D4
:108930005B8F07490E98230101EB0412C8500F9B6F
:108940005360C2E902670025DDE700BF0100800037
:10895000D805002000100140FDFF7F00D81B00203B
:108960007FB51C4C1C4BC4F80833C4F848331B4B70
:1089700000254FF0FF304FF0FF31C4F80855C3E930
:1089800002014FF48033C4F80433154B02264FF430
:1089900000320121C4F804631120C3F880212A4663
:1089A000FEF710FF1120FEF7DDFE0E4A0123A36043
:1089B000236013600C4B0D4A0093CDE90155002351
:1089C0002846FFF735FF3046FFF7E0F9284604B0A8
:1089D00070BD00BF0010014003000F00D80500204B
:1089E00000E100E0DC1B002049870100FFFF7F0061
:1089F0002DE9F7432F4CD4F8043399070BD5D4F85D
:108A0000043143B12C4A0023C4F80431D4F80431B2
:108A1000136801331360D4F80433DA0329D5BFF3A4
:108A20005B8F264B53E8002F22F0010143E8001032
:108A30000028F7D1BFF35B8FD30702D4D4F84031BD
:108A4000BBB10025C4F84051D4F84031FFF7CEFE49
:108A5000EFF31182202383F31288BFF36F8F184B3B
:108A6000D3E90267B042B94106D282F31188BFF35D
:108A70006F8F03B0BDE8F0834FF0FF384FF0FF3940
:108A8000C3E90289D3E900101D604FF48033C4F8B4
:108A90004833C4F84051D4F8403182F31188BFF311
:108AA0006F8F0029E5D0009032463B462846884724
:108AB000DFE700BF00100140E01B0020D81B0020B2
:108AC000D805002030B5431C124C85B005D0844237
:108AD000A8BF0446012CB8BF0124FFF787FE0E4B48
:108AE0000C4DD3E90013401AB0F5000F10D2221834
:108AF000AA4228BF2A4652184FF0000007490091A9
:108B0000CDE9010043F10003FFF792FE05B030BD4F
:108B10002A46F0E7FFFF7F00E805002049870100B3
:108B200008B5FFF763FE024B1B68C01A08BD00BF03
:108B3000E805002010B5084C012363601120FEF702
:108B40001FFE064BC4F80833C4F84833044B4FF4F7
:108B50000032C3F8802110BD0010014003000F0057
:108B600000E100E030B50C490C4D0B6802460024D2
:108B700005EB0310D0F80808C0B218B904B10B60B7
:108B8000002007E00133072B4FF00104F0D90B6000
:108B90006FF01B00136030BDE41B002000E00140BB
:108BA000054B1B68DA6AB2F5807F01D8DB6918478C
:108BB0006FF00D00704700BFC44D0020014B1B68D3
:108BC0001B6A1847C44D0020014B1B685B6A18479D
:108BD000C44D002010B4034C2468E469A44610BCC2
:108BE000604700BFC04D00202DE9F0432348244ECC
:108BF000DFF8909085B002F0F7F9204BD3F8388079
:108C000004460025A84503D8002005B0BDE8F08340
:108C100096E80700636A1F6801AB83E807000C222F
:108C20001946384601F0AFFF88B987B1636A2169F8
:108C30001B681A6991420AD19A69A169914206D8C2
:108C4000E169914203D962695B699A430CD0276A52
:108C500077B10D4801F0BCFD002383F31188BFF309
:108C60006F8F0423184602DFE36801351C44C9E70F
:108C7000484601F0ADFD636A1F60F5E7005401004E
:108C800050B60100D2BE0100A9BE010030B5816816
:108C900085B0103921F00704054601F0D5FE1022F9
:108CA0000146684601F08AFF07491022684601F034
:108CB0007AFF10236A462146284601F091FE0038CB
:108CC00018BF012005B030BDAAB9010030B50D466E
:108CD000816887B0102302AA1039044601F06BFEA8
:108CE000002802DA012007B030BD102202A9204678
:108CF00002F0A4F900283AD11E49102202A801F07E
:108D000042FF00280CBF012302232B70204602F0F3
:108D100081F9012301460DF10702204601F04BFEC7
:108D20000028DFDB9DF8073003F00F021B096A7093
:108D30002B7101220DF10701204602F07FF910B9D5
:108D40006B78042B03D901236B7000232B71A2686D
:108D5000183A22F00702083AA91C204602F081F9CD
:108D60000028BFD1E91C204602F0D4F9BBE7032359
:108D7000CBE700BFAAB901007FB5264D4400694684
:108D800055F8240002F0CCF9002835D1013402A9AD
:108D900055F8240002F0C4F901282BD103238DF8E3
:108DA00008308DF80B309DF800509DF808601A4A85
:108DB00000241078294602F033F918B35078314670
:108DC00002F02EF9F0B19378042B03D09DF8031034
:108DD000994217D1D378042B03D09DF80B109942F8
:108DE00010D11379042B09D15079831E022B03D89B
:108DF00004B070BD0028D6D0FF20F9E79DF802101E
:108E00009942F1D00134032C02F10602D1D10120A4
:108E1000EEE700BFDCB8010005BF01004FF0805352
:108E2000D3F83021082A06D1D3F83431052B02D8E3
:108E3000024AD05C70470020704700BF1DBF010090
:108E4000024AD2F80034002BFBD0704700E001400A
:108E500010B54FF08053D3F83021082A4ED14FF08F
:108E600080420021C2F80C11C2F81011C2F8381566
:108E700002F54042D3F80414C2F82015D3F80814C0
:108E8000C2F82415D3F80C14C2F82815D3F810141E
:108E9000C2F82C15D3F81414C2F83015D3F81814EE
:108EA000C2F83415D3F81C14C2F84015D3F82014B6
:108EB000C2F84415D3F82414C2F84815D3F828147E
:108EC000C2F84C15D3F82C14C2F85015D3F830144E
:108ED000C2F85415D3F83414C2F86015D3F8381416
:108EE000C2F86415D3F83C14C2F86815D3F84014DE
:108EF000C2F86C15D3F84434C2F87035FFF78EFF12
:108F000018B13A4B3A4AC3F88C26FFF787FF18B1DD
:108F1000384BFB22C3F81825FFF780FF70B14FF0E4
:108F200080414FF08053D1F8E42ED3F8583222F02C
:108F30000F0203F00F031343C1F8E43EFFF76EFF87
:108F400020B12D4B4FF40072C3F840264FF08053F0
:108F5000D3F83031082B1AD14FF08043D3F80024D6
:108F6000D20744BF6FF00102C3F800244FF08053D2
:108F7000D3F83431052B02D8204AD35C3BB14FF0F3
:108F80001023D3F808224FF08043C3F858254FF040
:108F90001023D3F80022002A03DBD3F80432002B7D
:108FA00022DA174901234FF01020C1F804351224AA
:108FB000FFF746FFC0F80042FFF742FFC0F8044247
:108FC000FFF73EFF0023C1F80435FFF739FFBFF379
:108FD0004F8F0C490C4BCA6802F4E0621343CB601C
:108FE000BFF34F8F00BFFDE710BD00BF0050004032
:108FF0004881030000F000400090024017BF0100CC
:1090000000E0014000ED00E00400FA0530B504681E
:10901000CCB1BFF35B8FB4FA84F3C3F11F03DBB2AF
:1090200001229A4024EA020250E8005FA54204D1DE
:1090300040E8002CBCF1000FF6D1BFF35B8FE6D106
:1090400002480B7030BD0248FCE700BF0000AD0BCA
:109050000200AD0B10B50368CB40DB0714D401232D
:109060008B400268BFF35B8F43EA020150E8004F78
:10907000944204D140E8001CBCF1000FF6D1BFF3CC
:109080005B8FEED1014810BD0148FCE70000AD0B3D
:109090000400AD0B014BC3F80405704700F001401C
:1090A000F7B50546F8B101281BD104224FF48073AF
:1090B00001464FF0804003440244C0F808130026E4
:1090C000012111601E608D421B688DF8071008BFDA
:1090D0000DF1070642F210744FF0804745B1012DA3
:1090E00028D003B0F0BD0C224FF482730221E0E7D8
:1090F000D7F8183403F480333EB9002BF1D00120A7
:1091000002F03CF8013CF3D1EBE7D7F8182402F069
:1091100003023260002BE4D09DF80700012803D140
:1091200002F02CF8013CD9D1012DDAD10C4B0022F0
:109130005A71D6E7D7F80C3403F480333EB9002BCC
:10914000F4D0012002F01AF8013CF3D1EEE7D7F891
:109150000C2402F001023270002BDDD1E6E700BFE3
:10916000E81B0020044B1A7922B9012218609A806A
:109170000248704702487047E81B00200000AD0B12
:109180000C00AD0B08B5074B1B682BB10020FEF798
:109190000BFB08B9FEF7E6FA4FF080430022C3F854
:1091A000182508BDE81B002010B510B1012843D0D8
:1091B00010BD4FF08043D3F81814D3F81824C80317
:1091C00021D502F00303012B04D013B10020FFF7D7
:1091D00067FF00234FF080420220C2F818350822B2
:1091E0004FF4827303F180430021196002F1804241
:1091F0001C6801241460154A12680AB34FF08043BA
:10920000C3F80403D4E7D3F81424D107E1D5D3F885
:109210001C249207DAD40D4A12681AB10222C3F84C
:109220000423C5E7D3F80421002AFBD00022C3F8A9
:109230000421D3F80431BBE700224FF48073D1E757
:109240001A68002AFCD019601B68B1E7E81B0020EF
:10925000F8B54FF080431C4ED3F804430125002796
:1092600004B9F8BDB4FA84F0C0F11F00830003F51F
:1092700080739BB203F1804305FA00F2196892B241
:1092800024EA02040029EBD01F601B684FF08043E2
:10929000012AC3F8082305D0022A08D03368C0B2D7
:1092A0009847DDE77379002BDAD17271F6E7D3F8CE
:1092B0001814D3F818148907F0D1C3F81855C3F857
:1092C00004239D60CCE700BFE81B0020036803F087
:1092D0001F025B09026004D0012B034818BF002065
:1092E00070474FF0A040704700030050034A430905
:1092F00000F01F00D35C1844C0B2704723BF0100C8
:1093000070B50546FFF7F2FF0C4C08300E4634F8F6
:109310001030DA0508D5C3F3432304EBC302284613
:1093200054F8333052689847A3682BB1E26831464D
:109330002846BDE87040184770BD00BFD804002023
:1093400008B5FFF7D3FF034B083033F81000400B8C
:1093500008BD00BFD804002008B5FFF7C7FF034BC6
:10936000083033F81000C0F3400008BDD8040020D6
:1093700008B5FFF7BBFF034B083033F81000C0F30C
:10938000401008BDD8040020034611F0010010B5BC
:10939000CCB20DD1A207C4F3400012D5094AD2F8CD
:1093A00020055860C2F82005003818BF012008E0E9
:1093B0004FF0A041D1F820251A60C1F82025002ADD
:1093C000E8D010BD0003005010B5FFF78FFF124A20
:1093D000083032F81030D9051CD5C3F3432123F4EB
:1093E000F85322F8103002F10E04002034F8023F46
:1093F00013F4807F03D0C3F3432399420AD0013092
:109400003028F3D1002342F831300448BDE8104041
:10941000FFF720BE10BD00BFD8040020500500207B
:10942000F0B5054600200446012607468C420BD1C4
:10943000114BD3F87C2132B10022C3F87C21D3F840
:109440007C3140F00040F0BDE3B29B0003F5807238
:109450009B0806FA03F31D420BD002F1804202F58D
:10946000C042D2F800C0BCF1000F02D017601268F1
:1094700018430134DAE700BF00600040F7B5064644
:109480000846FFF733FF194F00F108050C4637F87F
:109490001530DB0727D5304601F0D8FE2046FFF710
:1094A00067FF40B12046FFF74BFF316800F5A2701F
:1094B000002341F820302046FFF786FF002301A853
:1094C00027F815300194FFF701FF019B00EB8300A3
:1094D000074BD0F80027134043F00203C0F80037D1
:1094E000044803B0F0BD0448FBE700BFD8040020E7
:1094F000F0F8FCFF0000AD0B0400AD0B2DE9FF41BF
:10950000164680460846FFF7F1FE0D4631680446D0
:1095100009B32846FFF720FF18B12846FFF728FFB8
:1095200010BB0023CDE900338DF80E308DF80F30DD
:109530000DF10F020B4628460DF10E0101F02EFE33
:10954000474A04F1080132F8113023F0020343F0D6
:10955000010322F81130736863B328461F785968F5
:10956000FFF7FAFE10B1D1B13E4826E03C4A04F1C3
:10957000080032F8103023F02003DB04DB0C22F863
:10958000103061B1032FEFD87168496891F800C0BD
:10959000D8F80010A7B90CF5A27C41F82C70304A1D
:1095A00004F1080132F8113023F01C0343EA870369
:1095B00022F81130B3684BBB2B4804B0BDE8F081F2
:1095C00001EB8C0143EA4C33D1F810E52EF0030E89
:1095D000C1F810E5D8F8001001EB8C0E43F0200321
:1095E000DEF8101522F8103021F44F3121F44071CB
:1095F000CEF810152902DEF8108501F47C5141EAFD
:10960000074141EA0801CEF81015C8E7D3E9006721
:109610002846FFF7D9FE002ECED0114DD5E9002304
:10962000964203D19F4201D1002209E00F480DF17B
:109630000F01FFF7EBFC0C4B9842BED19DF80F20B9
:1096400045F8326005EBC20308345F6035F814302A
:1096500043EA422343F4807325F81430ACE700BF9B
:10966000D80400200400AD0B0000AD0B5005002015
:109670002DE9F0430C4685B08046204611461E4633
:10968000FFF734FE054629B32046FFF765FE18B9FB
:109690002046FFF76DFE18BB314F05F1080937F87A
:1096A000193013F01C0F02D04B78012B18D0012376
:1096B0008DF80F300023CDE900134A1C8B1C204687
:1096C0000DF10F0101F06AFD37F8193043F0030383
:1096D00027F81930002E41D02046FFF73DFE18B97B
:1096E000204805B0BDE8F08396F800C0D8F80030F7
:1096F0001B4F0CF5A272002143F8221005F108025D
:1097000037F8121021F02001C904C90C27F81210F3
:1097100075781DB3D8F80000B67800EB8C002D04E6
:10972000D0F8103523F4991323F4F853C0F810350A
:10973000230203F47C5305F440353605D0F810E5D8
:109740002B4306F4801641EA4C31334341F02001AB
:1097500043EA0E0327F81210C0F810350248C0E79C
:10976000D80400200400AD0B0000AD0B014BC3E991
:1097700002127047D804002010B508461446FFF7BF
:10978000F7FD50B10846FFF7B1FD054B083033F83F
:10979000103004485B0B237010BD0348FCE700BF8A
:1097A000D80400200000AD0B0400AD0B70B5164DC1
:1097B00095F8804006462CBB2146602205F110003A
:1097C00001F0FCF930682E6F21468E420ED1002345
:1097D000C0F87C31D0F87C3140F30730FDF7C2FF90
:1097E00001230A4885F88030AB6770BDCBB29B007F
:1097F00003F580727C2B08BF845001F1010108BF82
:109800008358E2E70248F0E7D80400200000AD0BDF
:109810000C00AD0B034B93F88000003818BF0120FB
:10982000704700BFD80400200148FFF713BC00BFF9
:109830004C0500200148FFF7E9BB00BF4C050020A4
:1098400073B503681646D3F80423002AA8BF4FF067
:1098500000420546A8BFC3F8042308460C46FFF79C
:1098600087FD00B30846FFF777FD0146D8B92046CB
:10987000FFF766FD04B2A40004F580720346286871
:109880008150296882582144D1F8102542F0010204
:10989000C1F810252EB12968012202FA03F3C1F89C
:1098A000043302B070BD2046FFF720FD0F4B083097
:1098B00033F81030C3F38203042B12D0052B12D0DF
:1098C00001A80194FFF702FD019AD0F81035D340AA
:1098D00003F00103991C204602B0BDE8704001F07E
:1098E000A6BC0321F7E70221F5E700BFD80400205A
:1098F0002DE9F04F694BDFF8A881D3F80403D8F8BD
:109900007010C0B289B040F00040FFF789FD051E1D
:109910002FDAC24600235AF87C1F06A8CDE9063389
:10992000FFF732FD5F4B01930DF118094FF0000B6B
:10993000019A12F8013B0192DA0803F007031AF8C2
:10994000022022FA03F3DA071CD409F10409BBF15F
:10995000000F14D0D8F870104FF00040FFF760FDF2
:10996000D8F87C1006A8FFF70FFD0028DAD125F003
:1099700000450124002D79D109B0BDE8F08F4FF0EA
:10998000010BD5E7484B5B440293D9F8001000293E
:10999000DBD0029B91FAA1F11C78B1FA81F141EA86
:1099A00044142046FFF7A2FC0830059438F81070E4
:1099B000C808BB0819F80020039301F00701012330
:1099C00003FA01F122EA010209F8002005A8FFF7D5
:1099D0007DFC059A039B02F5E072C7F3820650F8FE
:1099E00022205B073746C2F3014224D52046394680
:1099F000D6B2FFF785FC05A80594FFF767FC059B29
:109A000003F5E07350F82330C3F301439E4207D1BE
:109A10000021204601F00BFC3146204601F007FCF6
:109A200005A80594FFF752FC059B012202FA03F3F7
:109A3000C0F82035A9E7022A0CD10321204601F005
:109A4000F6FB06F00503012BEAD139462046FFF765
:109A500057FCE5E702212046039201F0E8FB032EC4
:109A6000F3D0039A032ADBD1022EEDE795FAA5F392
:109A7000B3FA83F304FA03F29B0003F1804303F586
:109A8000C04325EA0205D3F81005D3F81015C0F33A
:109A90000520C1F30141FFF733FC6BE70060004094
:109AA000D804002033BF010033BF0100044AD2F8BC
:109AB0000034DB07FBD50160BFF35F8F704700BF49
:109AC00000E001404FF080531A69B0FBF2F302FB53
:109AD000130373B9084B0222C3F80425C3F8080521
:109AE000D3F80024D207FBD500220448C3F804258C
:109AF00070470348704700BF00E001400000AD0B15
:109B00000A00AD0B10B5054C0123C4F80435FFF76E
:109B1000CDFF0023C4F8043510BD00BF00E00140B4
:109B200001460148FFF772BA5C05002010B5144CDD
:109B3000A8220021204601F041F803232361114AA5
:109B40006361114BA261E3614FF4806323620023E0
:109B5000A3626362E36222660C4A62661022A26616
:109B60002367E3666367BFF35F8F094A12F8011D3D
:109B7000E1540133102BF9D1BFF35F8F10BD00BF4B
:109B80001004002035BF010010000020000000205C
:109B90004EBF010010B4BFF35F8F0B4A0B49002387
:109BA000C85C12F8014D844209D10133102BF7D162
:109BB0000023BFF35F8F23B110BCFFF7B7BF0123B2
:109BC000F7E710BC704700BF4EBF01001004002033
:109BD00038B5094B53F82040013053F82050A542C6
:109BE00000D838BD636823B1204601F094FB0834E7
:109BF000F5E723689847FAE7ECB8010008B50A4B87
:109C0000012203201A70FFF7E3FFFDF7BBFB01F011
:109C10009EFB0420FFF7DCFFFBF7A2FD034A137B4A
:109C200023F00103137308BD121D0020F805002066
:109C300008B50348034A0021121A01F084FB08BD4D
:109C4000D8050020141D002008B50020FFF7C0FF34
:109C5000184B83F30888184C636943F400736361FD
:109C60000025E02384F82230E57725766576A57611
:109C700084F82050636A43F4E023636284F823503D
:109C8000FDF7DAFCFDF700FE4FF0FF33A362E3625D
:109C9000FDF794FEFDF71CFE01F017FB0120FFF716
:109CA00097FF0220FFF794FF04482B462A462946D7
:109CB000FDF7D2FD8025002000ED00E0FD9B0100B6
:109CC0000748084A084908B5121A01F03EFB074840
:109CD000074A0849BDE80840121A01F036BB00BF28
:109CE000C0040020D205002060BF0100B80400209D
:109CF000C004002058BF0100024B1868984208BFFA
:109D00000020704760050020034B1B680BB9FEF76D
:109D100007BF0020704700BFF01B002030B570B1B6
:109D20000B4B5B6898420AD0036843B1D3E9042126
:109D3000D0E90445121941EB0501C3E90421D0E93A
:109D4000003213605A600023C0E9003330BD00BF09
:109D5000600500202DE9F047EFF31185202383F300
:109D60001288BFF36F8FDFF89C90DFF89C80C9F8F2
:109D70000000FFF7C1FF00260027D9F80030D8E91E
:109D800000ECD91750B1D0E90442A34271EB020AAA
:109D900018DAE41A62EB0102C0E9044213EB0E0385
:109DA0004CEB01010024C8E90031C9F8004001F082
:109DB000D5FA2146FEF786FE85F31188BFF36F8F33
:109DC000BDE8F08714EB0E024CEBE473C0E90467C6
:109DD000C8E90023FFF7A2FF85F31188BFF36F8F57
:109DE00083689847EFF31185202383F31288BFF32C
:109DF0006F8FD9F800301B1BC9F80030FFF77CFFCC
:109E0000BBE700BFF01B00207806002010B50A4C0D
:109E100023681BB101232360002010BD00F046F829
:109E20000028F7D00138062803D8044B53F8200047
:109E300010BD034810BD00BFF41B002004B9010091
:109E4000FE8FFFFFBFF34F8F0549064BCA6802F430
:109E5000E0621343CB60BFF34F8F00BFFDE700BF4D
:109E600000ED00E00400FA0510B4094B09490A4C62
:109E70004FF0FE32C3F800244968C3F80424C3F845
:109E80000824C3F80C240023C4F8003510BC08478C
:109E900000B002506805002000A00250D0E9001276
:109EA000014BC3E9001270476805002038B500F087
:109EB0002FF820B1032400F063F8204638BD00F0ED
:109EC00031F898B900F0ACF898B90F4DD5F82839A9
:109ED0001B0EF02B08D1D5F8242A0C4B9A420AD03D
:109EE000072400F017F8E6E70624FAE704242046E2
:109EF00038BD0024F5E7012000F092F80446002860
:109F0000F7D1C5F80C0AD8E700B002500000E020F5
:109F10000020704700207047014BC3F8040A7047C7
:109F200000B0025010B5114800F048F800B110BD63
:109F30000F4800F043F80028F9D10E4C204600F0FD
:109F40003DF80028F3D10C4B0C481C6000F036F8AB
:109F500001460028EBD100F02DF8044608B1204658
:109F600010BD00F03FF82046FAE700BF8005002052
:109F70007C05002078050020700500207405002075
:109F800008B5084800F024F8074800F021F8074811
:109F900000F01EF8064800F01BF8BDE8084000F08D
:109FA0000BB800BF800500207C050020780500204C
:109FB0007405002000207047704700BF08B5034BB0
:109FC00002681B6810689847002008BD98050020AB
:109FD00008B5034B02685B6810689847002008BD0D
:109FE0009805002070B5094C094D2069AB68984769
:109FF00018B1084B08485B689847084AEB68206925
:10A0000000211160BDE87040184700BF84050020A2
:10A01000980500206805002020B90100F81B0020E9
:10A02000F8B51A4D1A4E0446B26828699047E8B947
:10A03000184F3B684CB1A3B1012B19D0013B3B60D9
:10A040002869F36898470020F8BD43B9124A0121F6
:10A05000C2F800151149D1F81029002AFBD10133AB
:10A060003B60F368286998470020F8BD0C48F8BDAC
:10A070000A4AD2F81039002BFBD1074A6FF07E4014
:10A08000C2F80035FFF748FF3B68D7E7840500209A
:10A0900098050020F81B002000A0025000B00250DC
:10A0A000E98FFFFF10B5044650B1636813F0685F95
:10A0B00005D0064A934202D000232360626010BD9F
:10A0C000034B04485B689847EFE700BF2C5F5CA92F
:10A0D0006805002040B90100C8B143680D4A9342A9
:10A0E00013D013F0685F0ED0012350E8002F1946FB
:10A0F00040E8001C9CF0000FF7D1012AF5D0BFF317
:10A100005F8F0020704704487047044870476FF421
:10A11000E04070472C5F5CA9E98FFFFFEA8FFFFFEB
:10A1200080B14368094A93420AD013F0685F05D0B2
:10A13000BFF35F8F002303601846704704487047E1
:10A14000044870476FF4E040704700BF2C5F5CA983
:10A15000E98FFFFFEA8FFFFF10B5044620B1044BE3
:10A1600063600022226010BD0248FFF77DFEF6E723
:10A170003A00003A68B9010070470020704730B5D6
:10A1800083688B4285B0044615460ED96368C06863
:10A19000194401AA00F0C9FD28B96268019B9B1A05
:10A1A0002B60029B6B6005B030BD6FF02100FAE7B9
:10A1B00070472DE9F7430E4617469946044628B9DD
:10A1C0004FF0FF38404603B0BDE8F0830029F7D0D8
:10A1D000002AF5D0CB680D891D4404230DEB030242
:10A1E0002946384600F0E7FB80460028E8D1BDF854
:10A1F0000410738946F60812914225D1BDF8061065
:10A200009942DDD104230DEB03022944384600F0C6
:10A21000D2FB0028D4D1BDF8042046F607139A4299
:10A22000CED1C4E900679DF82830A4F80890A37245
:10A230007389BDF806202B44E360738913442B44D3
:10A24000043563612561BDE7002BE4D0B8E72DE953
:10A25000F3410E4617461D46044620B94FF0FF3025
:10A2600002B0BDE8F0810368002BF7D04368002BF3
:10A27000F4D04FF6FF78D4E904239A4216D223682B
:10A280005B8923B1E368934204BF04332361042351
:10A29000216960680DEB030200F08DFB0028DDD121
:10A2A000A37A2BB1D4E903329A4201D30120D7E734
:10A2B0002389BDF80610434501F1040203D0BDF81F
:10A2C00004C09C450BD115B1BDF804302B80236927
:10A2D000043333603980236913442361C0E7236961
:10A2E00013442361C7E748B103683BB143682BB10E
:10A2F000C068884294BF0020012070474FF0FF30B3
:10A30000704773B50C4606461146022301AA204643
:10A3100000F0EAF90546E8B9019A1F2A0ED9236828
:10A32000A2F1200119442022304600F03CFC2368B1
:10A33000019A13442360284602B070BD0146C2F161
:10A340002002304600F03AFC019A2168C2F1200058
:10A350003044EAE76FF00205EDE700F014BC4FF47B
:10A36000C07358433030704710B5044600F065FBA9
:10A37000A3684FF4C072303B02FB103010BD70B5C3
:10A380000D46044600F046FE2A46A0F108010423CB
:10A390002046BDE8704000F00EBB13B504460191A5
:10A3A00000F038FE0423A0F108010DEB0302204663
:10A3B00000F073FE02B010BD2DE9F743044690F89B
:10A3C000B8000D461746FBF739FA6946C0B2FCF7EC
:10A3D00099FF38B10126009800F0ECFA304603B03E
:10A3E000BDE8F08394F8B83000982C2255434FF024
:10A3F000580808FB03532344B3F80890DB689944DA
:10A4000004230DEB0302494600F0D5FA0646002866
:10A41000E0D194F8B830BDF80420009808FB03554B
:10A420002C4446F608139A4264891AD1BDF80630C6
:10A430009C4201D00326CEE704230DEB030204EB7C
:10A44000090100F0B8FA0028C4D1BDF8042046F68E
:10A4500007139A42EED1BDF80610214449443960F1
:10A46000B9E7002CF1D0E5E7F8B50F4690F8B81041
:10A4700013461646582201FB020200210446FCF74F
:10A480001BF994F8B85008B1012D0DD1582303FBE6
:10A49000054505F12C02334601212046FCF70CF955
:10A4A00010B1002F08BF0020F8BD02780B789A4247
:10A4B0000FD80BD342784B789A420AD806D34288F9
:10A4C0004B889A4205D860EB000070474FF0FF3090
:10A4D0007047012070470123036003F101234360AB
:10A4E0000023C0E9023370474379012B07D1036889
:10A4F000012B04D10079431E584258417047002077
:10A50000704700F082BA2DE9F84F90F8B830582221
:10A5100002FB03020E46116A8E4204462CD0D26C16
:10A5200096422BD101272C2257434FF0580808FBA5
:10A5300003732344D4F8B4009D6AFFF710FF013D74
:10A5400081464FF0000A94F8B83008FB03732344A7
:10A5500030465B6A03EBC50253F83510D2F804B0FD
:10A560001B685A46C91ADA44FFF7CBFFCA4505F102
:10A57000FF35E8D3BDE8F88F0027D4E70120F9E7DD
:10A5800073B590F8B860582303FB06001546C06CFD
:10A590000C466946FEF79AFBE979012903D0324659
:10A5A000204600F0D1FD9DF80330012B02D120465A
:10A5B00000F0A9FDA9682046FFF7EFFE2046FEF750
:10A5C00065FB002002B070BD90F8B830582202FB45
:10A5D0000300436A00205A68034613448B4200F18B
:10A5E0000100FAD3704710B543790279012B14BFEB
:10A5F000CB01002302F1FF3201FB0233026814BFDA
:10A600004C000C46013A04FB023010BD012070479B
:10A610001FB590F8B830582202FB03046946206A3F
:10A62000FEF754FBE06C02A9FEF750FB9DF80030EA
:10A63000012B0BD19DF80230032B07D19DF80800A8
:10A64000013818BF0120400004B010BD0020FBE716
:10A6500070B50368CD1A002D02DC6FF05F0070BD8D
:10A6600093F900601C78002E0ADB5C1C04601B78E8
:10A6700013600368C91A13688B42EED80020EEE716
:10A6800004F07F04013C032C2BD8DFE804F0020A1D
:10A690001421012DE1D05B7813600368023303605D
:10A6A000E7E7022DD9DDB3F801305BBA9BB2136046
:10A6B00003680333F3E7032DCFDD9C785D78DB7807
:10A6C000240244EA05442343136003680433E6E7A5
:10A6D000042DC2DDD3F801301BBA136003680533C3
:10A6E000DDE76FF06300BAE770B404680E1B002E5C
:10A6F00007DD26789E4208D10134046070BCFFF764
:10A70000A7BF6FF05F0070BC70476FF06100FAE7A1
:10A7100038B503230446FFF7E7FF18B9136813B9E8
:10A720006FF0670038BD013B136023681A78002A78
:10A73000F6D101332360F5E72DE9F34190461F463A
:10A7400001AA302305460E46FFF7CEFF0446F0B9B6
:10A750002B68F61A002E34DD42461B7842F8043B83
:10A76000019B2E681E44314606232846FFF7BCFF96
:10A77000044660B92B68D8F80420C8F80830991846
:10A78000B142296007D10C213846FCF7CFF92046A9
:10A7900002B0BDE8F0819B5C3A46314642F8043B8A
:10A7A0002B6801332B602846FFF752FF60B92B68F6
:10A7B0007A68BB601344B3422B6018BF6FF0650426
:10A7C000E5E76FF05F04E2E70446E0E7002070474A
:10A7D0000FB407B504A951F8040B0191FCF738FA3E
:10A7E00003B05DF804EB04B07047038B13F007036C
:10A7F00005D10368002B0CBF002003207047022BFB
:10A8000005D1408BB0FA80F0400980007047012BE1
:10A8100005D10368002B0CBF0020052070470020E5
:10A82000704710B50C4600B111B96FF0150010BD9E
:10A83000081D00F093F80028F9D1A368032BF6D97E
:10A84000F3E72DE9F0410D4607461946281D9046CD
:10A850001E4600F094F8044638B133464246294675
:10A860003846A446BDE8F0416047BDE8F08110B429
:10A87000EFF31182202484F31288BFF36F8F4161BC
:10A8800010BC0121FCF72ABC38B50C46054658B16E
:10A8900051B10B6843B14B6833B11C22002100F069
:10A8A0008DF92C61002038BD6FF01500FBE770B505
:10A8B00005460E46FFF7B5FF041E14DBEFF31182C9
:10A8C000202383F31288BFF36F8F6B8B2C8B4FF693
:10A8D000FF718B4204F0070407D182F31188BFF3A4
:10A8E0006F8F6FF00A04204670BD022C0CD101332B
:10A8F0006B8382F31188BFF36F8F002322463146AA
:10A900002846FFF79EFFEEE7062C14D8DFE804F098
:10A9100004131313041A0400002333606B683BB95B
:10A92000C5E90066ACB902212846FCF7D7FBDAE797
:10A930001E606E60F6E782F31188BFF36F8F6FF0D1
:10A940000404D0E782F31188BFF36F8F6FF08504A2
:10A95000C9E782F31188BFF36F8FC4E7034658B18C
:10A96000426802F00302012A03D0032A04D10268DC
:10A9700012B10020986070476FF015007047426870
:10A98000816002F00302032A4FF0000203460CBF6D
:10A99000006810465A60704770470FB407B504A9A5
:10A9A00051F8040B0191FCF753F903B05DF804EB87
:10A9B00004B070477047002930B4044618460BDBDA
:10A9C000A5680844A84207D8E06864682144846800
:10A9D0002468A44630BC60476FF0150030BC704757
:10A9E000002930B4044618460BDBA5680844A84289
:10A9F00007D8E0686468214484686468A44630BC71
:10AA000060476FF0150030BC70470029034610B452
:10AA100010460BDB9C680844A04207D8D8685B68E6
:10AA2000194483689B682BB110BC18476FF0150060
:10AA300010BC70476FF05700FAE708B5C06883682C
:10AA4000DB689847006808BD08B5C0688368DB68A4
:10AA50009847407908BD70B54C680368A34201D29D
:10AA6000012070BD8A682244934201D30020F8E798
:10AA7000D1E903254E69B54203D36FF00B038B6117
:10AA8000F4E71B1B42F835304368086902EBC0024B
:10AA900053600B6901330B61E2E737B50C46C0B276
:10AAA00001A91546FCF72EFC00280CDB019850B1DB
:10AAB00021462A46FCF74CFC04460198FFF77AFF32
:10AAC000204603B030BD6FF01504F9E708B500204B
:10AAD000FCF7EEFA7047012801D1EFF3058300F08F
:10AAE0000BBC01460068FFF7F6BF08B5FCF762FC37
:10AAF000BDE8084000F000B8704700210120FFF7D2
:10AB0000EABF61B662B680F31188BFF36F8F7047FA
:10AB1000EFF31180202383F31288BFF36F8F704708
:10AB200072B6002383F31188BFF36F8FBFF34F8F8B
:10AB300030BF62B6BFF36F8F704772B6002383F3E6
:10AB40001188BFF36F8FBFF34F8F20BF80F3118841
:10AB5000BFF36F8F62B67047202809D9B0F1004F5C
:10AB600008D80138B0FA80F0C0F11F0040007047EB
:10AB7000082070473E207047034600201A5C02B947
:10AB800070470130FAE710B55AB10139841810F84E
:10AB9000012B11F8013FA04201D09A42F7D0D01A00
:10ABA00010BD1046FCE710B5431E0A44914200D187
:10ABB00010BD11F8014B03F8014FF7E7C9B2024489
:10ABC0000346934200D1704703F8011BF9E74FF0A9
:10ABD000FF3070470369C9B20C2201FB0233186CC5
:10ABE00000F00700704770B5C9B20369EFF3118533
:10ABF000202484F31288BFF36F8F0C2606FB0134E8
:10AC0000246C14F0C00408D0A24206D085F3118849
:10AC1000BFF36F8F4FF0FF3070BD71430B440122C3
:10AC20001A6485F31188BFF36F8F43680B445B6828
:10AC300098470020F0E78022FFF7D5BFF8B5069FC0
:10AC40000469C9B2EFF31186202585F31288BFF39A
:10AC50006F8F0C2569430C44256C05F0070CBCF183
:10AC6000010F0BD1276486F31188BFF36F8FC4E9FE
:10AC70000E2343685B5898470020F8BD05F0C005D7
:10AC8000AF4286F31188BFF36F8F0CBF6FF0770070
:10AC90004FF0FF30F1E713B580240094FFF7CEFFAB
:10ACA00002B010BD6FF08500704710B40069CBB2E0
:10ACB0001C2403FB0400002110BC10470020FEF7F9
:10ACC00073BA002000F068BAF7B51C461646002398
:10ACD00082682360A36053690D4601AA69469847BC
