:1000000080C90020C9220000A7970000B522000087
:10001000B5220000B5220000B5220000000000005B
:10002000000000000000000000000000B5240000F7
:10003000B52200000000000025240000B5220000C9
:10004000B5270000B5270000B5270000B527000040
:10005000B5270000B5270000B5270000B527000030
:10006000B5270000B5270000B5270000B527000020
:10007000B5270000B5270000B5270000B527000010
:10008000B5270000B5270000B5270000B527000000
:10009000B5270000B5270000B5270000B5270000F0
:1000A000B5270000B5270000B5270000B5270000E0
:1000B000B5270000B5270000B5270000B5270000D0
:1000C000B5270000B5270000B5270000B5270000C0
:1000D000B5270000B5270000B5270000B5270000B0
:1000E000B5270000B5270000B5270000B5270000A0
:1000F000B5270000B5270000B5270000B527000090
:1001000053B94AB9002908BF00281CBF4FF0FF317E
:100110004FF0FF3000F00CB8ADF1080C6DE904CEE3
:1001200000F008F8DDF804E0DDE9022304B07047D0
:10013000704700BF2DE9F04786468C460846089E6A
:10014000154674461946002B40F0C2808542B2FA2B
:1001500082F245D94AB1C2F1200300FA02FC2EFA1C
:1001600003F3954043EA0C0C94404FEA154EA8B2B5
:10017000BCFBFEF8230C0EFB18CC08FB00F943EA8D
:100180000C43994528D9EB1808F1FF3704D299455B
:1001900002D9A8F102072B44A3EB0903A4B2B3FBD5
:1001A000FEFC0EFB1C330CFB00F044EA0344A042AF
:1001B00014D92C190CF1FF3304D2A04202D9ACF1AE
:1001C00002032C44241A43EA07401EB1D440002302
:1001D00034607360BDE8F0874746DDE76346F1E7CA
:1001E00092BB431B01214FEA154EAFB2B3FBFEFC9D
:1001F000200C0EFB1C330CFB07F840EA0343984528
:1002000062D9EB180CF1FF3004D2984502D9ACF159
:1002100002002B44A3EB0803A4B2B3FBFEFC0EFBCD
:100220001C330CFB07F744EA0344A7424ED92C19B0
:100230000CF1FF3304D2A74202D9ACF102032C44E3
:10024000E41B43EA0040C0E7C2F1200320FA03F1B7
:10025000954090402EFA03F303434FEA154EAFB298
:10026000B1FBFEFC0EFB1C10190C0CFB07F841EA5D
:100270000041884504FA02F422D969180CF1FF30D4
:1002800004D2884502D9ACF102002944A1EB08014F
:100290009BB2B1FBFEFC0EFB1C110CFB07F743EA03
:1002A00001439F420ED9EB180CF1FF3104D29F425B
:1002B00002D9ACF102012B44DB1B41EA004192E779
:1002C0006046E3E76146F7E76046A3E76346B7E7C2
:1002D000834206D916B9002108467BE7C6E900E04B
:1002E000F9E7B3FA83F78FB9834201D3724508D88F
:1002F000BEEB020460EB030301209C461EB9002103
:1003000068E73846FAE7C6E9004CF8E7C7F1200C81
:10031000BB4022FA0CF41C432EFA0CF120FA0CF329
:10032000B84001434FEA14490EFA07F5B3FBF9F858
:100330001FFA84FE09FB18300B0C08FB0EFA43EA87
:1003400000439A4502FA07F240D9E31808F1FF305A
:1003500004D29A4502D9A8F102002344A3EB0A0370
:1003600089B2B3FBF9F809FB183308FB0EFE41EA2A
:1003700003418E452CD9611808F1FF3304D28E4514
:1003800002D9A8F10203214443EA0040A0FB0298ED
:10039000A1EB0E014145CE46434602D306D14D4561
:1003A00004D2B9EB020E68EB04030138002EA6D08C
:1003B000B5EB0E0261EB030101FA0CFC22FA07F324
:1003C0004CEA0303F940C6E9003198E74046C5E727
:1003D0004346D9E7F0B52E4B2E4AC3F800262E48E7
:1003E000C3F8042685B0C3F808264921C3F80C26B3
:1003F000C3F81026C3F81426C3F81826C3F81C2621
:1004000009F04BF908F014FD01A800F09FFC234B04
:100410001B68834204D02248452109F03EF9FEE7DB
:10042000039A2048492109F038F91F48492109F069
:1004300034F94FF48031002009F043FE044620B126
:100440001A48452109F029F9FEE769469DF8080098
:1004500000F030F8009B039D1D44019B1E8904F0B1
:100460000FFCAF1900F0D2FF00F0A6FF01F068FF0B
:10047000AB5983F3088884F31488BFF36F8FBFF3FD
:100480006F8F7B6898470A48452109F006F9FEE717
:10049000000001403546526E78B100009004002003
:1004A00091B10000B4B10000E3B1000008B2000057
:1004B0003BB2000008B5024638B10548002345218B
:1004C00009F0EBF86FF0150008BD0860FCE700BF0D
:1004D0005EB2000021B1012906D06FF0150070470F
:1004E000044B53F830007047024B03EBC0035868CD
:1004F000704700BF48AC00002DE9F04F7E4FDDB0E3
:10050000DDE9688914461D46DDF8A8B13E6800F0B3
:100510001DFF7A4B0122C3F800253CA807F0ACFB75
:10052000B8F1000F07D0B9F1000F04DD4A4641468B
:100530003CA808F0A3FF23896289D4F80CA01344D7
:100540009A444FF00008C24551D80FA93CA807F0C3
:1005500005FC6A4B0022C3F80025C3F80025BBF157
:10056000000F04D020220FA9584609F04EF90023AD
:1005700000932A464FF6FF73214609A808F059FC5C
:100580000390002844D128460E9C00F079F984425B
:100590003ED8DFF870B1DFF864914FF0FF340DF111
:1005A0001E0307AA08A909A808F091FC00282FDB60
:1005B00040F09B80BDF81EA0BAF1100F31D1BDF8FC
:1005C0001C80B8F1200F23D1089943463CAA284645
:1005D00009F071F8E0B942463CA90FA808F0EFFC19
:1005E000474B1B68834213D101230393D7E7679BD3
:1005F000669AAAEB0809994528BF99464B46414699
:10060000284609F058F828B13C4B0022C3F80025D1
:100610003E686DE066994A463CA808F02FFFC84442
:1006200091E7BAF1010F3FD1BDF81C30202BEFD874
:1006300008993CAA284609F03EF804460028E7D16C
:100640009DF81C300493202B0AD8DBF80030DFF82B
:10065000B8800593059B9C4205DB0023C9F8003553
:100660004FF0FF349BE700F071FEC9F800A51FA80A
:1006700007F002FBD8F8042058F8081B12681FA8DE
:1006800008F0FCFE17A91FA807F068FB0022C9F8B4
:100690000025049A3CA917A809F0A7F810B9C9F8D1
:1006A00000057CE70134D5E7BAF1220F7FF477AF7C
:1006B000631C3FF474AFDBF80030A342D0DDBDF81B
:1006C0001C30802BA4D808993CAA284608F0F3FFD8
:1006D00000289DD1E4B2BDF81C3000943CAA202132
:1006E0000FA800F013F80646BAE7039B002B8FD043
:1006F00030465DB0BDE8F08F0400002000A002503D
:100700009004002050AC000054AC00002DE9F047EC
:1007100096B016461D469DF87820374BDFF8E880E6
:1007200053F83210019103EBC20307465B68D8F817
:100730000090186802AA0144302301A808F02CFE9A
:10074000002851D1DDE901431C4403AA06AB214630
:1007500001A808F049FE002846D1049A072A43D18F
:100760002649059809F041F800283DD1079A082A42
:100770003AD12349089809F038F8A8BB02AA2146C3
:1007800001A808F01DFE78BBDDE901A30AEB030216
:10079000944229D1412B27D13544302303AA29463D
:1007A00002A8029608F0F8FDE0B9DDE90232134430
:1007B0009D4217D32A4602A906A808F0D4FB88B99F
:1007C0002A4602A90EA808F0CEFB58B99AF80030C4
:1007D000042B07D1202306AA0AF10101384600F0B4
:1007E000CDFD28B1D8F80090484616B0BDE8F08796
:1007F000044BD3F80090F7E754AC00008DB2000032
:1008000084B200009004002004000020094A0B7804
:10081000400052F820108B4209D0013052F82000DD
:10082000834214BF4FF0FF304FF4C05070474FF475
:10083000C05070475CAC00001FB50F4B13F8300080
:100840000C4601F07BF950B92068816810236A4694
:10085000103908F030FF28B1206808F02BFF4FF066
:10086000FF3006E005491022684608F0BEFF002868
:10087000F2D104B010BD00BF5CAC000068B1000054
:1008800013B5044608F0A2FB6A460146204608F06C
:10089000B6FA30B10448452108F0FFFE002002B04E
:1008A00010BD0098FBE700BF95B200002DE9F041B4
:1008B000364B88B0064600200D461C68FFF70AFE3E
:1008C00006A9C0B201F03AF9002858D12946FFF72D
:1008D00001FE2C2407A9C0B204FB056401F02EF927
:1008E000002833D02C276F4306EB0708069BD8F867
:1008F000101011F0100138D14FF480720192244A87
:100900000092CDE90311224602910846FFF7F4FD5B
:100910000446204BF25906989A420CD1D8F80C2084
:10092000B8F808309B1806D28268934203D21A4B5B
:100930001B68A34220D035B38268002108F0E5FE91
:10094000164A1748452108F0A8FE13E0079808F05A
:10095000F9FE0746079808F0ADFE631EE21C13F887
:10096000011FB942BED19342F9D11DB1069930465B
:1009700008F017FC0B4B1C68069808F09BFE2046FD
:1009800008B0BDE8F081084ADBE700BF04000020A2
:100990001C9200203DB8F39690040020D8B20000CD
:1009A000E2B2000000000020D0B200007FB50D468A
:1009B000044600212846CDE9021108F0B1FB28B316
:1009C0002368194EB34203D103AA204608F03CFB2A
:1009D000E36AB34204D102AA0121204608F034FBA5
:1009E000DDE90232934288BF0393039BAB60039A15
:1009F0002946204600F0A8FB0C4B1A68002A03DDAC
:100A00000B48572108F049FE04B070BD01A9FFF75B
:100A100013FF019805F1080108F0E3FAAB680198AB
:100A2000039308F047FEE2E73DB8F396F488002010
:100A30000AB300002DE9F84FDFF878B01B4C1C4DCD
:100A4000884691469A4600260B9B9E4201D3002081
:100A50000FE00B9B174A9F1BB7F5806F28BF4FF421
:100A600080673B4606EB0A01404608F024FE10B1C1
:100A70000120BDE8F88F0A993B465A46711848464E
:100A800008F02EFE0028F3D1C4F800563E44C4F806
:100A90000456C4F80856C4F80C56C4F81056C4F8E6
:100AA0001456C4F81856C4F81C56CDE7000001408F
:100AB0003546526E94840020F0B59A4B43620E4640
:100AC000994B0365002189B004460846FFF702FDF3
:100AD00004F120010546C0B201F030F80346E8B940
:100AE0000121FFF7F7FC04F14C010546C0B201F00B
:100AF00025F80346E0B9204608F0E7FA0546C8B9EC
:100B000000221146204608F089FA054668B3874856
:100B10000022572108F0C1FD01239DE00022CDE90C
:100B20000023834800232A46452108F0B6FDFEE74E
:100B30000122F4E77F484FF40062572108F0ADFD31
:100B400001239D4284F85830DAD194F858308DF85A
:100B50001730042B00F28380012B00F2878000F015
:100B60009A80FF2384F8583095E0204600F002FA7E
:100B70000028D1D004A808F0CAFA0146204608F09F
:100B800065FB18B16C482A465721C3E704A808F052
:100B9000C7FA80F0010104AAC9B2204608F03EFA63
:100BA00002460028B3D104A808F0BAFA054660BB93
:100BB00004A92046FFF7FAFE9DF8173084F8583054
:100BC000033B012B06D8284600F0E6F810B1FF23BE
:100BD00084F858309DF81730023B022B0BD80020C8
:100BE00000F0C4F838B1FF2384F858305348452149
:100BF00008F053FDFEE794F85830FF2BF6D004AA16
:100C00000021204608F00AFA86E79DF81770012FA8
:100C100017D1104604F0EAF8831E022B05460DD8C2
:100C200039462046FFF742FE454B1B68984205D0E7
:100C3000444B1D68A84214BF0525012584F858506F
:100C400083E701212046FFF731FE3D4B1B689842A8
:100C50000CBF9DF81730052384F8583075E7052B35
:100C60007FF47FAF002000F097F811E004A9204640
:100C7000FFF79CFE94F85830DA1E012A14D80020A1
:100C800000F08AF800287FF46CAF002000F06EF8C6
:100C900000287FF466AF94F85830FF2B07D127481F
:100CA000452108F0FAFCFEE7022BF4D1EDE7002223
:100CB000012B254D039214D01146204608F0AEF9C1
:100CC00078B12D68102200210DEB020008F0A8FD7C
:100CD000E06C08F0EFFC206A08F0ECFC284609B054
:100CE000F0BD00212046FFF7E1FD154F3B6898421B
:100CF000E7D12B689842E4D0124B1B689842E0D0B1
:100D0000039B01330393039B012B00D0FEE7206A72
:100D100008F073F83071236A5B6834603D68B36033
:100D2000D0E700BF9444002094040020C8B3000022
:100D300039B3000086B30000F4B300001EB4000015
:100D400090040020000000200400002038B5064D6B
:100D5000044660220021284608F062FD214628460C
:100D6000FFF7AAFE38BD00BF9488002013B5094BD9
:100D700001A913F8300000F0E1FE48B9019809F02C
:100D800059FA0446019808F095FC204602B010BDBF
:100D90000124FAE764AC00001FB50F4B01A913F85A
:100DA000300000F0CBFEA8B9019802A903F0C8FFFB
:100DB000044668B99DF80B30032B03D1019809F064
:100DC00007FA0446019808F075FC204604B010BDEF
:100DD0000124F7E70124F8E764AC00002DE9F341B2
:100DE00006460C4617461D460BB9002628E0184655
:100DF00008F096F90028F8D16946FFF71DFD009824
:100E000038B90124009808F055FC204602B0BDE82E
:100E1000F08101A908F0E5F80028F2D1009808F067
:100E200049FC3046019908F04EFA736A5E686B79A6
:100E3000012B21D1002CD8D12B68834298BF0026EA
:100E400021460020FFF746FB6946C0B200F076FE5F
:100E50000028D6D1009820233A46314608F02BFCD2
:100E600004460028CDD1002DCCD03C680D4BE41AAF
:100E700018BF4FF0FF34C5E7022BB6D12B68012B0A
:100E800005D98342B1D8B4FA84F46409ADE7ACD192
:100E9000002CD5D0012CA8D12C79023C18BF0124FC
:100EA000A3E700BF3DB8F3962DE9F04F074685B0A4
:100EB0000C46014600201646FFF7A8FC051E52DB33
:100EC0003846E46D08F082F85FFA84F96B1E09FB7E
:100ED00003084FF0000A4FF0010B4FF0FF34A5B9A3
:100EE000BAF1010F03DD2248452108F0D6FB631C4F
:100EF00007D0B4F5006F2ADA013440F201133460F0
:100F0000B380284605B0BDE8F08F6B1E00930DF14D
:100F10000F0201234146384608F0CDFB031E019322
:100F200023DB01220DF10F01384609F0ECF8019B9B
:100F300040B15B4501D00AF1010A009DA8EB090808
:100F40009B46CCE7B4F1FF3F08BF2C46F5E70223F0
:100F5000A4F500647371631004F0010401330134DB
:100F600033603471CDE70725CBE70125C9E700BF22
:100F70002AB4000038B5816A426D914208D0531CF2
:100F80008B4205D01448572108F087FB002038BD5C
:100F9000B1F5006F1CD911485721F5E7446A056D7A
:100FA00004EBC30405EBC30564686D68AC4202D072
:100FB0000B485721E8E701339A42EFD1914205D916
:100FC000436A03EBC2035B68A342F1D10120DEE771
:100FD00000231C46F0E700BF4DB4000085B40000BC
:100FE000B4B4000000B589B004A9032009F0FDF8ED
:100FF0009DF81020012A41D0254B2649032A08BF1D
:101000000B469DF8132002929DF8122001929DF844
:101010001120214800924921204A08F03EFB06A9F0
:10102000012009F0E2F89DF81820012A28D0184B79
:101030001849032A08BF0B469DF81B2002929DF811
:101040001A2001929DF8192000921348144A492150
:1010500008F023FB9DF81030012B13D19DF81230BE
:10106000032B0FD19DF81830012B0BD00D484921CF
:1010700008F013FB022009B05DF804FB0A4BC0E73F
:10108000094BD9E70948492108F007FB0020F2E79E
:10109000E0B40000E9B40000FDB40000EFB40000CB
:1010A0003EB500004EB50000E4B400006DB5000090
:1010B00070B54B6814461E4A03F0FF23934286B076
:1010C00006460D462FD10B68012B2CD104A92046D2
:1010D00003F036FE9DF81020012A26D0154B164944
:1010E000032A08BF0B469DF8132002929DF8122098
:1010F00001929DF8112000921048114A492108F0F0
:10110000CCFA9DF81030032B0DD12146304608F063
:1011100048F8204609F05CF8A968204607F06FFF00
:10112000204603F0EDFD06B070BD064BDBE700BFC7
:1011300000010004E0B40000E9B40000FDB40000C8
:101140003EB50000E4B400002DE9F04F164689B02A
:1011500005460C467448492108F09FFA3146284656
:1011600008F0B1F86B6A824620465E6807F0D8FF47
:10117000E8B1E86D07F025FFAF6A0023013F334473
:10118000834201D2013FFAE7BA4510D3674857219D
:1011900008F083FA07FB06F365480AFB066257214D
:1011A00008F07BFA0123E37109B0BDE8F08F06A9CE
:1011B000032000F0C3FC07A9012000F0BFFC079A40
:1011C00021462846FFF774FF6379012B4BD1DFF8E6
:1011D00064B1574641E02268C2F1010353449F4283
:1011E0003AD86B6A196853F8370003EBC703012A32
:1011F00053F8083CA3EB0103A0EB0109049311D1C0
:10120000079B0393E368022B08D04146284607F06A
:10121000C8FF22464146284607F0F9FF03992846B1
:1012200007F0BFFF32464946404607F0B8FF049B2F
:1012300042464146CDE900962846FFF7FBFB214692
:10124000284607F07AFF23680133236020B1DBF8DA
:1012500000300133CBF80030013FDDF81880002F5B
:10126000B9D101232360022363710127BA45DDF858
:10127000189006D2484608F01DFA079808F01AFAA6
:1012800092E723689F424DD36A6ADDF81CB052F89A
:1012900037100491FB00083B11680391D1582A6D67
:1012A000D0581368A0EB03082379012B38D1039B96
:1012B0003246C91A4846059107F071FF0599009119
:1012C00043464A46594601962846FFF7B3FB214656
:1012D000284607F032FF0223237118B1154A13681C
:1012E0000133136032464146584607F058FFDDE9A6
:1012F000032349469B1ACDE900865A462846FFF744
:1013000099FB2146284607F018FF23680133236024
:101310000123237130B1074A13680133136001E0E0
:10132000022BDFD00137A1E784B50000ADB5000086
:10133000DCB50000F48800200A4619B1024B0021F8
:101340001B681847704700BF0800002070B5094DA2
:101350002B780BB1002070BD074C0126C4F8006546
:1013600006F02CFD18B92E70C4F80005F2E74FF016
:10137000FF30F0E71C93002000A002502DE9F0415F
:10138000DFF83080ACB01F4606460C461546FFF726
:10139000DDFF0123C8F800352A4633460097214671
:1013A00003A809F089FA0023C8F800352CB0BDE87D
:1013B000F08100BF00A00250BFF36F8F72B6124BD6
:1013C0004FF0FF32C3F88020C3F88420C3F8882090
:1013D000C3F88C20C3F89020C3F89420C3F8982059
:1013E000C3F89C20C3F88021C3F88421C3F8882166
:1013F000C3F88C21C3F89021C3F89421C3F8982135
:10140000C3F89C21704700BF00E100E0164A4FF08E
:10141000FF3301215160C2F84833C2F8083302F5A6
:10142000C0425160C2F84833C2F8083302F598321E
:101430005160C2F84833C2F80833A2F508320021DF
:10144000C2F80015C2F8083302F51832C2F80015C8
:10145000C2F80833A2F51042C2F808354FF08042B6
:10146000C2F80833704700BF00B00040014B1B6852
:10147000184700BF0C000020014B1860704700BFE8
:101480000C00002007B50B460021024600910348DE
:1014900000F014F903B05DF804FB00BF6D14000008
:1014A0002DE9F047058B04462807904611D4022900
:1014B00005F0070540F0CD80204608F013F878B11C
:1014C0000138218B042811D8DFE800F0C3106D85A6
:1014D000950001290CBF45F0100545F02005258336
:1014E00088F31188BFF36F8FBDE8F08701F0070A1A
:1014F000AA4500F0A6800027B9463E46A368002B07
:1015000000F0BD8041F00801218388F31188BFF30A
:101510006F8FA168002900F0BB800D68002900F0E2
:10152000B780D1F80480334652462046C047002D8C
:1015300076D02B6829461D46F0E701F007035A1FB5
:10154000012A1BD8002221F00701062B276889B247
:10155000C4E9002209D13B4603E0628B0132628379
:101560001B68002BF9D141F002012183204607F0CE
:10157000B9FF00287BD041F0200177E0042B0AD18D
:1015800021F0070189B22183204607F0ABFF10B19B
:1015900041F020012183218B01F0070AAA4550D098
:1015A0000027B946AAE7236921F0070141F00601A7
:1015B000062DD3F8009021832DD1B9F1000F40D032
:1015C00041F00801218388F31188BFF36F8F3A49F6
:1015D0002046C84729E021F00701236941F00401B2
:1015E00089B2042DD3F804902183E6D000273E462B
:1015F0004FF0040A82E721F00701236941F0050159
:1016000089B2052DD3F808902183D6D000273E4615
:101610004FF0050A72E700273E464FF0060A6DE7D5
:101620002B4687E7B9F1000FD1D14FF02003EFF33C
:10163000118883F31288BFF36F8F238B23F0080385
:101640002383258BEA062ED525F01003238305F08E
:1016500007056669218B002EBFF66FAF0023276850
:10166000C4E9003321F0070141F001012183218BFE
:1016700001F0070AAA454FF000097FF43FAF002FA1
:101680009BD041F00801218388F31188BFF36F8F4D
:10169000002FC7D03D68394633465246204607F0F2
:1016A0004DFF2F46F4E7AB067FF51AAF25F0200378
:1016B000238305F00705FFE6699500002DE9F04F4B
:1016C0008DB01D46531E8246019103934FF00009D1
:1016D000039B5878252803F1010419D11E460020E8
:1016E0004FF0FF38023603460290444631780396A5
:1016F000392954D81F2914D8002900F0EE81019906
:101700002520D04701993078D04709F10209DFE759
:10171000002800F0E2810199D04709F10109039402
:10172000D6E7A1F12002192AE9D801A757F822F03B
:1017300099170000FF160000FF160000991700001F
:10174000FF16000019180000FF160000FF16000029
:10175000FF160000FF160000651800009917000032
:10176000FF1600007918000025180000FF16000081
:1017700033180000531800005318000053180000DD
:1017800053180000531800005318000053180000AD
:10179000531800005318000008460136A6E75829E0
:1017A00000F0EB80A1F16302D7B2172FA7D8172A58
:1017B000A5D801A757F822F0211A00009F180000B1
:1017C000FF160000FF160000FF1600007F18000043
:1017D0009F180000FF160000FF1600007F18000091
:1017E000FF160000FF160000FF160000551900004C
:1017F000FF160000FF160000F5190000FF1600009C
:101800009F180000FF160000FF1600005519000089
:10181000FF1600007F18000001992520D04709F12C
:10182000010955E7029A02F0FE0202924FF0000809
:10183000B3E7002C0DDAB8F1000F0DDA029A002A96
:1018400000F0438124EAE4740A2202FB0414303CD1
:10185000A3E7B8F1000FF5DB0A2202FB0812A2F1A0
:1018600030089AE7B8F1000F55F8042B80F22F8169
:10187000002A80F22E815442022202928DE76829CA
:1018800003D1682B06D1482387E76C2902D16C2B42
:1018900000F02181002B7FF432AF0B467DE77A2BDD
:1018A00006D1752955F8046B14D14FF0000B0CE0EC
:1018B0006C2BF6D04C2BF4D1073525F00703752996
:1018C000D3E9006B03F1080506D120283BD1854FF1
:1018D000013C09E04FEAE67BBBF1000FF5DA764206
:1018E000814F6BEB4B0B013C0DF12D030593002356
:1018F0000493304659460A220023FEF701FC059B5B
:10190000303203F8012DB4460593049B5A46BCF1CE
:101910000A0F8B4672F1000203F1FF310646049173
:10192000E7D2C3F1010B30330DEB0306B8F1000F22
:10193000A6F104066DDA029BD9077DD4A8EB0B0350
:10194000A4EB0B0413E02B280ABF684F684F04F187
:10195000FF34C9E770290FD155F8042B0023FAB9D9
:10196000634F644E053C6FF004034FF0050B029A81
:10197000920770D4A04666E078216C2B03D155F80D
:10198000042B002308E04C2BF9D1073525F0070381
:101990001D465B6855F8082B232825D1880621D5DC
:1019A000554F023C01F06001A1F1390B0DF12D0EF4
:1019B000002602F00F01092988BF594430310EF882
:1019C000011D102A4FEA121141EA03714FEA131C5C
:1019D00073F1000306F1FF3008D2C6F1010B06F1E6
:1019E0003003A1E7454FDCE7414FDBE706460A46F7
:1019F0006346DEE755F8046B304607F0EFFEB8F1BA
:101A0000000F834602DB4045A8BFC346384F4FF066
:101A10000008A8EB0B03002B92DDA4EB0804A6E75B
:101A200055F8043B8DF81830314F013C4FF0FF332F
:101A30004FF0010B06AE9AE7A046EAE70293019940
:101A40002020D047029BB8F10108F7D524EAE472C0
:101A5000013C9144A41AB84606E00493029201990D
:101A6000D047029A049B9046424612F8010B002888
:101A7000F3D11A46013A15D5002BACBFC7EB0307CB
:101A80007F425B46013B15D5BBF1000FA8BF5F4409
:101A90004F442646013E14D5002CA8BF3F1907EB42
:101AA000080915E60493029201993020D047049B5F
:101AB000029ADFE70293019916F8010BD047029BC7
:101AC000E0E701992020D047E4E70122D5E69046DF
:101AD00063E6144661E64C235FE648460DB0BDE878
:101AE000F08F00BFCDBA000079B600007BB60000D1
:101AF000C0BD000083B600007DB6000080B60000C7
:101B000008B504464FF02002EFF3118382F31288E8
:101B1000BFF36F8F03F0B4F8204600F0FFFB0348DB
:101B200007F0C9FC00F020FEFCE700BF89B600000A
:101B3000014B03600020704770AC000070B5114B82
:101B40001C680D46DCB1104B196800238B4202DB88
:101B50006FF0010070BD224612F8106B864202D071
:101B600001331446F2E7E06810B96FF01200F1E7B4
:101B700008F022FD0028F8D02C600020EAE76FF082
:101B80000C00E7E71000002070AC000070B588B0D2
:101B900005460C46C0B269461646FFF7CFFF00283F
:101BA0001BDB0098C8B143680293836822680195E3
:101BB000CDE903360023CDE906230593C56807F078
:101BC00079FD6DB12846084901AA08F05AF807982E
:101BD00008B9059B236008B070BD6FF01500FAE7E7
:101BE0006FF01200F7E700BF53970000014805F0BF
:101BF0005FBD00BFE4AC000038B5044618B90F4B18
:101C00000F485B6898476168B1F5683F10D0B1F53F
:101C1000680F0DD00B4DA9420AD011F468612068FD
:101C200007D00146084808F0FAFC002323606560ED
:101C300038BD142207F0F4FDF9E700BF0C020020C4
:101C4000B2B600002C5F5CA9F88D002008B520B367
:101C50004368B3F5683F10D101220368BFF35B8F7F
:101C600053E8001F002903D143E800200028F7D1E2
:101C7000BFF35B8F0DD1002008BD094A93420AD003
:101C800000684FF0FF324FF0FF3304F07DFF002873
:101C9000F1D00448F0E70448EEE76FF4E040EBE7EA
:101CA0002C5F5CA9E98FFFFFEA8FFFFF08B5D8B171
:101CB0004368B3F5683F10D100220368BFF35B8F20
:101CC00053E8001F012903D143E800200028F7D181
:101CD000BFF35B8F0BD1002008BD074A934208D0A9
:101CE000006804F015FFF6E76FF4E040F4E70348FE
:101CF000F2E70348F0E700BF2C5F5CA9E98FFFFF24
:101D0000EA8FFFFF10B5044618B91D4B1D485B68EC
:101D100098476368B3F5683F2FD0B3F5680F2CD0B0
:101D2000194A934219D1236803BB18484FF0FF3278
:101D30004FF0FF33214604F03FFE08B923681BB97A
:101D40000F4B13485B68984720681422002107F066
:101D500067FD4FF46863636008E0B3F5683F0DD832
:101D60003A2B03D040F6BA629342DED1206808F0E5
:101D700098FC636843F03A03636010BD054AF3E7DB
:101D80000C020020B2B600002C5F5CA9F88D002088
:101D9000D8B600003A00003A08B506490648402384
:101DA000142208F02EFCBDE808400449044805F060
:101DB000F1BC00BFF8880020F88D0020ECAC0000DA
:101DC00000AD00002DE9F041074686B00C46002921
:101DD00039D08B680093D1E900231E48DFF8888052
:101DE000452107F05AFC63690093D4E903231A489C
:101DF000452107F052FCE2691848452107F04DFCE7
:101E000026460025F36A0593EB1C0493B36A0393FB
:101E1000AB1C0293736A01936B1C0093336A2A46CE
:101E200045214046043507F038FC102D06F1100618
:101E3000E8D1226E0A48452107F02FFCA269094823
:101E4000452107F02AFC2146384606B0BDE8F0419E
:101E500004F054BC05B7000039B700006DB70000AE
:101E6000C9B70000DDB7000081B7000030BFFFF741
:101E7000FDBF00BF044B99689869884203D00349AD
:101E80004FF080520A6070470C90002004ED00E093
:101E90002DE9F843364D8046894636484521174698
:101EA00007F0FBFBAB6ADE0626D53348452107F079
:101EB000F4FB1124AB6A1D0704D53048452107F017
:101EC000ECFB12242A4DAB6A980717D545212C4804
:101ED00007F0E3FB6E6BAB6A190645D5294832461D
:101EE000452107F0DAFBB9F1000F03D0AB6A23F00C
:101EF0008003AB62132403E01024DBE76FF01506C8
:101F00001B4DAB6ADA0704D51F48452107F0C5FB16
:101F10001424AB6A9B0604D51C48452107F0BDFB81
:101F20001524134B9A6AD50602D49A6A90070AD5EB
:101F30005B68190507D54146304600F0A9FB10B192
:101F400080F3098802240A4B9A6A920642BF5A6AB1
:101F500022F400525A629A6A42F0FF029A62002307
:101F60003B702046BDE8F8836FF01506C2E700BF5E
:101F700000ED00E010B800002BB8000063B80000CE
:101F80007BB8000098B80000B3B80000D7B80000D4
:101F900010B5204C2048452107F07FFBA36A99012A
:101FA00036D51E48452107F078FB1E20A36ADA01CA
:101FB00004D51B48452107F070FB1F20154CA36A70
:101FC0001B0304D51748452107F067FB2120A36AAE
:101FD000590304D51448452107F05FFB22200D4C1E
:101FE000A36A9A0304D51148452107F056FB232024
:101FF000A36ADB0304D50E48452107F04EFB2420DD
:10200000044A936A6FEA03436FEA1343936210BD75
:102010001D20CBE700ED00E00BB9000028B900005F
:1020200040B900005FB9000082B90000ACB90000FF
:10203000CBB9000070B5284C06460D46274845210F
:1020400007F02BFBA36AD9043BD52548452107F0AF
:1020500024FB1720A36A1A0504D52248452107F05E
:102060001CFB18201C4CA36A9B0511D51E4845215A
:1020700007F013FBA26BA36A180408D51B4845217F
:1020800007F00BFB1EB1A36A23F40043A3621920DF
:10209000114CA36A590504D51548452107F0FDFAEE
:1020A0001A20A36ADA050ED51248452107F0F5FA81
:1020B0001B20094A936A43F47F43936200232B70E9
:1020C00070BD1620C6E7A36A9B04F2D50A484521D5
:1020D00007F0E3FA1C20ECE700ED00E0FBB900009C
:1020E00016BA000063B800002CBA00004ABA00001B
:1020F00064BA000084BA0000D7B800002DE9F041AE
:102100005D4B5F689CB00546C7F30804002686F364
:102110001188BFF36F8F02F07F43B3F17F4F07D178
:1021200002F00C03082B14D15448452107F0B5FAEE
:10213000002635464FF00008E31E8DF80780092B76
:1021400000F28780DFE803F00A7A7E768585858550
:10215000858210074CBF0D460126EBE74848464CE8
:10216000452107F09AFA8DF80780E36A9A0705D5AA
:102170004448452107F091FA002433E0E36A002B3C
:1021800002DA41484521F5E7E36A5B00F4D53F48B0
:10219000452107F082FA6369AA6943F48073636199
:1021A000BFF34F8FBFF36F8F636932F8022C23F4B4
:1021B00080736361BFF34F8FBFF36F8F4DF6027370
:1021C0009A4209D0A36ADBB233B30DF107020121B1
:1021D0002846FFF75DFE2FE02A682D48452107F0CD
:1021E0005CFA2C689DF807309BB96822294602A842
:1021F00007F00BFB099B002E38D0C3F3080222B96D
:102200006FEA53236FEA4323099302A92046FFF79D
:10221000D9FD1CB0BDE8F081A36A13F47F4F05D04F
:102220000DF107010120FFF705FF05E0A36AB3F5F3
:10223000803FA1D3FFF7ACFE0446D3E70DF10702C0
:102240000021C5E70DF107010020ECE71148452109
:1022500090E71149114A124817F4F87F08BF0A465F
:10226000A4F11003452107F018FA85E723F4FF7362
:1022700023F00103C8E700BF00ED00E0CFBA000083
:10228000FFBA00001BBB000041BB000054BB0000B4
:1022900078BB000099BB0000A1BA0000B6BA0000EC
:1022A000C2BB0000024A536943F0100353617047F8
:1022B00000ED00E0EFF30880EFF3098101B572460D
:1022C000FFF71CFF01BD00BF002080F31488BFF39F
:1022D0006F8F00F0FFFB00200D490860BFF34F8FA8
:1022E0000C4880F3088800F03DF8202080F3118826
:1022F00009484FF40461401880F30988EFF3148013
:102300000221084380F31488BFF36F8F00F02AF98D
:1023100094ED00E080C9002080970020BFF34F8F2C
:102320000549064BCA6802F4E0621343CB60BFF371
:102330004F8F00BFFDE700BF00ED00E00400FA058D
:102340000749D1F890200023C2F307221846934290
:1023500000DB7047C1F89830C1F8A0000133F6E700
:1023600000ED00E008B572B6002383F31388FFF791
:10237000E7FF144B4FF0FF32C3F88020C3F88420EE
:10238000C3F88820C3F88C20C3F89020C3F89420A9
:10239000C3F89820C3F89C20C3F88021C3F8842197
:1023A000C3F88821C3F88C21C3F89021C3F8942185
:1023B000C3F89821C3F89C2162B6BFF34F8FBFF3D7
:1023C0006F8F08BD00E100E0084B9B6883420BD192
:1023D000EFF3058343B1064B5A6842F080525A60CE
:1023E0005A6A22F400425A6208F02BBA0C9000207C
:1023F00000ED00E0094A93686FF00A019967084907
:1024000058674B6843F080534B60002383F3118877
:10241000BFF36F8F9368986F704700BF0C900020D8
:1024200000ED00E021498A6882F8BDE04FF03000FD
:102430001044EFF3098C80E8F01F1EF0100F03D159
:1024400002F17C0080EC108A202080F31288BFF318
:102450006F8F174F4FF000668A698A603E6092F96D
:10246000BDE0506F0023536780F311881EF0100FFA
:1024700003D00023E1EE103A03E002F17C0090EC7F
:10248000108AEFF3148323F0040383F31488BFF35B
:102490006F8F04B5104600F0ADF9BDE8044002F1BD
:1024A000300090E8F01F8CF3098870470C900020F2
:1024B00004ED00E01EF0040F0CBFEFF30880EFF313
:1024C0000980816911F8021C0229FFD001B507F0CB
:1024D00066F901BD40B2002807DB044A4109012327
:1024E00000F01F00834042F82130704700E100E017
:1024F00040B200280CDB4309064900F01F002033DE
:102500000122824041F82320BFF34F8FBFF36F8F2A
:10251000704700BF00E100E0054B420900F01F00DA
:1025200053F82220012303FA00F01040704700BF47
:1025300000E100E040B20028A8BF00F1604001F1D6
:102540000101B8BF064B4FEA4111ACBF00F5614035
:1025500000F00F00C9B2B4BF195480F800137047DF
:1025600014ED00E0144A08B5144B22F07F029A6083
:10257000BFF34F8FBFF36F8FD3F8882022F4700220
:10258000C3F88820D3F8882042F4A002C3F888203A
:102590004FF04042C3F83422BFF34F8FBFF36F8F29
:1025A0000023E1EE103A04F035F904F0D7FE00F014
:1025B000F5F804F081F900BF0000000000ED00E034
:1025C000017B890705D5416E40314166816E4039F6
:1025D000816642F8203C009B42F81C3C0F49019B5D
:1025E00042F8183C029B42F8143C21F001014FF0E4
:1025F000807342F8043C42F8081C00234367037BC5
:1026000013F0020FA2F120024FF6085308BF4FF457
:102610007D430265C0F8BC30704700BFD194000014
:10262000037B13F0020F194B03D190F8BD20D206A3
:1026300017D45A6B42F080425A63D0F8BC30190765
:1026400009D443F00803C0F8BC30436E40334366FE
:10265000836E403B8366037B43F002030373802059
:1026600070475A6B22F080425A63D0F8BC301A0788
:1026700001D44020704723F00803C0F8BC30436EFB
:10268000403B4366836E40338366F2E700EF00E031
:102690000C4A03469068A0B1D0F8BC20406E12F0FE
:1026A000080F0CBF4022802213F1160F04D0821AAB
:1026B0009A4205D8834203D2814228BF0020704746
:1026C000002070470C900020114B9B6883421BD167
:1026D000EFF30580C0B94FF02002EFF3118182F3D0
:1026E0001288BFF36F8F1A7B22F002021A73EFF386
:1026F000148323F0040383F31488BFF36F8F81F3F3
:102700001188BFF36F8F70476FF01500704700BFDF
:102710000C90002008B514460D460022E1EE102A68
:10272000EFF3148222F0040282F31488BFF36F8F58
:10273000BFF36F8F084A906000F05CF8204685F385
:102740000988002163B681F31188BFF36F8F0022DF
:10275000002306F0BDFE00BF0C90002001491022AE
:102760000A60704710ED00E072B6404080F31188B7
:10277000BFF36F8FBFF34F8F30BF62B6BFF36F8F62
:10278000704700BF72B6494081F31188BFF34F8F85
:1027900020BF80F3118862B6704700BF0448002351
:1027A0002021C2180133302B82F80013F9D1704771
:1027B00000E100E001B5EFF30580A0F110004FEA61
:1027C000C0000449014409C99847BDE801400249D5
:1027D000084700004CAA0000751E0000024B034A87
:1027E0000348012100F082B800000420000000200E
:1027F00010AD000010B50446FFF712FF626E0346ED
:102800000548D21AC0E90023044B8360BDE810409C
:10281000012100F075B800BF148E002000000B15D8
:10282000084AC2F898000B6823F01F03034343F0E3
:102830001003C2F89C308B6843F00103C2F8A0304B
:10284000704700BF00ED00E02DE9FF410F469846BC
:10285000144605460026BE420EDA686840B3B8F159
:10286000000F12D0431E18420AD0134832464521A9
:1028700006F013FF6FF01504204604B0BDE8F081A8
:102880001F28F2D92A681342EFD12B68019306F072
:1028900095FFAB6803430393E3B2072B03D90748C3
:1028A00022464521E4E7204601A9FFF7B9FF01349C
:1028B00001360C35CFE700BFDEBB000006BC0000D0
:1028C000044B0522C3F89420BFF34F8FBFF36F8FE3
:1028D000704700BF00ED00E0BFF35F8F024B0022A6
:1028E000C3F89420704700BF00ED00E010B5034C22
:1028F00001232278FFF7A8FF207010BD1D93002050
:1029000008B5094A00231278FFF79EFF10F1160F51
:1029100003D0064B0022072800DD08BDC3F898004D
:10292000C3F8A0200130F6E71D93002000ED00E081
:10293000F0B54A4D2C68082C85B000F28C80FFF76A
:10294000CBFF00200C2684420DD1454D454F2C7005
:102950006846FFF7EDF800240646A6420AD1FFF7C5
:10296000AFFF002020E0696806FB0011FFF758FF69
:102970000130E8E7009800EB04114FEA041CCB6833
:102980003B40B3F5000F4BD010D8B3F5001F31D04A
:10299000B3F5800F39D0B3F5801F16D032484521EA
:1029A00006F07BFE6FF0150005B0F0BDB3F1807F3F
:1029B0003FD0B3F1007FF1D150F80C3088684A68FD
:1029C00006F0FCFE40F4802009E050F80C308868E6
:1029D0004A6806F0F3FE40F0885040F43020CDE91C
:1029E00001232A780390072A2CD92048452106F094
:1029F00054FED7E750F80C3088684A6806F0DEFECF
:102A000040F0885040F40020E9E750F80C30886826
:102A10004A6806F0D3FE40F0007040F40030DEE774
:102A200050F80C3088684A6806F0C8FE40F08270A2
:102A3000D5E750F80C3088684A6806F0BFFE40F0D1
:102A40008870CCE701A91046FFF7EAFE2B78013326
:102A50002B70013481E74FF0FF30A5E71CAD00007B
:102A60001D9300200000F0FF31BC000006BC0000F8
:102A7000014B1860704700BF340000200E4A01234C
:102A8000C2F840354FF080424FF08051C2F878359F
:102A9000D1F83001082808D1D1F83411052904D81B
:102AA0000648415C09B1C2F838364FF08043012234
:102AB000C3F880250020704700E0014067BC00009B
:102AC00020B1034B800143F001031847704700BF5A
:102AD00040AC000002F024BA084B70B5C31A0D4692
:102AE00007499B10044659430648402206F0C0FEA1
:102AF0002B4601462046BDE870401847348E002022
:102B0000B76DDBB698A9000073B50C4C0C4A402396
:102B1000041B00930D460B460A49A4106143064668
:102B2000094806F0D1FE011E05DA30462B4602B0F8
:102B3000BDE87040184702B070BD00BF348E002061
:102B400033990000B76DDBB698A90000002270B57C
:102B5000012104461046FFF7EDFC0F4802F078FB18
:102B60000E4B984215D102F083FB26690C49304682
:102B700006F009FD00280BDB0125356424690849AE
:102B800004F11C0006F0FFFC002801DBE5640020D6
:102B900070BD6FF00400FBE7D92B00000000AD0B07
:102BA0003CAD000070B501460C2309484B43C418E6
:102BB000D4E90E56403300221844A26306F045FEC5
:102BC0002DB132462B460348BDE87040184770BD12
:102BD000348E002098A9000010B1012804D070475D
:102BE000034B1B6C5B0701D1FFF7DCBF704700BFD5
:102BF000348E002008B54FF02003EFF3118183F3EA
:102C00001288BFF36F8F124A136843F002001060FE
:102C1000DA0708D481F31188BFF36F8F0120BDE874
:102C2000084002F037BB4FF08043D3F80C24D3F8B0
:102C30000C34DB07EED5074806F007FE81F3118858
:102C4000BFF36F8F0020BDE80840FFF7ABBF00BFA8
:102C5000848E0020748E00201FB500220123CDE950
:102C60000223094ACDF800D06B46CDF804D006F017
:102C700059FE002805DB4FF480420023684604F02B
:102C800021F805B05DF804FB5399000010B54FF032
:102C90002003EFF3118483F31288BFF36F8F074A89
:102CA000136823F00201DB07116002D4012007F052
:102CB000D6FA84F31188BFF36F8F10BD848E002085
:102CC0002DE9F0413849BFF35B8F0746012251E8F7
:102CD000003F41E800200028F9D1BFF35B8F33B9F2
:102CE000324933484B60CB608A6006F05FFC7B1E44
:102CF000012B2BD8012F07D14FF08043D3F81C3480
:102D000003F00303012B21D007F0AFFC0546F8B90F
:102D1000284B1B78E3B14FF080430222C3F808230D
:102D20000646DFF894804FF08044D4F81824D4F895
:102D30001834D20316D503F00303012B01D0012F61
:102D400010D15DB386F31188BFF36F8FBDE8F081BA
:102D50004FF02003EFF3118683F31288BFF36F8FD8
:102D60000125DEE7ADB13046FFF70CFDD4F818358C
:102D7000002BDAD1D4F80421002AD6D0C4F80431CB
:102D8000D4F804310123C4F81835C8F88031A360A1
:102D9000CBE70021212004F0C1FAE7E74FF08043A0
:102DA0000222C3F80423D1E7308E0020208E0020B9
:102DB000508E00204197002000E100E008B5074850
:102DC00007F0FAFB38B10648FFF752FE0448FEF759
:102DD00053FB002008BD6FF01200FBE7D4A90000F0
:102DE000E52D00000A2838B5074D044604D1AB682C
:102DF0000D215B6828469847AB6803485B68E1B2E1
:102E00009847204638BD00BFD4A90000004870474D
:102E1000D4AD00002DE9F74F43680F1ED3F818A07A
:102E200004461646C0F28580BB18534500F28180E7
:102E300047EA0205C5F30B05002D7AD1006906F0BB
:102E4000ADFD2946204606F00AFE0546002E66D155
:102E50000121204606F003FE002D4CD058E0002250
:102E6000354B9046597881B10BFA01F037EA0000F2
:102E70000BD101208840B04207D8B8F1000F3CD0F8
:102E800098F80100884238BF98460132042A03F1BD
:102E90000203E7D1B8F1000F31D0002398F80010F9
:102EA0008122CDE9003320463B4606F091FD98F89B
:102EB000012001239340F61A20461F4406F020FE0D
:102EC000002EC5D0CDE9009900238022062120469E
:102ED00006F07EFDB245C2D1C72100238022CDE994
:102EE0000099204606F074FD204606F009FE0121F7
:102EF000204606F0B4FD05460AE09846C5E72046A0
:102F000006F0FEFD0121204606F0A9FD6FF0150533
:102F1000206906F041FD284603B0BDE8F08F18B9DE
:102F200081464FF0FF3BCDE70121204606F097FD9B
:102F3000EEE76FF01505EEE7FCBD00002DE9F0416E
:102F4000044686B000694FF0FF32012107F0B0FB64
:102F50006368DB6ABBB1186807F02EFB48B9754897
:102F6000452106F09AFB6FF01206304606B0BDE828
:102F7000F08163684FF4D011D86A06F0EDFC10B10F
:102F80006D484521EDE763681B6B83B1186807F056
:102F900013FB10B969484521E3E763684FF4B011AA
:102FA000186B06F0D9FC10B165484521D9E7676870
:102FB000386807F001FB0028D5D0F86820BB2069ED
:102FC00006F0ECFC204606F06AFD002821DC2069B2
:102FD00006F0E2FC206906F0E1FC4FF00308002354
:102FE00005AECDF8048000961A469F21204606F0D3
:102FF000EFFC0546206906F0CFFCA5B151482A46F2
:10300000452106F04AFBAEE707F0D6FA0028D6D1F4
:10301000A9E7C107DBD54C48572106F03EFB204607
:1030200006F06EFDD3E73046424607F1240106F074
:10303000DCFB0646B0B197F82630039397F82530AD
:10304000029397F8243001939DF8163000939DF871
:1030500014209DF815303D48452106F01EFB6FF009
:10306000150682E797F828306BB3206906F096FCC6
:10307000204606F014FD051E1DDD97F8283080223D
:1030800025EA0305CDE900663346062120468DF882
:10309000135006F09DFC054670B901210DF1130394
:1030A0000093019103468022204606F091FC0546DC
:1030B000204606F025FD1DB125482A464521A0E7FA
:1030C000206906F069FC97F827506B1EDBB2FD2BD8
:1030D0003FF64BAFAA072AD0206906F05FFCAB078A
:1030E00010D40023CDE900338022B721204606F01A
:1030F0006FFC054690B1206906F04EFC15482A4643
:1031000045217EE70023CDE90033802206212046B9
:1031100006F05EFC05460028E3D0ECE72269137D4B
:1031200043F001031375206906F036FC1DE76FF0CC
:103130008505E3E79ABC0000BBBC0000E7BC0000CB
:10314000FFBC000046BD000024BD000064BD0000BF
:10315000A7BD0000C1BD0000024B0B60012313603E
:10316000704700BFA08E002000487047F0AD0000FF
:1031700070B50D462846194616461C4606F039FD20
:1031800040B9084823462A46452106F086FA6FF0E2
:10319000150070BD24B122462946304606F035FBA5
:1031A0000020F6E704BE000010B5012211460648D3
:1031B000064C07F07DFA07F005F9206007F0FEF8ED
:1031C0006060002010BD00BFA88E0020A08E0020EF
:1031D0000A48037883B14FF08042D2F81015D2F834
:1031E000103501F01E0123F01F030B4343F00103D0
:1031F000C2F8103500230370704700BF1E930020F3
:103200004FF08053D3F83031082B20D14FF080425B
:10321000D2F81015CB071AD5D2F8103501F01E01DF
:1032200023F01F030B43C2F81035D2F808315BB10D
:10323000D2F8103523F01F030B4343F00103C2F80B
:1032400010356FF08B007047024B01221A7000207E
:10325000704700BF1E9300202DE9F0410F46154630
:1032600007F0ACF829460646384606F0C2FCB846D8
:1032700098B3B7FBF6F306FB137323B9B5FBF6F46B
:1032800006FB145444B117482B463A46452106F034
:1032900004FA6FF015041AE0AE4218D84FF0FF326E
:1032A0004FF0FF33104803F00DFD07F087F8064696
:1032B000FFF7A6FF044668B9404602F069FCFFF735
:1032C00087FFAD1BB044F3D1074803F0D7FC20467D
:1032D000BDE8F0816FF08B04F6E704482B463A46D0
:1032E0004521D4E726BE0000A88E002004BE0000C1
:1032F000F8B50D462846194616461C4606F079FCD8
:1033000048B9234627482A46452106F0C6F96FF0FA
:1033100015042046F8BD002CFBD023484FF0FF32A7
:103320004FF0FF3303F0CEFC15F0030711D0C7F1C7
:103330000407A74228BF2746FFF762FF60BB31465C
:1033400028463A4602F052FCFFF742FF3D443E4415
:10335000E41B2544032CA5EB040711D84CB1FFF75F
:103360004FFFC8B922463146384602F03FFCFFF70E
:103370002FFF0E4AD2F80034DB07FBD500240DE006
:10338000FFF73EFF40B956F8041B384602F020FC18
:10339000043CFFF71DFFDDE76FF08B04024803F0EC
:1033A0006DFCB6E704BE0000A88E002000E00140DE
:1033B000F0B54068057B01F01F0444EA4514056937
:1033C00087B0002D64D0B2F5001F00F1100506D1C2
:1033D0002146284606F0D4FF002007B0F0BD01AE1C
:1033E0000027B2F5800F0197776039D1B3F1007FE4
:1033F00014BF052304238DF804300023CDE90463B2
:103400000393836823FA01F111F001011AD1B2F19B
:10341000A07F17D104F01F03620903F5E0732AD0DF
:10342000012A3BD11F4A52F82330DB070AD40DF1A1
:10343000030632462146284602F00AFA1A4B984201
:103440001CD0029603AA2146284602F0C3F8174B67
:10345000984220D101222146284602F061FABBE7BA
:10346000B3F1C06F05D0B3F1007F14BF0123022375
:10347000C1E70323BFE74FF0A042D4E73146284617
:1034800002F048FA094B9842DBD06FF00B00A4E73A
:103490006FF08500A1E76FF015009EE751F823302B
:1034A000FFDE00BF000300500400AD0B0000AD0BB9
:1034B00038B545682B69B3B11035284602F01AFAC1
:1034C000044680B90146284602F0DCF9084B9842D0
:1034D0000BD108492246284602F0B4F922460521BC
:1034E0000620FFF727F8002038BD6FF00400FBE747
:1034F0000000AD0BF9340000420970B5034602D05C
:10350000012A17D070BD0D4E326951680029F9D0DB
:1035100003F01F0301250C689D400029F2D08A6842
:103520002A4002D04B68304698472CB12368214688
:103530001C46F2E7024EE7E72346F8E7C0A9000081
:10354000ACA900002DE9F043466840F20635D006EC
:10355000337B87B002EA050554BFC2F34010032055
:1035600001F01F07B5F5837F144647EA43178DF82E
:10357000030044D00FD8062D18D007D8B5B1022DBE
:103580003FD06FF0150007B0BDE8F083B5F5807F40
:10359000F7D101250AE040F20222954233D0B5F579
:1035A000407F32D0B5F5007FEBD1022522032ED526
:1035B000726801238B40C2F80835326992BB07F06C
:1035C0001F037F092BD0012F79D13F4A02EB8302E1
:1035D00084F48033D2F80017C3F30043C4F34044AB
:1035E00044EA430421F4E16144EA800421F0070144
:1035F00044EA05230B43C2F800370020C3E7072540
:10360000D4E70425D2E70525D0E70325CEE76303F9
:1036100041BF012372688B40C2F80C35CDE74FF0F3
:10362000A042D3E710360DF102023946304602F0CF
:103630000FF914F4403F80460CD13946304606F06D
:103640009DFE224B9845D8D19DF80210304602F0DD
:103650005BF9D2E701AB4FF0000903AA39463046C7
:10366000CDE90439CDE90199CDF80C9001F0B2FF14
:10367000164B984285D114F4003315D09DF80330D1
:103680008DF80E3084F48034C4F300444B4603AA12
:10369000394630468DF80C508DF80D4002F054F844
:1036A0000A4B9842CDD06CE7CDE9043303AA0DF163
:1036B000030339463046039301F08CFFF0E703F52E
:1036C000E07352F82330FFDE000300500000AD0B22
:1036D000036803F01F025B09026004D0012B03485A
:1036E00018BF002070474FF0A04070470003005003
:1036F0002DE9F04FDFF85C81DFF85C9185B015466D
:10370000824600EB8101514503D1002005B0BDE8A0
:10371000F08FDAF80030D804C3F3432203F07F04BB
:1037200000F192807F2C4FEA134318F8027008BF13
:103730004FF0FF34192B00F28A80DFE803F00D14FC
:103740001A1D20261D88888888376388888888887D
:1037500088888888667C7F82C5F80C45621C5ED1AB
:103760000AF1040ACFE7C5F81445631CF8D0002617
:103770005FE0C5F80845F1E7C5F81045F5E7661CB8
:10378000C5F80845ECD0002604E0601CC5F80C45DF
:10379000E6D0012603A80394FFF79AFF039B4FF09E
:1037A000010B0BFA03F3C0F80C3508E0C5F8084527
:1037B000002FDAD1631CD3D00026B3460627DAF8EF
:1037C0000030019303F40052002A03A81CBF4FF0FD
:1037D000000B01260394FFF77BFF039A019B00EB8C
:1037E0008200C3F3C114D0F800273B0243EA8403EC
:1037F00043EA0B0302EA0902134343EA4603C0F813
:103800000037ADE7C5F80C45D2E7C5F86045621C46
:10381000DAF80030A4D0C3F38033002BB9D003A86A
:103820000394FFF755FF039B012606FA03F3C0F844
:103830000835B346C3E7C5F86445E8E7C5F8684509
:10384000E5E7C5F86C45E2E76FF015005EE76FF05D
:1038500085005BE78ABE0000F0F8FCFF2DE9F74326
:103860000646002201210220FEF764FE0220FEF738
:1038700031FE776835693C684FF00008C4F8008570
:103880002E60D7F80C9001AA4146484606F07AFA15
:10389000002834DB019BD9F8002019791868FFF75C
:1038A00027FF00282BDB6B7AD6F810C0012B03D042
:1038B000032B22D14FF01008AB7A032B1DD1E97AEC
:1038C00009B1012919D12A7A12B1022A15D10E2281
:1038D0006B687068B3F5164F00687AD02DD8B3F5D1
:1038E000165F79D016D8B3F5966F77D00AD8B3F5AE
:1038F000967F76D0B3F5167F76D06FF0850003B053
:10390000BDE8F083B3F5166F71D0B3F5965FF4D1CF
:103910005B4B3EE0B3F5E14F6CD007D8B3F5615F88
:103920006AD0B3F5964FE8D1564B32E047F6122EE7
:103930007345E2D14FF400032BE0B3F5613F5DD056
:1039400013D8B3F5963F5CD009D84DF6C02E734519
:1039500059D0B3F5614FD0D14FF46B0319E0B3F5F3
:10396000E13FCAD14FF0EB7313E0B3F5612F4DD0B7
:1039700009D8DFF82CE173454BD0B3F5E12FBCD16A
:103980004FF0E86305E0DFF81CE17345B5D14FF077
:103990008053C0F82435736841EA08011B680A4364
:1039A000C3F86C25D5E901010CF1040383E8030099
:1039B0007B6899073CD505F1180002F059F9324BA4
:1039C000984229D03148452105F067FE6FF0040088
:1039D00095E74FF41D03DCE72D4BDAE74FF49E2308
:1039E000D7E74FF4A033D4E74FF41C33D1E74FF4BB
:1039F0001D23CEE7274BCCE7274BCAE74FF06C736C
:103A0000C7E7264BC5E74FF46503C2E74FF0706385
:103A1000BFE74FF08063BCE7287E04F10C0204F599
:103A2000907106F012FC2B7E0120984001F0A8FB5B
:103A30000823C4F800353B7A53B9C4F81031D4F8E0
:103A400010316B69C4F834350123C4F8383523606C
:103A50007B689A075CBF4FF48073C4F804337B68BB
:103A6000DB0644BF4FF48003C4F804332B69C4F869
:103A7000443500200123C4F84805A360E3603EE715
:103A800000B0130000A04E000000AD0B92BE00007D
:103A90000050270000C0750000F03A0000903A0185
:103AA00090D0030040420F00F8B5044607690D4668
:103AB00006F0DBFDB0B92E4B1B789BB16426606825
:103AC00006F08EF900BB012006F0BDFB013EF6D1E9
:103AD0000021212003F022FCF0E786F31188BFF3D8
:103AE0006F8FF5E74FF02003EFF3118683F3128811
:103AF000BFF36F8F6068314606F072F990B986F3B4
:103B00001188BFF36F8FEDE74FF02003EFF31186BD
:103B100083F31288BFF36F8F6068314606F060F957
:103B20000028DAD03B691D70626838691368C3F8F1
:103B300044050120C3F848050020C3F82001D3F84C
:103B40002051C3F858015268D3F85801D20608D55D
:103B5000626812680820C2F800054FF48002C3F8BA
:103B6000042301229A6081F31188BFF36F8FF8BD9F
:103B7000419700202DE9F341456806692F6A01AAA3
:103B80000021384606F0FEF8041E18DB019B3A6857
:103B900019791868FFF7ACFD041E10DB696A481C30
:103BA00018D005F1280000F0E7FA10F1130F0446D1
:103BB00009D12748452105F070FD6FF01204204619
:103BC00002B0BDE8F081411D04D12248452105F035
:103BD00064FDF4E7EB699847B5680127D6E902323E
:103BE00003EBC2039D4204D3304606F073F9002470
:103BF000E5E7286806F0E0FC38B92A682B791268F6
:103C00001548452105F049FDD7E728682979EB8853
:103C1000D0F810C0D0F80880DCF80040DA0754BFB4
:103C200043F4B01383F4D01323F4801207FA01FE97
:103C3000DB074CBF4EEA040424EA0E04CCF8004033
:103C4000D8F800309847041EB9DB0835C6E700BF36
:103C5000D4BE000004BF000026BF00007FB50546AB
:103C6000406829698A6C0B6D0ABBABB14C6C8B65E3
:103C700016461A46C96C0291CDE9004611B3002BD5
:103C800018BF134600226946039302F02FF90E4B2A
:103C900098420AD06FF004032C69236304F12000DA
:103CA00002F0ECFF002384F85C3004B070BD4C6C73
:103CB00013B19A4228BF1A46002C8A6514BF1646D3
:103CC0000026D7E70B46DDE70000AD0B38B50378DB
:103CD0000C4663B98D6D5DB94B6D1C696FF0730354
:103CE000236304F1200002F0C9FF84F85C5038BD62
:103CF0008B6C2BB19D4211D92148452105F0CDFC9B
:103D0000236DA26D2BB19A4220D91D48452105F0A3
:103D1000C4FC606DBDE83840FFF7A0BF5B1B8B643F
:103D200073B94B6B08334B638B6B013B8B6301F1B6
:103D3000480204F13400383106F0A5F86064DFE78A
:103D40004B6C002BDCD02B444B64D9E79B1A2365CA
:103D50007BB9E36B0833E363236C013B236404F119
:103D6000500204F1400104F13C0006F08CF8E064DC
:103D7000CFE7E36C002BCCD01344E364C9E700BF6A
:103D80004FBF00002DE9F04F89B00F460093436804
:103D900001938B8804699904064691462DD44FF00F
:103DA000FF324FF0FF3304F1100002F08BFF676029
:103DB000D6F81080D6F804A098F85D3023B1D8F872
:103DC00000309F4200F0CD80B7F804C01CF4006FB3
:103DD0001AD0B348452105F060FC6FF085052368D3
:103DE0009B8813F4005304D1636004F1100002F0C7
:103DF00045FF284609B0BDE8F08FA369002BCED15E
:103E000063689F42CBD1D3E71CF0010F07D0326823
:103E1000A448452105F041FC6FF01505DFE71CF0D3
:103E2000080F04D0A048452105F037FCF4E7CCF397
:103E30004513082B02D09D484521F5E73D689C4B72
:103E40009D4202D89B484521EEE70AF1080BBBE8EA
:103E50000F000DF10C0EAEE80F00DBF80030CEF8CD
:103E60000030954B9D4253D9944B9D4253D9944B6E
:103E70009D4253D9934B9D4253D9934B9D4253D965
:103E8000924B9D422CBF4FF000454FF080451CF0F7
:103E9000020F05950CF0040349D0002B14BF032337
:103EA00002238DF81830CCF300138DF81930DAF8AE
:103EB0000030D3F808351CF0020F4FEA5312CCF350
:103EC000400103F01F0339D1AAB3012A40F02D812C
:103ED0007F49012202FA03F3C1F80C3598F85D30EE
:103EE0002BB1504601F0CAFF002388F85D30794AB3
:103EF000434603A9504601F08DFF774B9842024696
:103F00002AD07648452105F0C8FB6FF0040566E726
:103F10004FF00075BBE74FF08065B8E74FF00065E4
:103F2000B5E74FF08055B2E74FF00055AFE7003BE3
:103F300018BF0123B5E74FF0A041CAE74AB1012AF3
:103F400040F0F6806249012202FA03F3C1F8083515
:103F5000C4E74FF0A041F6E7012388F85D30C8F8C8
:103F60000070012384F85C30019B596A4A1C09D017
:103F700003F1280005F0D8FF743003D158485721C9
:103F800005F08BFBB9F1000F72D1C4F83490002317
:103F9000A36304F1480204F1380104F1340005F090
:103FA00072FF009B6064002B6AD1E36300232364EB
:103FB00004F1500204F1400104F13C0005F063FFFC
:103FC000E06420680023236348B183683BB101218A
:103FD000083005F06BFF2368186906F0E8FA3046F0
:103FE000FFF73CFE0022A06B1346834250D1002312
:103FF000256C1946A94277D19342274638BF13460C
:104000004FF4FA5202FB03F557F8203B4FF000083B
:104010001B68B5FBF3F54FF4004CC835414640F240
:10402000E7304FF47A720023E5FB0C01FCF768F8E7
:1040300002460B46384602F045FE00285BD0294870
:10404000452105F02AFB0198C4F8588001F016FFBD
:1040500084F85D8036696FF07305356306F12000E2
:1040600002F00CFE86F85C80384602F053FE46E013
:10407000D9F800306363002B89D0D9F8043087E782
:10408000009B1B68E363002B90D0009B5B688EE76E
:10409000616B01EBC301013349680A44A5E700BF26
:1040A00072BF000091BF0000B8BF0000DCBF00007D
:1040B00047E8010010C000008FD003001FA10700D7
:1040C0003F420F007F841E00FF083D0000127A006F
:1040D00000030050CD3C00000000AD0B46C00000C6
:1040E00072C00000A1C00000E06B00EBC100013114
:1040F000406803447EE7256B15F1740FA3D0236855
:10410000002B3FF46CAE9A68002A3FF468AE9988A1
:1041100011F480567FF463AE186906F048FA2068FF
:104120003146083005F0C2FE59E6C1F80C15FFDE35
:104130000023C3F80835FAE700F01F0240090DD04C
:1041400001280ED10A4B03EB82030A4AD3F8000779
:10415000024042EA8102C3F8002770474FF0A043B3
:10416000F1E702F5E072002353F82230FFDE00BFD2
:1041700000030050F0F8FCFFF0B587B001238DF884
:10418000023002238DF804306B4403930F4601ABD9
:104190000DF103010024049305460291059401F0FA
:1041A000B9FB0C4B984206460FD103AA3946284664
:1041B00001F010FAB0420BD09DF80310284601F030
:1041C000A3FB6FF0040007B0F0BD6FF01200FAE738
:1041D0002046F8E70000AD0B2DE9F341456806697C
:1041E000EF6B01AA0021384605F0CCFD041E18DB58
:1041F000019B3A6819791868FFF77AFA041E10DBF8
:10420000296C481C18D005F14400FFF7B5FF10F1E8
:10421000130F044609D12748452105F03EFA6FF0F7
:104220001204204602B0BDE8F081411D04D12248AD
:10423000452105F032FAF4E76B6B9847B568012722
:10424000D6E9023203EBC2039D4204D3304605F0A7
:10425000BFFE0024E5E7286806F0AEF938B92A6801
:104260002B7912681548452105F017FAD7E7286819
:104270002979EB88D0F810C0D0F80880DCF800402D
:10428000DA0754BF43F4B01383F4D01323F480123D
:1042900007FA01FEDB074CBF4EEA040424EA0E04D1
:1042A000CCF80040D8F800309847041EB9DB083538
:1042B000C6E700BFD4BE000004BF000026BF000058
:1042C0002DE9FF410569D0F80480AA6C2B6D0746E3
:1042D000002A3AD16BB3B8F83840686CEE6C9C4257
:1042E00028BF1C46EB6C53B12A6D42B106F0604208
:1042F000B2F1005F03D0082C6E6E28BF08246A6CF0
:10430000AC6500901AB1AA6C002A18BF2246CDE90C
:1043100001261BB12B6D002B18BF234600226946D6
:104320004046039302F09CF8164B98420AD06FF077
:1043300004033C69236304F1200002F09FFC002386
:1043400084F85C3004B0BDE8F081696CEE6CB8F8BC
:104350003840084613B19A4228BF1A46944228BFF3
:1043600014460029BED001F06043B3F1005FB9D01C
:10437000082C28BF0824286E224605F046FA286E2D
:10438000B0E700BF0000AD0B38B5027803460C461D
:1043900062B98D6D5DB94B6D1C696FF0730323635A
:1043A00004F1200002F06AFC84F85C5038BDC86C4F
:1043B00048B10A6D3AB1DB682BB1984203D0496E1F
:1043C0002A4605F022FAA36CA26D2BB19A4211D9AC
:1043D0002148452105F061F9236DA26D2BB19A4268
:1043E00021D91D48452105F058F9606DBDE83840D8
:1043F000FFF766BF9B1AA3647BB9636B08336363E3
:10440000A36B013BA36304F1480204F1380104F1FA
:10441000340005F0B6FD6064DEE7636C002BDBD092
:1044200013446364D8E79B1A23657BB9E36B0833B5
:10443000E363236C013B236404F1500204F1400167
:1044400004F13C0005F09DFDE064CEE7E36C002B39
:10445000CBD01344E364C8E74FBF00002DE9F04F11
:104460008FB09946436801938B8804690F4699047D
:104470000646924630D44FF0FF324FF0FF3304F13E
:10448000100002F01FFC6760D6F804B0D6F8108068
:10449000DBF80830039398F85D3023B1D8F800308A
:1044A0009F4200F0D380B7F804E01EF4006F1AD0EA
:1044B000B048452105F0F1F86FF0850523689B8829
:1044C00013F4005304D1636004F1100002F0D6FB32
:1044D00028460FB0BDE8F08FA369002BCBD16368ED
:1044E0009F42C8D1D0E71EF0010F07D03268A24822
:1044F000452105F0D2F86FF01505DFE71EF0080F33
:1045000004D09E48452105F0C8F8F4E7CEF34513E2
:10451000082B02D09A484521F5E73B680293029A9E
:10452000984B9A4202D898484521ECE70BF10C0CC5
:10453000BCE80F0004AD0FC5BCE80F000FC5DDE9F6
:1045400002329A4228BF1A469CE803008F4B9A42D7
:1045500085E8030017D28E4B9A4214D28D4B9A42B3
:1045600011D28D4B9A424FD88C4B9A424ED88C4BDD
:104570009A424DD88B4B9A424CD88B488B4B8C49E6
:10458000824288BF0B461EF0020F09930EF004030F
:1045900042D0002B14BF032302238DF82830CEF322
:1045A00000138DF82930DBF80030D3F808351EF001
:1045B000020F4FEA5312CEF3400103F01F0332D132
:1045C00072B3012A40F03B817A49012202FA03F3D7
:1045D000C1F80C3598F85D302BB1584601F0F2FE69
:1045E000002388F85D30744A434604A9584601F018
:1045F000B5FE724B9842024623D07148452105F022
:104600004CF86FF0040559E76E4BBCE76E4BBAE708
:104610006E4BB8E76E4BB6E7003B18BF0123BCE713
:104620004FF0A041D1E74AB1012A40F00B81614926
:10463000012202FA03F3C1F80835CBE74FF0A0419D
:10464000F6E7012388F85D30C8F80070012384F88C
:104650005C30019B196C4A1C09D003F1440005F041
:1046600063FC743003D15B48572105F016F8BAF1AA
:10467000000F76D1C4F834A00023A36304F14802EC
:1046800004F1380104F1340005F07BFC6064B9F1F9
:10469000000F40F0A380C4F83C900023236404F191
:1046A000500204F1400104F13C0005F06AFCE064B2
:1046B00020680023236348B183683BB1012108309F
:1046C00005F072FC2368186905F071FF3046FFF7AA
:1046D000F7FD0022A06B1346834240F08880002340
:1046E000256C1946A94240F089809342274638BF7D
:1046F00013464FF4FA5202FB03F557F8203B4FF0F4
:1047000000081B68B5FBF3F54FF4004CC835414673
:1047100040F2E7304FF47A720023E5FB0C01FBF71F
:10472000EFFC02460B46384602F0CCFA00286CD06B
:104730002948452104F0B1FF0198C4F8588001F0E0
:1047400041FE84F85D8036696FF07305356306F1CC
:10475000200002F093FA86F85C80384602F0DAFA1C
:1047600057E0DAF800306363002B85D0DAF80430C4
:1047700083E700BF72BF000091BF0000B8BF000018
:10478000DCBF000047E8010010C000000048E8015D
:104790000024F40000127A00FF083D007F841E0010
:1047A0003F420F001FA107008FD0030048E801001F
:1047B00090D0030000030050894300000000AD0BBF
:1047C00046C0000000093D0080841E0040420F00EA
:1047D00020A1070072C00000A1C00000D9F800307D
:1047E000E363002B3FF459AFD9F8043056E7616B0F
:1047F00001EBC301013349680A446DE7E06B00EB4C
:10480000C1000131406803446CE7256B15F1740F5A
:1048100092D02368002B3FF451AE9A68002A3FF4EF
:104820004DAE998811F480567FF448AE186905F0B2
:10483000BEFE20683146083005F0B6FB3EE6C1F802
:104840000C15FFDE0023C3F80835FAE770B5012325
:1048500083400E4ABFF35B8FDC4352E8001F01EA3E
:10486000040542E80056002EF7D1BFF35B8F4FF4EA
:10487000803282400648C0F80823BFF35F8FBFF341
:104880006F8F0B4214BF0120002070BDD48E00201A
:104890000010014070B40E49D1E90034D01AC31899
:1048A00044F1000422F07F46C1E90034A6F500136C
:1048B000B3F5400F09D2074B1B681A0A1B069C1957
:1048C000054B42F10005C3E9004570BC02F01CBE77
:1048D000E0020020D88E0020E802002011B3BFF3D0
:1048E0005B8F0123104A834052E800CF4CEA030C4F
:1048F00042E800C10029F7D1BFF35B8F0B4A4FF4A8
:1049000080338340C2F80433094BBFF35B8F1B68CD
:10491000BFF35B8FC340DB0742BF064B4FF400324F
:10492000C3F80021704700BFD48E00200010014062
:10493000D08E002000E100E00D4B1868010A00064F
:10494000BFF35F8F0B4BD3F80435181841F100010A
:10495000B3F5801F0AD2084BD3E90023904271EBD4
:10496000030303D210F1807041F10001704700BFD2
:10497000D88E002000100140E80200202DE9F04F01
:1049800085B016461F469DF840A00446FFF75EFF1F
:104990000190FFF7D1FFB04271EB070354D23E4BB9
:1049A000301A67EB0101984271F100014FD23B4B85
:1049B00003EB0413D3E902239F4208BF96425ED063
:1049C00037494FF4803804F1500508FA04F8AD0077
:1049D000C1F848832046ADB205F024FB26F07F4B9A
:1049E00005F1804504F5A87305F58835DC464FF0E0
:1049F00003090293029A2CF07F4341F82230C1F858
:104A00004483D1F80435274A6FF00200C01A60448D
:104A100020F07F40904232D9286868B1D1F804353F
:104A20000393A3EB0B0020F07F40B0F5000F26D9D5
:104A3000204605F0F7FA039BBAF1000F07D109EB06
:104A4000030C09F10109D5E7BAF1000F09D06FF0A5
:104A5000150520460199FFF741FF284605B0BDE83E
:104A6000F08F0123104ABFF35B8FA34052E8000F81
:104A7000184342E800010029F8D1BFF35B8F0749D2
:104A80000E98230101EB0412C8500F9B5360C2E93A
:104A900002670025DDE700BF01008000D002002092
:104AA00000100140FDFF7F00D08E00207FB51C4C20
:104AB0001C4BC4F80833C4F848331B4B00254FF097
:104AC000FF304FF0FF31C4F80855C3E902014FF43D
:104AD0008033C4F80433154B02264FF40032012111
:104AE000C4F804631120C3F880212A46FDF722FD93
:104AF0001120FDF7EFFC0E4A0123A3602360136031
:104B00000C4B0D4A0093CDE9015500232846FFF7D1
:104B100035FF3046FEF7D4F8284604B070BD00BF1C
:104B20000010014003000F00D002002000E100E06F
:104B3000D48E002095480000FFFF7F002DE9F74349
:104B40002F4CD4F8043399070BD5D4F8043143B172
:104B50002C4A0023C4F80431D4F80431136801331B
:104B60001360D4F80433DA032AD5BFF35B8F264BE6
:104B700053E8002F22F0010143E800100028F7D18C
:104B8000BFF35B8FD30702D4D4F84031C3B1002503
:104B9000C4F84051D4F84031FFF7CEFE4FF0200367
:104BA000EFF3118283F31288BFF36F8F174BD3E9B2
:104BB0000267B042B94106D282F31188BFF36F8F0A
:104BC00003B0BDE8F0834FF0FF384FF0FF39C3E981
:104BD0000289D3E900101D604FF48033C4F84833D4
:104BE000C4F84051D4F8403182F31188BFF36F8F7D
:104BF0000029E5D0009032463B4628468847DFE74B
:104C000000100140D88E0020D08E0020D00200205D
:104C100030B5431C124C85B005D08442A8BF044671
:104C2000012CB8BF0124FFF787FE0E4B0C4DD3E9D2
:104C30000013401AB0F5000F10D22218AA4228BF64
:104C40002A4652184FF0000007490091CDE90100B3
:104C500043F10003FFF792FE05B030BD2A46F0E7AE
:104C6000FFFF7F00E00200209548000008B5FFF735
:104C700063FE024B1B68C01A08BD00BFE0020020A3
:104C800010B5084C012363601120FDF731FC064B81
:104C9000C4F80833C4F84833044B4FF40032C3F867
:104CA000802110BD0010014003000F0000E100E072
:104CB00030B50C490C4D0B680246002405EB03107F
:104CC000D0F80808C0B218B904B10B60002007E0A2
:104CD0000133072B4FF00104F0D90B606FF01B007C
:104CE000136030BDDC8E002000E00140034808B5B1
:104CF000452104F0D2FC0020FDF710FB0EC100009E
:104D000030B5816885B0103921F00704054604F0FC
:104D100019FD10220146684604F082FD0749102261
:104D2000684604F072FD10236A462146284604F0C6
:104D3000D7FC003818BF012005B030BD68B10000B5
:104D400030B50D46816887B0102302AA1039044699
:104D500004F0B1FC002802DA012007B030BD1022B7
:104D600002A9204605F0CFF900283AD11E491022A9
:104D700002A804F03AFD00280CBF012302232B7087
:104D8000204605F0ACF9012301460DF1070220464B
:104D900004F091FC0028DFDB9DF8073003F00F02E0
:104DA0001B096A702B7101220DF10701204605F0E5
:104DB000AAF910B96B78042B03D901236B70002377
:104DC0002B71A268183A22F00702083AA91C204663
:104DD00005F0ACF90028BFD1E91C204605F0FFF929
:104DE000BBE70323CBE700BF68B10000F0B5354F48
:104DF000460085B00546694657F8260005F0F5F9E6
:104E0000044610B1FF2005B0F0BD013602A957F8E5
:104E1000260005F0EAF9012837D12B482A46492116
:104E200004F03BFC294B02938DF80C409DF8006088
:104E30009DF80870264C00222078314605F055F97F
:104E400050B36078394605F050F928B3A378042BA5
:104E500003D09DF8031099421ED1E378042B03D0B0
:104E60009DF80B10994217D12379042B10D1627948
:104E7000022A1DD1174B18482A46492104F00DFC7F
:104E80006079831E022BBED9BCE70028CED0B9E7DB
:104E90009DF802109942EAD00132032A04F1060477
:104EA000CAD10E482A46492104F0F7FB0120AAE79F
:104EB000032A05D00A4B0B49042A08BF0B46DAE740
:104EC000094BD8E7C0AF000053C100000301030342
:104ED000E8C1000035C100009EC10000C2C1000051
:104EE0003AC100004CC1000030C100004FF08053B7
:104EF000D3F83021082A06D1D3F83431052B02D853
:104F0000024AD05C70470020704700BF00C200001A
:104F1000024AD2F80034002BFBD0704700E0014079
:104F200010B54FF08053D3F83021082A4ED14FF0FE
:104F300080420021C2F80C11C2F81011C2F83815D5
:104F400002F54042D3F80414C2F82015D3F808142F
:104F5000C2F82415D3F80C14C2F82815D3F810148D
:104F6000C2F82C15D3F81414C2F83015D3F818145D
:104F7000C2F83415D3F81C14C2F84015D3F8201425
:104F8000C2F84415D3F82414C2F84815D3F82814ED
:104F9000C2F84C15D3F82C14C2F85015D3F83014BD
:104FA000C2F85415D3F83414C2F86015D3F8381485
:104FB000C2F86415D3F83C14C2F86815D3F840144D
:104FC000C2F86C15D3F84434C2F87035FFF78EFF81
:104FD00018B1414B414AC3F88C26FFF787FF18B13F
:104FE0003F4BFB22C3F81825FFF780FF70B14FF04D
:104FF00080414FF08053D1F8E42ED3F8583222F09C
:105000000F0203F00F031343C1F8E43EFFF76EFFF6
:1050100020B1344B4FF40072C3F840264FF0805358
:10502000D3F83031082B09D14FF08043D3F8002456
:10503000D20744BF6FF00102C3F800242A4AD2F815
:10504000883043F47003C2F88830BFF34F8FBFF34A
:105050006F8F4FF08053D3F83021082A0ED1D3F848
:105060003431052B02D8214AD35C3BB14FF01023D9
:10507000D3F808224FF08043C3F858254FF010238F
:10508000D3F80022002A03DBD3F80432002B22DA03
:10509000174901234FF01020C1F804351224FFF7FF
:1050A00037FFC0F80042FFF733FFC0F80442FFF7B4
:1050B0002FFF0023C1F80435FFF72AFFBFF34F8FFE
:1050C00009490C4BCA6802F4E0621343CB60BFF39A
:1050D0004F8F00BFFDE710BD005000404881030026
:1050E00000F000400090024000ED00E0FAC1000036
:1050F00000E001400400FA0530B50468CCB1BFF30C
:105100005B8FB4FA84F3C3F11F03DBB201229A4030
:1051100024EA020250E8005FA54204D140E8002CD6
:10512000BCF1000FF6D1BFF35B8FE6D102480B70E4
:1051300030BD0248FCE700BF0000AD0B0200AD0B24
:1051400010B50368CB40DB0714D401238B40026801
:10515000BFF35B8F43EA020150E8004F944204D151
:1051600040E8001CBCF1000FF6D1BFF35B8FEED11D
:10517000014810BD0148FCE70000AD0B0400AD0B79
:10518000014BC3F80405704700F00140F7B5044631
:1051900018B1012823D003B0F0BD4FF080430222A4
:1051A000C3F808230122DA60C3F80401D3F80431FC
:1051B000064601238DF8073042F210754FF0804704
:1051C000D4B1012CE7D1D7F80C3403F48033AEBB53
:1051D00083B3012005F037F8013DF4D12AE04FF008
:1051E00080430022C3F808035860C3F80021D3F8B5
:1051F00000310DF10706DCE7D7F8183403F48033EB
:105200003EB9002BC7D0012005F01DF8013DF3D1B8
:10521000C1E7D7F8182402F003023260002BBAD09D
:105220009DF80700012803D105F00DF8013DC7D115
:10523000012CB0D1054B00225A71ACE7D7F80C24F1
:1052400002F001023270002BEAD1F3E7E08E002079
:10525000044B1A7922B9012218609A8002487047DB
:1052600002487047E08E00200000AD0B0C00AD0B33
:1052700008B5074B1B682BB10020FDF74DF908B9A5
:10528000FDF728F94FF080430022C3F8182508BD28
:10529000E08E002010B510B1012843D010BD4FF0B2
:1052A0008043D3F81814D3F81824C80321D502F08A
:1052B0000303012B04D013B10020FFF767FF002385
:1052C0004FF080420220C2F8183508224FF4827352
:1052D00003F180430021196002F180421C6801241F
:1052E0001460154A12680AB34FF08043C3F80403F0
:1052F000D4E7D3F81424D107E1D5D3F81C249207BE
:10530000DAD40D4A12681AB10222C3F80423C5E7A1
:10531000D3F80421002AFBD00022C3F80421D3F8DB
:105320000431BBE700224FF48073D1E71A68002AEA
:10533000FCD019601B68B1E7E08E002010B54FF07B
:105340008043D3F800216AB10022C3F80021D3F8CA
:1053500000210122C3F80823114B587910B95A7162
:105360001B6898474FF08043D3F8042172B10022A4
:10537000C3F80421D3F80421D3F81824D3F818244F
:10538000920704D10122C3F818259A6010BD0222A9
:10539000C3F80823024BBDE810401B6801201847E2
:1053A000E08E0020036803F01F025B09026004D056
:1053B000012B034818BF002070474FF0A0407047F2
:1053C00000030050034A430900F01F00D35C184457
:1053D000C0B2704706C2000070B50546FFF7F2FF85
:1053E0000C4C08300E4634F81030DA0508D5C3F3FB
:1053F000432304EBC302284654F8333052689847DD
:10540000A3682BB1E26831462846BDE870401847D2
:1054100070BD00BF7C01002008B5FFF7D3FF034B30
:10542000083033F81000400B08BD00BF7C0100209D
:1054300008B5FFF7C7FF034B083033F81000C0F37F
:10544000400008BD7C01002008B5FFF7BBFF034BFF
:10545000083033F81000C0F3401008BD7C01002074
:10546000034611F0010010B5CCB20DD1A207C4F370
:10547000400012D5094AD2F820055860C2F820052C
:10548000003818BF012008E04FF0A041D1F82025D6
:105490001A60C1F82025002AE8D010BD0003005092
:1054A00010B5FFF78FFF124A083032F81030D905D7
:1054B0001CD5C3F3432123F4F85322F8103002F132
:1054C0000E04002034F8023F13F4807F03D0C3F3AE
:1054D000432399420AD001303028F3D1002342F807
:1054E00031300448BDE81040FFF72ABE10BD00BFB0
:1054F0007C010020F4010020F0B5054600200446A0
:10550000012607468C420BD1114BD3F87C2132B1D6
:105510000022C3F87C21D3F87C3140F00040F0BD7C
:10552000E3B29B0003F580729B0806FA03F31D4269
:105530000BD002F1804202F5C042D2F800C0BCF1AB
:10554000000F02D01760126818430134DAE700BF79
:1055500000600040F7B506460846FFF733FF194FD5
:1055600000F108050C4637F81530DB0727D5304623
:1055700004F0E0FE2046FFF767FF40B12046FFF74A
:105580004BFF316800F5A270002341F8203020461F
:10559000FFF786FF002301A827F815300194FFF7D5
:1055A00001FF019B00EB8300074BD0F8002713405D
:1055B00043F00203C0F80037044803B0F0BD0448CC
:1055C000FBE700BF7C010020F0F8FCFF0000AD0B02
:1055D0000400AD0B2DE9FF41164680460846FFF753
:1055E000F1FE0D463168044609B32846FFF720FF57
:1055F00018B12846FFF728FF10BB0023CDE9003380
:105600008DF80E308DF80F300DF10F020B46284645
:105610000DF10E0104F025FE474A04F1080132F8AD
:10562000113023F0020343F0010322F811307368B4
:1056300063B328461F785968FFF7FAFE10B1D1B15D
:105640003E4826E03C4A04F1080032F8103023F0CE
:105650002003DB04DB0C22F8103061B1032FEFD8FC
:105660007168496891F800C0D8F80010A7B90CF526
:10567000A27C41F82C70304A04F1080132F8113054
:1056800023F01C0343EA870322F81130B3684BBBB5
:105690002B4804B0BDE8F08101EB8C0143EA4C33A8
:1056A000D1F810E52EF0030EC1F810E5D8F800107F
:1056B00001EB8C0E43F02003DEF8101522F81030B9
:1056C00021F44F3121F44071CEF810152902DEF893
:1056D000108501F47C5141EA074141EA0801CEF806
:1056E0001015C8E7D3E900672846FFF7D9FE002E5A
:1056F000CED0114DD5E90023964203D19F4201D16E
:10570000002209E00F480DF10F01FFF7F5FC0C4BEB
:105710009842BED19DF80F2045F8326005EBC203D8
:1057200008345F6035F8143043EA422343F4807351
:1057300025F81430ACE700BF7C0100200400AD0B5D
:105740000000AD0BF40100202DE9F0430C4685B0BC
:105750008046204611461E46FFF734FE054629B313
:105760002046FFF765FE18B92046FFF76DFE18BB0F
:10577000314F05F1080937F8193013F01C0F02D02A
:105780004B78012B18D001238DF80F300023CDE981
:1057900000134A1C8B1C20460DF10F0104F061FD23
:1057A00037F8193043F0030327F81930002E41D0A1
:1057B0002046FFF73DFE18B9204805B0BDE8F0834C
:1057C00096F800C0D8F800301B4F0CF5A2720021EB
:1057D00043F8221005F1080237F8121021F02001D9
:1057E000C904C90C27F8121075781DB3D8F8000049
:1057F000B67800EB8C002D04D0F8103523F4991303
:1058000023F4F853C0F81035230203F47C5305F455
:1058100040353605D0F810E52B4306F4801641EAF2
:105820004C31334341F0200143EA0E0327F81210B4
:10583000C0F810350248C0E77C0100200400AD0B21
:105840000000AD0B014BC3E9021270477C01002040
:1058500010B508461446FFF7F7FD50B10846FFF7AC
:10586000B1FD054B083033F8103004485B0B237052
:1058700010BD0348FCE700BF7C0100200000AD0B19
:105880000400AD0B70B5184E96F8804005464CBB31
:105890002146602206F1100003F0C2FF2D68306F30
:1058A0002146884212D10023C5F87C3145F30730E8
:1058B000D5F87C31FCF70EFE4FF00043C5F80433F9
:1058C0000A48012386F88030B36770BDCBB29B00D5
:1058D00003F580727C2B08BFAC5001F1010108BFB9
:1058E000AB58DEE70248F0E77C0100200000AD0B7A
:1058F0000C00AD0B034B93F88000003818BF01205B
:10590000704700BF7C0100200148FFF719BC00BFB1
:10591000F00100200148FFF7EFBB00BFF0010020BD
:1059200073B5054608460C461646FFF78DFD00B3D5
:105930000846FFF77DFD0146D8B92046FFF76CFD0C
:1059400004B2A40004F580720346286881502968D7
:1059500082582144D1F8102542F00102C1F81025E7
:105960002EB12968012202FA03F3C1F8043302B010
:1059700070BD2046FFF726FD0F4B083033F810307E
:10598000C3F38203042B12D0052B12D001A801947B
:10599000FFF708FD019AD0F81035D34003F001035A
:1059A000991C204602B0BDE8704004F0A3BC03215E
:1059B000F7E70221F5E700BF7C0100202DE9F04F59
:1059C000694BDFF8B081D3F80403D8F87010C0B287
:1059D00089B040F00040FFF78FFD051E2FDAC24668
:1059E00000235AF87C1F06A8CDE90633FFF738FDDF
:1059F0005E4B01930DF118094FF0000B019A12F85C
:105A0000013B0192DA0803F007031AF8022022FA98
:105A100003F3DA071CD409F10409BBF1000F14D019
:105A2000D8F870104FF00040FFF766FDD8F87C10F2
:105A300006A8FFF715FD0028DAD125F0004501245E
:105A4000002D79D109B0BDE8F08F4FF0010BD5E7FB
:105A5000474B5B440293D9F800100029DBD0029B2E
:105A600091FAA1F11C78B1FA81F141EA441420467F
:105A7000FFF7A8FC0830059438F81070C808BB0878
:105A800019F80020039301F00701012303FA01F143
:105A900022EA010209F8002005A8FFF783FC059A15
:105AA000039B02F5E072C7F3820650F822205B07E1
:105AB0003746C2F3014224D520463946D6B2FFF715
:105AC0008BFC05A80594FFF76DFC059B03F5E073BF
:105AD00050F82330C3F301439E4207D100212046F2
